{"src/TMT.sol":{"TMT":{"abi":[{"inputs":[{"internalType":"bytes32","name":"initLeaf","type":"bytes32"}],"stateMutability":"nonpayable","type":"constructor"},{"anonymous":false,"inputs":[{"indexed":true,"internalType":"bytes32","name":"leaf","type":"bytes32"}],"name":"LeafAdded","type":"event"},{"inputs":[{"internalType":"bytes32","name":"s","type":"bytes32"}],"name":"addLeaf","outputs":[],"stateMutability":"nonpayable","type":"function"},{"inputs":[],"name":"getLast64Roots","outputs":[{"internalType":"bytes32[64]","name":"","type":"bytes32[64]"}],"stateMutability":"view","type":"function"},{"inputs":[],"name":"length","outputs":[{"internalType":"uint40","name":"","type":"uint40"}],"stateMutability":"view","type":"function"},{"inputs":[],"name":"root","outputs":[{"internalType":"bytes32","name":"","type":"bytes32"}],"stateMutability":"view","type":"function"}],"evm":{"bytecode":{"linkReferences":{"src/lib/PoseidonHash.sol":{"PoseidonT2":[{"length":20,"start":84}],"PoseidonT3":[{"length":20,"start":1607},{"length":20,"start":2056}]}},"object":"60a060405264010000000064ffffffffff1660809064ffffffffff1681525034801561002a57600080fd5b5060405161107f38038061107f833981810160405281019061004c919061019e565b80600081905073__$3b95fa720ec38d9edcd1ad06cd0807af45$__639d036e7160405180602001604052808460001c8152506040518263ffffffff1660e01b815260040161009a9190610280565b602060405180830381865af41580156100b7573d6000803e3d6000fd5b505050506040513d601f19601f820116820180604052508101906100db91906102c7565b60001b6042819055506001604160006101000a81548164ffffffffff021916908364ffffffffff1602179055506001604360008060ff16815260200190815260200160002060006101000a81548164ffffffffff021916908364ffffffffff16021790555080604460008060ff168152602001908152602001600020819055505050506102f4565b600080fd5b6000819050919050565b61017b81610168565b811461018657600080fd5b50565b60008151905061019881610172565b92915050565b6000602082840312156101b4576101b3610163565b5b60006101c284828501610189565b91505092915050565b600060019050919050565b600081905092915050565b6000819050919050565b6000819050919050565b6101fe816101eb565b82525050565b600061021083836101f5565b60208301905092915050565b6000602082019050919050565b610232816101cb565b61023c81846101d6565b9250610247826101e1565b8060005b8381101561027857815161025f8782610204565b965061026a8361021c565b92505060018101905061024b565b505050505050565b60006020820190506102956000830184610229565b92915050565b6102a4816101eb565b81146102af57600080fd5b50565b6000815190506102c18161029b565b92915050565b6000602082840312156102dd576102dc610163565b5b60006102eb848285016102b2565b91505092915050565b608051610d7061030f600039600061016f0152610d706000f3fe608060405234801561001057600080fd5b506004361061004c5760003560e01c80631f7b6d3214610051578063ea9493461461006f578063ebf0c7171461008b578063fdd4f025146100a9575b600080fd5b6100596100c7565b60405161006691906107ee565b60405180910390f35b61008960048036038101906100849190610844565b6100de565b005b610093610118565b6040516100a09190610880565b60405180910390f35b6100b161011e565b6040516100be9190610946565b60405180910390f35b604160009054906101000a900464ffffffffff1681565b6100e781610169565b50807fe031a2a9091bffbdf32f00286ac809f11de72b5b10618b213be2372da7d9257060405160405180910390a250565b60425481565b6101266107ab565b600160408060200260405190810160405280929190826040801561015f576020028201915b81548152602001906001019080831161014b575b5050505050905090565b600060017f00000000000000000000000000000000000000000000000000000000000000006101989190610991565b64ffffffffff166041600081819054906101000a900464ffffffffff16809291906101c2906109ca565b91906101000a81548164ffffffffff021916908364ffffffffff16021790555064ffffffffff1603610229576040517f08c379a000000000000000000000000000000000000000000000000000000000815260040161022090610a54565b60405180910390fd5b604160009054906101000a900464ffffffffff16604360008060ff16815260200190815260200160002060006101000a81548164ffffffffff021916908364ffffffffff1602179055506000604160009054906101000a900464ffffffffff1690506000808490505b60028364ffffffffff16106102dc576102ac8383836102f7565b905060026001846102bd9190610991565b6102c79190610aa3565b925081806102d490610ae1565b925050610292565b8093506102e8846106f1565b83604281905550505050919050565b600080600060028664ffffffffff16036104a95761032e604460008760ff1660ff168152602001908152602001600020548561078c565b809250819350505073__$bd69ea624114fb48ec2d96990b1b041dcf$__63561558fe60405180604001604052808560001c81526020018460001c8152506040518263ffffffff1660e01b81526004016103879190610bbf565b602060405180830381865af41580156103a4573d6000803e3d6000fd5b505050506040513d601f19601f820116820180604052508101906103c89190610c06565b60001b925082604460006001886103df9190610c33565b60ff1660ff1681526020019081526020016000208190555060006043600060018861040a9190610c33565b60ff1660ff16815260200190815260200160002060009054906101000a900464ffffffffff1664ffffffffff16036104a4576043600060018761044d9190610c33565b60ff1660ff168152602001908152602001600020600081819054906101000a900464ffffffffff1680929190610482906109ca565b91906101000a81548164ffffffffff021916908364ffffffffff160217905550505b610590565b60016002876104b89190610c68565b64ffffffffff16036104cc5783925061058f565b6104ef604460008760ff1660ff168152602001908152602001600020548561078c565b809250819350505073__$bd69ea624114fb48ec2d96990b1b041dcf$__63561558fe60405180604001604052808560001c81526020018460001c8152506040518263ffffffff1660e01b81526004016105489190610bbf565b602060405180830381865af4158015610565573d6000803e3d6000fd5b505050506040513d601f19601f820116820180604052508101906105899190610c06565b60001b92505b5b60008560ff16036105be5783604460008760ff1660ff168152602001908152602001600020819055506106e8565b6000604360008760ff1660ff16815260200190815260200160002060009054906101000a900464ffffffffff1690506000604360006001896106009190610c99565b60ff1660ff16815260200190815260200160002060009054906101000a900464ffffffffff1690508064ffffffffff16600260018461063f9190610991565b6106499190610cce565b64ffffffffff16036106e557604360008860ff1660ff168152602001908152602001600020600081819054906101000a900464ffffffffff168092919061068f906109ca565b91906101000a81548164ffffffffff021916908364ffffffffff1602179055505060028864ffffffffff16146106c557846106c7565b855b604460008960ff1660ff168152602001908152602001600020819055505b50505b50509392505050565b604060ff1660008054906101000a900460ff1660ff16036107285760008060006101000a81548160ff021916908360ff1602179055505b80600160008054906101000a900460ff1660ff166040811061074d5761074c610d0b565b5b018190555060008081819054906101000a900460ff168092919061077090610ae1565b91906101000a81548160ff021916908360ff1602179055505050565b60008082841061079d5782846107a0565b83835b915091509250929050565b604051806108000160405280604090602082028036833780820191505090505090565b600064ffffffffff82169050919050565b6107e8816107ce565b82525050565b600060208201905061080360008301846107df565b92915050565b600080fd5b6000819050919050565b6108218161080e565b811461082c57600080fd5b50565b60008135905061083e81610818565b92915050565b60006020828403121561085a57610859610809565b5b60006108688482850161082f565b91505092915050565b61087a8161080e565b82525050565b60006020820190506108956000830184610871565b92915050565b600060409050919050565b600081905092915050565b6000819050919050565b6108c48161080e565b82525050565b60006108d683836108bb565b60208301905092915050565b6000602082019050919050565b6108f88161089b565b61090281846108a6565b925061090d826108b1565b8060005b8381101561093e57815161092587826108ca565b9650610930836108e2565b925050600181019050610911565b505050505050565b60006108008201905061095c60008301846108ef565b92915050565b7f4e487b7100000000000000000000000000000000000000000000000000000000600052601160045260246000fd5b600061099c826107ce565b91506109a7836107ce565b9250828201905064ffffffffff8111156109c4576109c3610962565b5b92915050565b60006109d5826107ce565b915064ffffffffff82036109ec576109eb610962565b5b600182019050919050565b600082825260208201905092915050565b7f547265652046756c6c2100000000000000000000000000000000000000000000600082015250565b6000610a3e600a836109f7565b9150610a4982610a08565b602082019050919050565b60006020820190508181036000830152610a6d81610a31565b9050919050565b7f4e487b7100000000000000000000000000000000000000000000000000000000600052601260045260246000fd5b6000610aae826107ce565b9150610ab9836107ce565b925082610ac957610ac8610a74565b5b828204905092915050565b600060ff82169050919050565b6000610aec82610ad4565b915060ff8203610aff57610afe610962565b5b600182019050919050565b600060029050919050565b600081905092915050565b6000819050919050565b6000819050919050565b610b3d81610b2a565b82525050565b6000610b4f8383610b34565b60208301905092915050565b6000602082019050919050565b610b7181610b0a565b610b7b8184610b15565b9250610b8682610b20565b8060005b83811015610bb7578151610b9e8782610b43565b9650610ba983610b5b565b925050600181019050610b8a565b505050505050565b6000604082019050610bd46000830184610b68565b92915050565b610be381610b2a565b8114610bee57600080fd5b50565b600081519050610c0081610bda565b92915050565b600060208284031215610c1c57610c1b610809565b5b6000610c2a84828501610bf1565b91505092915050565b6000610c3e82610ad4565b9150610c4983610ad4565b9250828201905060ff811115610c6257610c61610962565b5b92915050565b6000610c73826107ce565b9150610c7e836107ce565b925082610c8e57610c8d610a74565b5b828206905092915050565b6000610ca482610ad4565b9150610caf83610ad4565b9250828203905060ff811115610cc857610cc7610962565b5b92915050565b6000610cd9826107ce565b9150610ce4836107ce565b9250828202610cf2816107ce565b9150808214610d0457610d03610962565b5b5092915050565b7f4e487b7100000000000000000000000000000000000000000000000000000000600052603260045260246000fdfea26469706673582212208695689359c53ded90da52a33f9822b5e671fc222fd29b1506c28cf7f579be7964736f6c634300081c0033","opcodes":"PUSH1 0xA0 PUSH1 0x40 MSTORE PUSH5 0x100000000 PUSH5 0xFFFFFFFFFF AND PUSH1 0x80 SWAP1 PUSH5 0xFFFFFFFFFF AND DUP2 MSTORE POP CALLVALUE DUP1 ISZERO PUSH2 0x2A JUMPI PUSH1 0x0 DUP1 REVERT JUMPDEST POP PUSH1 0x40 MLOAD PUSH2 0x107F CODESIZE SUB DUP1 PUSH2 0x107F DUP4 CODECOPY DUP2 DUP2 ADD PUSH1 0x40 MSTORE DUP2 ADD SWAP1 PUSH2 0x4C SWAP2 SWAP1 PUSH2 0x19E JUMP JUMPDEST DUP1 PUSH1 0x0 DUP2 SWAP1 POP PUSH20 0x0 PUSH4 0x9D036E71 PUSH1 0x40 MLOAD DUP1 PUSH1 0x20 ADD PUSH1 0x40 MSTORE DUP1 DUP5 PUSH1 0x0 SHR DUP2 MSTORE POP PUSH1 0x40 MLOAD DUP3 PUSH4 0xFFFFFFFF AND PUSH1 0xE0 SHL DUP2 MSTORE PUSH1 0x4 ADD PUSH2 0x9A SWAP2 SWAP1 PUSH2 0x280 JUMP JUMPDEST PUSH1 0x20 PUSH1 0x40 MLOAD DUP1 DUP4 SUB DUP2 DUP7 GAS DELEGATECALL ISZERO DUP1 ISZERO PUSH2 0xB7 JUMPI RETURNDATASIZE PUSH1 0x0 DUP1 RETURNDATACOPY RETURNDATASIZE PUSH1 0x0 REVERT JUMPDEST POP POP POP POP PUSH1 0x40 MLOAD RETURNDATASIZE PUSH1 0x1F NOT PUSH1 0x1F DUP3 ADD AND DUP3 ADD DUP1 PUSH1 0x40 MSTORE POP DUP2 ADD SWAP1 PUSH2 0xDB SWAP2 SWAP1 PUSH2 0x2C7 JUMP JUMPDEST PUSH1 0x0 SHL PUSH1 0x42 DUP2 SWAP1 SSTORE POP PUSH1 0x1 PUSH1 0x41 PUSH1 0x0 PUSH2 0x100 EXP DUP2 SLOAD DUP2 PUSH5 0xFFFFFFFFFF MUL NOT AND SWAP1 DUP4 PUSH5 0xFFFFFFFFFF AND MUL OR SWAP1 SSTORE POP PUSH1 0x1 PUSH1 0x43 PUSH1 0x0 DUP1 PUSH1 0xFF AND DUP2 MSTORE PUSH1 0x20 ADD SWAP1 DUP2 MSTORE PUSH1 0x20 ADD PUSH1 0x0 KECCAK256 PUSH1 0x0 PUSH2 0x100 EXP DUP2 SLOAD DUP2 PUSH5 0xFFFFFFFFFF MUL NOT AND SWAP1 DUP4 PUSH5 0xFFFFFFFFFF AND MUL OR SWAP1 SSTORE POP DUP1 PUSH1 0x44 PUSH1 0x0 DUP1 PUSH1 0xFF AND DUP2 MSTORE PUSH1 0x20 ADD SWAP1 DUP2 MSTORE PUSH1 0x20 ADD PUSH1 0x0 KECCAK256 DUP2 SWAP1 SSTORE POP POP POP POP PUSH2 0x2F4 JUMP JUMPDEST PUSH1 0x0 DUP1 REVERT JUMPDEST PUSH1 0x0 DUP2 SWAP1 POP SWAP2 SWAP1 POP JUMP JUMPDEST PUSH2 0x17B DUP2 PUSH2 0x168 JUMP JUMPDEST DUP2 EQ PUSH2 0x186 JUMPI PUSH1 0x0 DUP1 REVERT JUMPDEST POP JUMP JUMPDEST PUSH1 0x0 DUP2 MLOAD SWAP1 POP PUSH2 0x198 DUP2 PUSH2 0x172 JUMP JUMPDEST SWAP3 SWAP2 POP POP JUMP JUMPDEST PUSH1 0x0 PUSH1 0x20 DUP3 DUP5 SUB SLT ISZERO PUSH2 0x1B4 JUMPI PUSH2 0x1B3 PUSH2 0x163 JUMP JUMPDEST JUMPDEST PUSH1 0x0 PUSH2 0x1C2 DUP5 DUP3 DUP6 ADD PUSH2 0x189 JUMP JUMPDEST SWAP2 POP POP SWAP3 SWAP2 POP POP JUMP JUMPDEST PUSH1 0x0 PUSH1 0x1 SWAP1 POP SWAP2 SWAP1 POP JUMP JUMPDEST PUSH1 0x0 DUP2 SWAP1 POP SWAP3 SWAP2 POP POP JUMP JUMPDEST PUSH1 0x0 DUP2 SWAP1 POP SWAP2 SWAP1 POP JUMP JUMPDEST PUSH1 0x0 DUP2 SWAP1 POP SWAP2 SWAP1 POP JUMP JUMPDEST PUSH2 0x1FE DUP2 PUSH2 0x1EB JUMP JUMPDEST DUP3 MSTORE POP POP JUMP JUMPDEST PUSH1 0x0 PUSH2 0x210 DUP4 DUP4 PUSH2 0x1F5 JUMP JUMPDEST PUSH1 0x20 DUP4 ADD SWAP1 POP SWAP3 SWAP2 POP POP JUMP JUMPDEST PUSH1 0x0 PUSH1 0x20 DUP3 ADD SWAP1 POP SWAP2 SWAP1 POP JUMP JUMPDEST PUSH2 0x232 DUP2 PUSH2 0x1CB JUMP JUMPDEST PUSH2 0x23C DUP2 DUP5 PUSH2 0x1D6 JUMP JUMPDEST SWAP3 POP PUSH2 0x247 DUP3 PUSH2 0x1E1 JUMP JUMPDEST DUP1 PUSH1 0x0 JUMPDEST DUP4 DUP2 LT ISZERO PUSH2 0x278 JUMPI DUP2 MLOAD PUSH2 0x25F DUP8 DUP3 PUSH2 0x204 JUMP JUMPDEST SWAP7 POP PUSH2 0x26A DUP4 PUSH2 0x21C JUMP JUMPDEST SWAP3 POP POP PUSH1 0x1 DUP2 ADD SWAP1 POP PUSH2 0x24B JUMP JUMPDEST POP POP POP POP POP POP JUMP JUMPDEST PUSH1 0x0 PUSH1 0x20 DUP3 ADD SWAP1 POP PUSH2 0x295 PUSH1 0x0 DUP4 ADD DUP5 PUSH2 0x229 JUMP JUMPDEST SWAP3 SWAP2 POP POP JUMP JUMPDEST PUSH2 0x2A4 DUP2 PUSH2 0x1EB JUMP JUMPDEST DUP2 EQ PUSH2 0x2AF JUMPI PUSH1 0x0 DUP1 REVERT JUMPDEST POP JUMP JUMPDEST PUSH1 0x0 DUP2 MLOAD SWAP1 POP PUSH2 0x2C1 DUP2 PUSH2 0x29B JUMP JUMPDEST SWAP3 SWAP2 POP POP JUMP JUMPDEST PUSH1 0x0 PUSH1 0x20 DUP3 DUP5 SUB SLT ISZERO PUSH2 0x2DD JUMPI PUSH2 0x2DC PUSH2 0x163 JUMP JUMPDEST JUMPDEST PUSH1 0x0 PUSH2 0x2EB DUP5 DUP3 DUP6 ADD PUSH2 0x2B2 JUMP JUMPDEST SWAP2 POP POP SWAP3 SWAP2 POP POP JUMP JUMPDEST PUSH1 0x80 MLOAD PUSH2 0xD70 PUSH2 0x30F PUSH1 0x0 CODECOPY PUSH1 0x0 PUSH2 0x16F ADD MSTORE PUSH2 0xD70 PUSH1 0x0 RETURN INVALID PUSH1 0x80 PUSH1 0x40 MSTORE CALLVALUE DUP1 ISZERO PUSH2 0x10 JUMPI PUSH1 0x0 DUP1 REVERT JUMPDEST POP PUSH1 0x4 CALLDATASIZE LT PUSH2 0x4C JUMPI PUSH1 0x0 CALLDATALOAD PUSH1 0xE0 SHR DUP1 PUSH4 0x1F7B6D32 EQ PUSH2 0x51 JUMPI DUP1 PUSH4 0xEA949346 EQ PUSH2 0x6F JUMPI DUP1 PUSH4 0xEBF0C717 EQ PUSH2 0x8B JUMPI DUP1 PUSH4 0xFDD4F025 EQ PUSH2 0xA9 JUMPI JUMPDEST PUSH1 0x0 DUP1 REVERT JUMPDEST PUSH2 0x59 PUSH2 0xC7 JUMP JUMPDEST PUSH1 0x40 MLOAD PUSH2 0x66 SWAP2 SWAP1 PUSH2 0x7EE JUMP JUMPDEST PUSH1 0x40 MLOAD DUP1 SWAP2 SUB SWAP1 RETURN JUMPDEST PUSH2 0x89 PUSH1 0x4 DUP1 CALLDATASIZE SUB DUP2 ADD SWAP1 PUSH2 0x84 SWAP2 SWAP1 PUSH2 0x844 JUMP JUMPDEST PUSH2 0xDE JUMP JUMPDEST STOP JUMPDEST PUSH2 0x93 PUSH2 0x118 JUMP JUMPDEST PUSH1 0x40 MLOAD PUSH2 0xA0 SWAP2 SWAP1 PUSH2 0x880 JUMP JUMPDEST PUSH1 0x40 MLOAD DUP1 SWAP2 SUB SWAP1 RETURN JUMPDEST PUSH2 0xB1 PUSH2 0x11E JUMP JUMPDEST PUSH1 0x40 MLOAD PUSH2 0xBE SWAP2 SWAP1 PUSH2 0x946 JUMP JUMPDEST PUSH1 0x40 MLOAD DUP1 SWAP2 SUB SWAP1 RETURN JUMPDEST PUSH1 0x41 PUSH1 0x0 SWAP1 SLOAD SWAP1 PUSH2 0x100 EXP SWAP1 DIV PUSH5 0xFFFFFFFFFF AND DUP2 JUMP JUMPDEST PUSH2 0xE7 DUP2 PUSH2 0x169 JUMP JUMPDEST POP DUP1 PUSH32 0xE031A2A9091BFFBDF32F00286AC809F11DE72B5B10618B213BE2372DA7D92570 PUSH1 0x40 MLOAD PUSH1 0x40 MLOAD DUP1 SWAP2 SUB SWAP1 LOG2 POP JUMP JUMPDEST PUSH1 0x42 SLOAD DUP2 JUMP JUMPDEST PUSH2 0x126 PUSH2 0x7AB JUMP JUMPDEST PUSH1 0x1 PUSH1 0x40 DUP1 PUSH1 0x20 MUL PUSH1 0x40 MLOAD SWAP1 DUP2 ADD PUSH1 0x40 MSTORE DUP1 SWAP3 SWAP2 SWAP1 DUP3 PUSH1 0x40 DUP1 ISZERO PUSH2 0x15F JUMPI PUSH1 0x20 MUL DUP3 ADD SWAP2 JUMPDEST DUP2 SLOAD DUP2 MSTORE PUSH1 0x20 ADD SWAP1 PUSH1 0x1 ADD SWAP1 DUP1 DUP4 GT PUSH2 0x14B JUMPI JUMPDEST POP POP POP POP POP SWAP1 POP SWAP1 JUMP JUMPDEST PUSH1 0x0 PUSH1 0x1 PUSH32 0x0 PUSH2 0x198 SWAP2 SWAP1 PUSH2 0x991 JUMP JUMPDEST PUSH5 0xFFFFFFFFFF AND PUSH1 0x41 PUSH1 0x0 DUP2 DUP2 SWAP1 SLOAD SWAP1 PUSH2 0x100 EXP SWAP1 DIV PUSH5 0xFFFFFFFFFF AND DUP1 SWAP3 SWAP2 SWAP1 PUSH2 0x1C2 SWAP1 PUSH2 0x9CA JUMP JUMPDEST SWAP2 SWAP1 PUSH2 0x100 EXP DUP2 SLOAD DUP2 PUSH5 0xFFFFFFFFFF MUL NOT AND SWAP1 DUP4 PUSH5 0xFFFFFFFFFF AND MUL OR SWAP1 SSTORE POP PUSH5 0xFFFFFFFFFF AND SUB PUSH2 0x229 JUMPI PUSH1 0x40 MLOAD PUSH32 0x8C379A000000000000000000000000000000000000000000000000000000000 DUP2 MSTORE PUSH1 0x4 ADD PUSH2 0x220 SWAP1 PUSH2 0xA54 JUMP JUMPDEST PUSH1 0x40 MLOAD DUP1 SWAP2 SUB SWAP1 REVERT JUMPDEST PUSH1 0x41 PUSH1 0x0 SWAP1 SLOAD SWAP1 PUSH2 0x100 EXP SWAP1 DIV PUSH5 0xFFFFFFFFFF AND PUSH1 0x43 PUSH1 0x0 DUP1 PUSH1 0xFF AND DUP2 MSTORE PUSH1 0x20 ADD SWAP1 DUP2 MSTORE PUSH1 0x20 ADD PUSH1 0x0 KECCAK256 PUSH1 0x0 PUSH2 0x100 EXP DUP2 SLOAD DUP2 PUSH5 0xFFFFFFFFFF MUL NOT AND SWAP1 DUP4 PUSH5 0xFFFFFFFFFF AND MUL OR SWAP1 SSTORE POP PUSH1 0x0 PUSH1 0x41 PUSH1 0x0 SWAP1 SLOAD SWAP1 PUSH2 0x100 EXP SWAP1 DIV PUSH5 0xFFFFFFFFFF AND SWAP1 POP PUSH1 0x0 DUP1 DUP5 SWAP1 POP JUMPDEST PUSH1 0x2 DUP4 PUSH5 0xFFFFFFFFFF AND LT PUSH2 0x2DC JUMPI PUSH2 0x2AC DUP4 DUP4 DUP4 PUSH2 0x2F7 JUMP JUMPDEST SWAP1 POP PUSH1 0x2 PUSH1 0x1 DUP5 PUSH2 0x2BD SWAP2 SWAP1 PUSH2 0x991 JUMP JUMPDEST PUSH2 0x2C7 SWAP2 SWAP1 PUSH2 0xAA3 JUMP JUMPDEST SWAP3 POP DUP2 DUP1 PUSH2 0x2D4 SWAP1 PUSH2 0xAE1 JUMP JUMPDEST SWAP3 POP POP PUSH2 0x292 JUMP JUMPDEST DUP1 SWAP4 POP PUSH2 0x2E8 DUP5 PUSH2 0x6F1 JUMP JUMPDEST DUP4 PUSH1 0x42 DUP2 SWAP1 SSTORE POP POP POP POP SWAP2 SWAP1 POP JUMP JUMPDEST PUSH1 0x0 DUP1 PUSH1 0x0 PUSH1 0x2 DUP7 PUSH5 0xFFFFFFFFFF AND SUB PUSH2 0x4A9 JUMPI PUSH2 0x32E PUSH1 0x44 PUSH1 0x0 DUP8 PUSH1 0xFF AND PUSH1 0xFF AND DUP2 MSTORE PUSH1 0x20 ADD SWAP1 DUP2 MSTORE PUSH1 0x20 ADD PUSH1 0x0 KECCAK256 SLOAD DUP6 PUSH2 0x78C JUMP JUMPDEST DUP1 SWAP3 POP DUP2 SWAP4 POP POP POP PUSH20 0x0 PUSH4 0x561558FE PUSH1 0x40 MLOAD DUP1 PUSH1 0x40 ADD PUSH1 0x40 MSTORE DUP1 DUP6 PUSH1 0x0 SHR DUP2 MSTORE PUSH1 0x20 ADD DUP5 PUSH1 0x0 SHR DUP2 MSTORE POP PUSH1 0x40 MLOAD DUP3 PUSH4 0xFFFFFFFF AND PUSH1 0xE0 SHL DUP2 MSTORE PUSH1 0x4 ADD PUSH2 0x387 SWAP2 SWAP1 PUSH2 0xBBF JUMP JUMPDEST PUSH1 0x20 PUSH1 0x40 MLOAD DUP1 DUP4 SUB DUP2 DUP7 GAS DELEGATECALL ISZERO DUP1 ISZERO PUSH2 0x3A4 JUMPI RETURNDATASIZE PUSH1 0x0 DUP1 RETURNDATACOPY RETURNDATASIZE PUSH1 0x0 REVERT JUMPDEST POP POP POP POP PUSH1 0x40 MLOAD RETURNDATASIZE PUSH1 0x1F NOT PUSH1 0x1F DUP3 ADD AND DUP3 ADD DUP1 PUSH1 0x40 MSTORE POP DUP2 ADD SWAP1 PUSH2 0x3C8 SWAP2 SWAP1 PUSH2 0xC06 JUMP JUMPDEST PUSH1 0x0 SHL SWAP3 POP DUP3 PUSH1 0x44 PUSH1 0x0 PUSH1 0x1 DUP9 PUSH2 0x3DF SWAP2 SWAP1 PUSH2 0xC33 JUMP JUMPDEST PUSH1 0xFF AND PUSH1 0xFF AND DUP2 MSTORE PUSH1 0x20 ADD SWAP1 DUP2 MSTORE PUSH1 0x20 ADD PUSH1 0x0 KECCAK256 DUP2 SWAP1 SSTORE POP PUSH1 0x0 PUSH1 0x43 PUSH1 0x0 PUSH1 0x1 DUP9 PUSH2 0x40A SWAP2 SWAP1 PUSH2 0xC33 JUMP JUMPDEST PUSH1 0xFF AND PUSH1 0xFF AND DUP2 MSTORE PUSH1 0x20 ADD SWAP1 DUP2 MSTORE PUSH1 0x20 ADD PUSH1 0x0 KECCAK256 PUSH1 0x0 SWAP1 SLOAD SWAP1 PUSH2 0x100 EXP SWAP1 DIV PUSH5 0xFFFFFFFFFF AND PUSH5 0xFFFFFFFFFF AND SUB PUSH2 0x4A4 JUMPI PUSH1 0x43 PUSH1 0x0 PUSH1 0x1 DUP8 PUSH2 0x44D SWAP2 SWAP1 PUSH2 0xC33 JUMP JUMPDEST PUSH1 0xFF AND PUSH1 0xFF AND DUP2 MSTORE PUSH1 0x20 ADD SWAP1 DUP2 MSTORE PUSH1 0x20 ADD PUSH1 0x0 KECCAK256 PUSH1 0x0 DUP2 DUP2 SWAP1 SLOAD SWAP1 PUSH2 0x100 EXP SWAP1 DIV PUSH5 0xFFFFFFFFFF AND DUP1 SWAP3 SWAP2 SWAP1 PUSH2 0x482 SWAP1 PUSH2 0x9CA JUMP JUMPDEST SWAP2 SWAP1 PUSH2 0x100 EXP DUP2 SLOAD DUP2 PUSH5 0xFFFFFFFFFF MUL NOT AND SWAP1 DUP4 PUSH5 0xFFFFFFFFFF AND MUL OR SWAP1 SSTORE POP POP JUMPDEST PUSH2 0x590 JUMP JUMPDEST PUSH1 0x1 PUSH1 0x2 DUP8 PUSH2 0x4B8 SWAP2 SWAP1 PUSH2 0xC68 JUMP JUMPDEST PUSH5 0xFFFFFFFFFF AND SUB PUSH2 0x4CC JUMPI DUP4 SWAP3 POP PUSH2 0x58F JUMP JUMPDEST PUSH2 0x4EF PUSH1 0x44 PUSH1 0x0 DUP8 PUSH1 0xFF AND PUSH1 0xFF AND DUP2 MSTORE PUSH1 0x20 ADD SWAP1 DUP2 MSTORE PUSH1 0x20 ADD PUSH1 0x0 KECCAK256 SLOAD DUP6 PUSH2 0x78C JUMP JUMPDEST DUP1 SWAP3 POP DUP2 SWAP4 POP POP POP PUSH20 0x0 PUSH4 0x561558FE PUSH1 0x40 MLOAD DUP1 PUSH1 0x40 ADD PUSH1 0x40 MSTORE DUP1 DUP6 PUSH1 0x0 SHR DUP2 MSTORE PUSH1 0x20 ADD DUP5 PUSH1 0x0 SHR DUP2 MSTORE POP PUSH1 0x40 MLOAD DUP3 PUSH4 0xFFFFFFFF AND PUSH1 0xE0 SHL DUP2 MSTORE PUSH1 0x4 ADD PUSH2 0x548 SWAP2 SWAP1 PUSH2 0xBBF JUMP JUMPDEST PUSH1 0x20 PUSH1 0x40 MLOAD DUP1 DUP4 SUB DUP2 DUP7 GAS DELEGATECALL ISZERO DUP1 ISZERO PUSH2 0x565 JUMPI RETURNDATASIZE PUSH1 0x0 DUP1 RETURNDATACOPY RETURNDATASIZE PUSH1 0x0 REVERT JUMPDEST POP POP POP POP PUSH1 0x40 MLOAD RETURNDATASIZE PUSH1 0x1F NOT PUSH1 0x1F DUP3 ADD AND DUP3 ADD DUP1 PUSH1 0x40 MSTORE POP DUP2 ADD SWAP1 PUSH2 0x589 SWAP2 SWAP1 PUSH2 0xC06 JUMP JUMPDEST PUSH1 0x0 SHL SWAP3 POP JUMPDEST JUMPDEST PUSH1 0x0 DUP6 PUSH1 0xFF AND SUB PUSH2 0x5BE JUMPI DUP4 PUSH1 0x44 PUSH1 0x0 DUP8 PUSH1 0xFF AND PUSH1 0xFF AND DUP2 MSTORE PUSH1 0x20 ADD SWAP1 DUP2 MSTORE PUSH1 0x20 ADD PUSH1 0x0 KECCAK256 DUP2 SWAP1 SSTORE POP PUSH2 0x6E8 JUMP JUMPDEST PUSH1 0x0 PUSH1 0x43 PUSH1 0x0 DUP8 PUSH1 0xFF AND PUSH1 0xFF AND DUP2 MSTORE PUSH1 0x20 ADD SWAP1 DUP2 MSTORE PUSH1 0x20 ADD PUSH1 0x0 KECCAK256 PUSH1 0x0 SWAP1 SLOAD SWAP1 PUSH2 0x100 EXP SWAP1 DIV PUSH5 0xFFFFFFFFFF AND SWAP1 POP PUSH1 0x0 PUSH1 0x43 PUSH1 0x0 PUSH1 0x1 DUP10 PUSH2 0x600 SWAP2 SWAP1 PUSH2 0xC99 JUMP JUMPDEST PUSH1 0xFF AND PUSH1 0xFF AND DUP2 MSTORE PUSH1 0x20 ADD SWAP1 DUP2 MSTORE PUSH1 0x20 ADD PUSH1 0x0 KECCAK256 PUSH1 0x0 SWAP1 SLOAD SWAP1 PUSH2 0x100 EXP SWAP1 DIV PUSH5 0xFFFFFFFFFF AND SWAP1 POP DUP1 PUSH5 0xFFFFFFFFFF AND PUSH1 0x2 PUSH1 0x1 DUP5 PUSH2 0x63F SWAP2 SWAP1 PUSH2 0x991 JUMP JUMPDEST PUSH2 0x649 SWAP2 SWAP1 PUSH2 0xCCE JUMP JUMPDEST PUSH5 0xFFFFFFFFFF AND SUB PUSH2 0x6E5 JUMPI PUSH1 0x43 PUSH1 0x0 DUP9 PUSH1 0xFF AND PUSH1 0xFF AND DUP2 MSTORE PUSH1 0x20 ADD SWAP1 DUP2 MSTORE PUSH1 0x20 ADD PUSH1 0x0 KECCAK256 PUSH1 0x0 DUP2 DUP2 SWAP1 SLOAD SWAP1 PUSH2 0x100 EXP SWAP1 DIV PUSH5 0xFFFFFFFFFF AND DUP1 SWAP3 SWAP2 SWAP1 PUSH2 0x68F SWAP1 PUSH2 0x9CA JUMP JUMPDEST SWAP2 SWAP1 PUSH2 0x100 EXP DUP2 SLOAD DUP2 PUSH5 0xFFFFFFFFFF MUL NOT AND SWAP1 DUP4 PUSH5 0xFFFFFFFFFF AND MUL OR SWAP1 SSTORE POP POP PUSH1 0x2 DUP9 PUSH5 0xFFFFFFFFFF AND EQ PUSH2 0x6C5 JUMPI DUP5 PUSH2 0x6C7 JUMP JUMPDEST DUP6 JUMPDEST PUSH1 0x44 PUSH1 0x0 DUP10 PUSH1 0xFF AND PUSH1 0xFF AND DUP2 MSTORE PUSH1 0x20 ADD SWAP1 DUP2 MSTORE PUSH1 0x20 ADD PUSH1 0x0 KECCAK256 DUP2 SWAP1 SSTORE POP JUMPDEST POP POP JUMPDEST POP POP SWAP4 SWAP3 POP POP POP JUMP JUMPDEST PUSH1 0x40 PUSH1 0xFF AND PUSH1 0x0 DUP1 SLOAD SWAP1 PUSH2 0x100 EXP SWAP1 DIV PUSH1 0xFF AND PUSH1 0xFF AND SUB PUSH2 0x728 JUMPI PUSH1 0x0 DUP1 PUSH1 0x0 PUSH2 0x100 EXP DUP2 SLOAD DUP2 PUSH1 0xFF MUL NOT AND SWAP1 DUP4 PUSH1 0xFF AND MUL OR SWAP1 SSTORE POP JUMPDEST DUP1 PUSH1 0x1 PUSH1 0x0 DUP1 SLOAD SWAP1 PUSH2 0x100 EXP SWAP1 DIV PUSH1 0xFF AND PUSH1 0xFF AND PUSH1 0x40 DUP2 LT PUSH2 0x74D JUMPI PUSH2 0x74C PUSH2 0xD0B JUMP JUMPDEST JUMPDEST ADD DUP2 SWAP1 SSTORE POP PUSH1 0x0 DUP1 DUP2 DUP2 SWAP1 SLOAD SWAP1 PUSH2 0x100 EXP SWAP1 DIV PUSH1 0xFF AND DUP1 SWAP3 SWAP2 SWAP1 PUSH2 0x770 SWAP1 PUSH2 0xAE1 JUMP JUMPDEST SWAP2 SWAP1 PUSH2 0x100 EXP DUP2 SLOAD DUP2 PUSH1 0xFF MUL NOT AND SWAP1 DUP4 PUSH1 0xFF AND MUL OR SWAP1 SSTORE POP POP POP JUMP JUMPDEST PUSH1 0x0 DUP1 DUP3 DUP5 LT PUSH2 0x79D JUMPI DUP3 DUP5 PUSH2 0x7A0 JUMP JUMPDEST DUP4 DUP4 JUMPDEST SWAP2 POP SWAP2 POP SWAP3 POP SWAP3 SWAP1 POP JUMP JUMPDEST PUSH1 0x40 MLOAD DUP1 PUSH2 0x800 ADD PUSH1 0x40 MSTORE DUP1 PUSH1 0x40 SWAP1 PUSH1 0x20 DUP3 MUL DUP1 CALLDATASIZE DUP4 CALLDATACOPY DUP1 DUP3 ADD SWAP2 POP POP SWAP1 POP POP SWAP1 JUMP JUMPDEST PUSH1 0x0 PUSH5 0xFFFFFFFFFF DUP3 AND SWAP1 POP SWAP2 SWAP1 POP JUMP JUMPDEST PUSH2 0x7E8 DUP2 PUSH2 0x7CE JUMP JUMPDEST DUP3 MSTORE POP POP JUMP JUMPDEST PUSH1 0x0 PUSH1 0x20 DUP3 ADD SWAP1 POP PUSH2 0x803 PUSH1 0x0 DUP4 ADD DUP5 PUSH2 0x7DF JUMP JUMPDEST SWAP3 SWAP2 POP POP JUMP JUMPDEST PUSH1 0x0 DUP1 REVERT JUMPDEST PUSH1 0x0 DUP2 SWAP1 POP SWAP2 SWAP1 POP JUMP JUMPDEST PUSH2 0x821 DUP2 PUSH2 0x80E JUMP JUMPDEST DUP2 EQ PUSH2 0x82C JUMPI PUSH1 0x0 DUP1 REVERT JUMPDEST POP JUMP JUMPDEST PUSH1 0x0 DUP2 CALLDATALOAD SWAP1 POP PUSH2 0x83E DUP2 PUSH2 0x818 JUMP JUMPDEST SWAP3 SWAP2 POP POP JUMP JUMPDEST PUSH1 0x0 PUSH1 0x20 DUP3 DUP5 SUB SLT ISZERO PUSH2 0x85A JUMPI PUSH2 0x859 PUSH2 0x809 JUMP JUMPDEST JUMPDEST PUSH1 0x0 PUSH2 0x868 DUP5 DUP3 DUP6 ADD PUSH2 0x82F JUMP JUMPDEST SWAP2 POP POP SWAP3 SWAP2 POP POP JUMP JUMPDEST PUSH2 0x87A DUP2 PUSH2 0x80E JUMP JUMPDEST DUP3 MSTORE POP POP JUMP JUMPDEST PUSH1 0x0 PUSH1 0x20 DUP3 ADD SWAP1 POP PUSH2 0x895 PUSH1 0x0 DUP4 ADD DUP5 PUSH2 0x871 JUMP JUMPDEST SWAP3 SWAP2 POP POP JUMP JUMPDEST PUSH1 0x0 PUSH1 0x40 SWAP1 POP SWAP2 SWAP1 POP JUMP JUMPDEST PUSH1 0x0 DUP2 SWAP1 POP SWAP3 SWAP2 POP POP JUMP JUMPDEST PUSH1 0x0 DUP2 SWAP1 POP SWAP2 SWAP1 POP JUMP JUMPDEST PUSH2 0x8C4 DUP2 PUSH2 0x80E JUMP JUMPDEST DUP3 MSTORE POP POP JUMP JUMPDEST PUSH1 0x0 PUSH2 0x8D6 DUP4 DUP4 PUSH2 0x8BB JUMP JUMPDEST PUSH1 0x20 DUP4 ADD SWAP1 POP SWAP3 SWAP2 POP POP JUMP JUMPDEST PUSH1 0x0 PUSH1 0x20 DUP3 ADD SWAP1 POP SWAP2 SWAP1 POP JUMP JUMPDEST PUSH2 0x8F8 DUP2 PUSH2 0x89B JUMP JUMPDEST PUSH2 0x902 DUP2 DUP5 PUSH2 0x8A6 JUMP JUMPDEST SWAP3 POP PUSH2 0x90D DUP3 PUSH2 0x8B1 JUMP JUMPDEST DUP1 PUSH1 0x0 JUMPDEST DUP4 DUP2 LT ISZERO PUSH2 0x93E JUMPI DUP2 MLOAD PUSH2 0x925 DUP8 DUP3 PUSH2 0x8CA JUMP JUMPDEST SWAP7 POP PUSH2 0x930 DUP4 PUSH2 0x8E2 JUMP JUMPDEST SWAP3 POP POP PUSH1 0x1 DUP2 ADD SWAP1 POP PUSH2 0x911 JUMP JUMPDEST POP POP POP POP POP POP JUMP JUMPDEST PUSH1 0x0 PUSH2 0x800 DUP3 ADD SWAP1 POP PUSH2 0x95C PUSH1 0x0 DUP4 ADD DUP5 PUSH2 0x8EF JUMP JUMPDEST SWAP3 SWAP2 POP POP JUMP JUMPDEST PUSH32 0x4E487B7100000000000000000000000000000000000000000000000000000000 PUSH1 0x0 MSTORE PUSH1 0x11 PUSH1 0x4 MSTORE PUSH1 0x24 PUSH1 0x0 REVERT JUMPDEST PUSH1 0x0 PUSH2 0x99C DUP3 PUSH2 0x7CE JUMP JUMPDEST SWAP2 POP PUSH2 0x9A7 DUP4 PUSH2 0x7CE JUMP JUMPDEST SWAP3 POP DUP3 DUP3 ADD SWAP1 POP PUSH5 0xFFFFFFFFFF DUP2 GT ISZERO PUSH2 0x9C4 JUMPI PUSH2 0x9C3 PUSH2 0x962 JUMP JUMPDEST JUMPDEST SWAP3 SWAP2 POP POP JUMP JUMPDEST PUSH1 0x0 PUSH2 0x9D5 DUP3 PUSH2 0x7CE JUMP JUMPDEST SWAP2 POP PUSH5 0xFFFFFFFFFF DUP3 SUB PUSH2 0x9EC JUMPI PUSH2 0x9EB PUSH2 0x962 JUMP JUMPDEST JUMPDEST PUSH1 0x1 DUP3 ADD SWAP1 POP SWAP2 SWAP1 POP JUMP JUMPDEST PUSH1 0x0 DUP3 DUP3 MSTORE PUSH1 0x20 DUP3 ADD SWAP1 POP SWAP3 SWAP2 POP POP JUMP JUMPDEST PUSH32 0x547265652046756C6C2100000000000000000000000000000000000000000000 PUSH1 0x0 DUP3 ADD MSTORE POP JUMP JUMPDEST PUSH1 0x0 PUSH2 0xA3E PUSH1 0xA DUP4 PUSH2 0x9F7 JUMP JUMPDEST SWAP2 POP PUSH2 0xA49 DUP3 PUSH2 0xA08 JUMP JUMPDEST PUSH1 0x20 DUP3 ADD SWAP1 POP SWAP2 SWAP1 POP JUMP JUMPDEST PUSH1 0x0 PUSH1 0x20 DUP3 ADD SWAP1 POP DUP2 DUP2 SUB PUSH1 0x0 DUP4 ADD MSTORE PUSH2 0xA6D DUP2 PUSH2 0xA31 JUMP JUMPDEST SWAP1 POP SWAP2 SWAP1 POP JUMP JUMPDEST PUSH32 0x4E487B7100000000000000000000000000000000000000000000000000000000 PUSH1 0x0 MSTORE PUSH1 0x12 PUSH1 0x4 MSTORE PUSH1 0x24 PUSH1 0x0 REVERT JUMPDEST PUSH1 0x0 PUSH2 0xAAE DUP3 PUSH2 0x7CE JUMP JUMPDEST SWAP2 POP PUSH2 0xAB9 DUP4 PUSH2 0x7CE JUMP JUMPDEST SWAP3 POP DUP3 PUSH2 0xAC9 JUMPI PUSH2 0xAC8 PUSH2 0xA74 JUMP JUMPDEST JUMPDEST DUP3 DUP3 DIV SWAP1 POP SWAP3 SWAP2 POP POP JUMP JUMPDEST PUSH1 0x0 PUSH1 0xFF DUP3 AND SWAP1 POP SWAP2 SWAP1 POP JUMP JUMPDEST PUSH1 0x0 PUSH2 0xAEC DUP3 PUSH2 0xAD4 JUMP JUMPDEST SWAP2 POP PUSH1 0xFF DUP3 SUB PUSH2 0xAFF JUMPI PUSH2 0xAFE PUSH2 0x962 JUMP JUMPDEST JUMPDEST PUSH1 0x1 DUP3 ADD SWAP1 POP SWAP2 SWAP1 POP JUMP JUMPDEST PUSH1 0x0 PUSH1 0x2 SWAP1 POP SWAP2 SWAP1 POP JUMP JUMPDEST PUSH1 0x0 DUP2 SWAP1 POP SWAP3 SWAP2 POP POP JUMP JUMPDEST PUSH1 0x0 DUP2 SWAP1 POP SWAP2 SWAP1 POP JUMP JUMPDEST PUSH1 0x0 DUP2 SWAP1 POP SWAP2 SWAP1 POP JUMP JUMPDEST PUSH2 0xB3D DUP2 PUSH2 0xB2A JUMP JUMPDEST DUP3 MSTORE POP POP JUMP JUMPDEST PUSH1 0x0 PUSH2 0xB4F DUP4 DUP4 PUSH2 0xB34 JUMP JUMPDEST PUSH1 0x20 DUP4 ADD SWAP1 POP SWAP3 SWAP2 POP POP JUMP JUMPDEST PUSH1 0x0 PUSH1 0x20 DUP3 ADD SWAP1 POP SWAP2 SWAP1 POP JUMP JUMPDEST PUSH2 0xB71 DUP2 PUSH2 0xB0A JUMP JUMPDEST PUSH2 0xB7B DUP2 DUP5 PUSH2 0xB15 JUMP JUMPDEST SWAP3 POP PUSH2 0xB86 DUP3 PUSH2 0xB20 JUMP JUMPDEST DUP1 PUSH1 0x0 JUMPDEST DUP4 DUP2 LT ISZERO PUSH2 0xBB7 JUMPI DUP2 MLOAD PUSH2 0xB9E DUP8 DUP3 PUSH2 0xB43 JUMP JUMPDEST SWAP7 POP PUSH2 0xBA9 DUP4 PUSH2 0xB5B JUMP JUMPDEST SWAP3 POP POP PUSH1 0x1 DUP2 ADD SWAP1 POP PUSH2 0xB8A JUMP JUMPDEST POP POP POP POP POP POP JUMP JUMPDEST PUSH1 0x0 PUSH1 0x40 DUP3 ADD SWAP1 POP PUSH2 0xBD4 PUSH1 0x0 DUP4 ADD DUP5 PUSH2 0xB68 JUMP JUMPDEST SWAP3 SWAP2 POP POP JUMP JUMPDEST PUSH2 0xBE3 DUP2 PUSH2 0xB2A JUMP JUMPDEST DUP2 EQ PUSH2 0xBEE JUMPI PUSH1 0x0 DUP1 REVERT JUMPDEST POP JUMP JUMPDEST PUSH1 0x0 DUP2 MLOAD SWAP1 POP PUSH2 0xC00 DUP2 PUSH2 0xBDA JUMP JUMPDEST SWAP3 SWAP2 POP POP JUMP JUMPDEST PUSH1 0x0 PUSH1 0x20 DUP3 DUP5 SUB SLT ISZERO PUSH2 0xC1C JUMPI PUSH2 0xC1B PUSH2 0x809 JUMP JUMPDEST JUMPDEST PUSH1 0x0 PUSH2 0xC2A DUP5 DUP3 DUP6 ADD PUSH2 0xBF1 JUMP JUMPDEST SWAP2 POP POP SWAP3 SWAP2 POP POP JUMP JUMPDEST PUSH1 0x0 PUSH2 0xC3E DUP3 PUSH2 0xAD4 JUMP JUMPDEST SWAP2 POP PUSH2 0xC49 DUP4 PUSH2 0xAD4 JUMP JUMPDEST SWAP3 POP DUP3 DUP3 ADD SWAP1 POP PUSH1 0xFF DUP2 GT ISZERO PUSH2 0xC62 JUMPI PUSH2 0xC61 PUSH2 0x962 JUMP JUMPDEST JUMPDEST SWAP3 SWAP2 POP POP JUMP JUMPDEST PUSH1 0x0 PUSH2 0xC73 DUP3 PUSH2 0x7CE JUMP JUMPDEST SWAP2 POP PUSH2 0xC7E DUP4 PUSH2 0x7CE JUMP JUMPDEST SWAP3 POP DUP3 PUSH2 0xC8E JUMPI PUSH2 0xC8D PUSH2 0xA74 JUMP JUMPDEST JUMPDEST DUP3 DUP3 MOD SWAP1 POP SWAP3 SWAP2 POP POP JUMP JUMPDEST PUSH1 0x0 PUSH2 0xCA4 DUP3 PUSH2 0xAD4 JUMP JUMPDEST SWAP2 POP PUSH2 0xCAF DUP4 PUSH2 0xAD4 JUMP JUMPDEST SWAP3 POP DUP3 DUP3 SUB SWAP1 POP PUSH1 0xFF DUP2 GT ISZERO PUSH2 0xCC8 JUMPI PUSH2 0xCC7 PUSH2 0x962 JUMP JUMPDEST JUMPDEST SWAP3 SWAP2 POP POP JUMP JUMPDEST PUSH1 0x0 PUSH2 0xCD9 DUP3 PUSH2 0x7CE JUMP JUMPDEST SWAP2 POP PUSH2 0xCE4 DUP4 PUSH2 0x7CE JUMP JUMPDEST SWAP3 POP DUP3 DUP3 MUL PUSH2 0xCF2 DUP2 PUSH2 0x7CE JUMP JUMPDEST SWAP2 POP DUP1 DUP3 EQ PUSH2 0xD04 JUMPI PUSH2 0xD03 PUSH2 0x962 JUMP JUMPDEST JUMPDEST POP SWAP3 SWAP2 POP POP JUMP JUMPDEST PUSH32 0x4E487B7100000000000000000000000000000000000000000000000000000000 PUSH1 0x0 MSTORE PUSH1 0x32 PUSH1 0x4 MSTORE PUSH1 0x24 PUSH1 0x0 REVERT INVALID LOG2 PUSH5 0x6970667358 0x22 SLT KECCAK256 DUP7 SWAP6 PUSH9 0x9359C53DED90DA52A3 EXTCODEHASH SWAP9 0x22 0xB5 0xE6 PUSH18 0xFC222FD29B1506C28CF7F579BE7964736F6C PUSH4 0x4300081C STOP CALLER "},"methodIdentifiers":{"addLeaf(bytes32)":"ea949346","getLast64Roots()":"fdd4f025","length()":"1f7b6d32","root()":"ebf0c717"}}}}}