{"src/lib/PoseidonHash.sol":{"PoseidonT2":{"abi":[{"inputs":[{"internalType":"uint256[1]","name":"","type":"uint256[1]"}],"name":"hash","outputs":[{"internalType":"uint256","name":"","type":"uint256"}],"stateMutability":"pure","type":"function"}],"evm":{"bytecode":{"linkReferences":{},"object":"613ce2610052600b82828239805160001a6073146045577f4e487b7100000000000000000000000000000000000000000000000000000000600052600060045260246000fd5b30600052607381538281f3fe73000000000000000000000000000000000000000030146080604052600436106100355760003560e01c80639d036e711461003a575b600080fd5b610054600480360381019061004f9190613c55565b61006a565b6040516100619190613c91565b60405180910390f35b60007f30644e72e131a029b85045b68181585d2833e84879b9709143e1f593f00000017f0c0356530896eec42a97ed937f3135cfc5142b3ae405b8343c1d83ffa604cb8181608051060181818209828284838409099150827f2b9d4b4110c9ae997782e1509b1d0fdb20a7c02bbd8bea7305462b9f8125b1e883097f04b87ca7dc8593e8efd436c4e47f32a16e36f24c756ebb53ff0ab98c1608e8f5017f1e28a1d935698ad1142e51182bb54cf4a00ea5aabd6268bd317ea977cc154a30019050827f1274e649a32ed355a31a6ed69724e1adade857e86eb5c3a121bcd147943203c883097f20a7d25895731bd7cf65a14cce92a52ae70d529cd9531696f88536d5859bf85a017f27af2d831a9d2748080965db30e298e40e5757c3e008db964cf9e2b12b91251f0183828309848386838409099250848283099050848286838409099150847f2b9d4b4110c9ae997782e1509b1d0fdb20a7c02bbd8bea7305462b9f8125b1e88309857f066f6f85d6f68a85ec10345351a23a3aaf07f38af8c952a7bceca70bd2af7ad58509017f1e6f11ce60fc8f513a6a3cfe16ae175a41291462f214cd0879aaf43545b74e03019050847f1274e649a32ed355a31a6ed69724e1adade857e86eb5c3a121bcd147943203c88309857f0cc57cdbb08507d62bf67a4493cc262fb6c09d557013fff1f573f431221f8ff98509017f2a67384d3bbd5e438541819cb681f0be04462ed14c3613d8f719206268d142d3019350848182099250848186858609099050848485099250848486858609099350847f2b9d4b4110c9ae997782e1509b1d0fdb20a7c02bbd8bea7305462b9f8125b1e88509857f066f6f85d6f68a85ec10345351a23a3aaf07f38af8c952a7bceca70bd2af7ad58309017f0b66fdf356093a611609f8e12fbfecf0b985e381f025188936408f5d5c9f45d0019250847f1274e649a32ed355a31a6ed69724e1adade857e86eb5c3a121bcd147943203c88509857f0cc57cdbb08507d62bf67a4493cc262fb6c09d557013fff1f573f431221f8ff98309017f012ee3ec1e78d470830c61093c2ade370b26c83cc5cebeeddaa6852dbdb09e21019150848384099050848386838409099250848283099050848286838409099150847f2b9d4b4110c9ae997782e1509b1d0fdb20a7c02bbd8bea7305462b9f8125b1e88309857f066f6f85d6f68a85ec10345351a23a3aaf07f38af8c952a7bceca70bd2af7ad58509017f0252ba5f6760bfbdfd88f67f8175e3fd6cd1c431b099b6bb2d108e7b445bb1b9019050847f1274e649a32ed355a31a6ed69724e1adade857e86eb5c3a121bcd147943203c88309857f0cc57cdbb08507d62bf67a4493cc262fb6c09d557013fff1f573f431221f8ff98509017f179474cceca5ff676c6bec3cef54296354391a8935ff71d6ef5aeaad7ca932f1019350848182099250848186858609099050847f2b9d4b4110c9ae997782e1509b1d0fdb20a7c02bbd8bea7305462b9f8125b1e88509857f066f6f85d6f68a85ec10345351a23a3aaf07f38af8c952a7bceca70bd2af7ad58309017f2c24261379a51bfa9228ff4a503fd4ed9c1f974a264969b37e1a2589bbed2b91019250847f1274e649a32ed355a31a6ed69724e1adade857e86eb5c3a121bcd147943203c88509857f0cc57cdbb08507d62bf67a4493cc262fb6c09d557013fff1f573f431221f8ff98309017f1cc1d7b62692e63eac2f288bd0695b43c2f63f5001fc0fc553e66c0551801b05019150848384099050848386838409099250847f2b9d4b4110c9ae997782e1509b1d0fdb20a7c02bbd8bea7305462b9f8125b1e88309857f066f6f85d6f68a85ec10345351a23a3aaf07f38af8c952a7bceca70bd2af7ad58509017f255059301aada98bb2ed55f852979e9600784dbf17fbacd05d9eff5fd9c91b56019050847f1274e649a32ed355a31a6ed69724e1adade857e86eb5c3a121bcd147943203c88309857f0cc57cdbb08507d62bf67a4493cc262fb6c09d557013fff1f573f431221f8ff98509017f28437be3ac1cb2e479e1f5c0eccd32b3aea24234970a8193b11c29ce7e59efd9019350848182099250848186858609099050847f2b9d4b4110c9ae997782e1509b1d0fdb20a7c02bbd8bea7305462b9f8125b1e88509857f066f6f85d6f68a85ec10345351a23a3aaf07f38af8c952a7bceca70bd2af7ad58309017f28216a442f2e1f711ca4fa6b53766eb118548da8fb4f78d4338762c37f5f2043019250847f1274e649a32ed355a31a6ed69724e1adade857e86eb5c3a121bcd147943203c88509857f0cc57cdbb08507d62bf67a4493cc262fb6c09d557013fff1f573f431221f8ff98309017f2c1f47cd17fa5adf1f39f4e7056dd03feee1efce03094581131f2377323482c9019150848384099050848386838409099250847f2b9d4b4110c9ae997782e1509b1d0fdb20a7c02bbd8bea7305462b9f8125b1e88309857f066f6f85d6f68a85ec10345351a23a3aaf07f38af8c952a7bceca70bd2af7ad58509017f07abad02b7a5ebc48632bcc9356ceb7dd9dafca276638a63646b8566a621afc9019050847f1274e649a32ed355a31a6ed69724e1adade857e86eb5c3a121bcd147943203c88309857f0cc57cdbb08507d62bf67a4493cc262fb6c09d557013fff1f573f431221f8ff98509017f0230264601ffdf29275b33ffaab51dfe9429f90880a69cd137da0c4d15f96c3c019350848182099250848186858609099050847f2b9d4b4110c9ae997782e1509b1d0fdb20a7c02bbd8bea7305462b9f8125b1e88509857f066f6f85d6f68a85ec10345351a23a3aaf07f38af8c952a7bceca70bd2af7ad58309017f1bc973054e51d905a0f168656497ca40a864414557ee289e717e5d66899aa0a9019250847f1274e649a32ed355a31a6ed69724e1adade857e86eb5c3a121bcd147943203c88509857f0cc57cdbb08507d62bf67a4493cc262fb6c09d557013fff1f573f431221f8ff98309017f2e1c22f964435008206c3157e86341edd249aff5c2d8421f2a6b22288f0a67fc019150848384099050848386838409099250847f2b9d4b4110c9ae997782e1509b1d0fdb20a7c02bbd8bea7305462b9f8125b1e88309857f066f6f85d6f68a85ec10345351a23a3aaf07f38af8c952a7bceca70bd2af7ad58509017f1224f38df67c5378121c1d5f461bbc509e8ea1598e46c9f7a70452bc2bba86b8019050847f1274e649a32ed355a31a6ed69724e1adade857e86eb5c3a121bcd147943203c88309857f0cc57cdbb08507d62bf67a4493cc262fb6c09d557013fff1f573f431221f8ff98509017f02e4e69d8ba59e519280b4bd9ed0068fd7bfe8cd9dfeda1969d2989186cde20e019350848182099250848186858609099050847f2b9d4b4110c9ae997782e1509b1d0fdb20a7c02bbd8bea7305462b9f8125b1e88509857f066f6f85d6f68a85ec10345351a23a3aaf07f38af8c952a7bceca70bd2af7ad58309017f1f1eccc34aaba0137f5df81fc04ff3ee4f19ee364e653f076d47e9735d98018e019250847f1274e649a32ed355a31a6ed69724e1adade857e86eb5c3a121bcd147943203c88509857f0cc57cdbb08507d62bf67a4493cc262fb6c09d557013fff1f573f431221f8ff98309017f1672ad3d709a353974266c3039a9a7311424448032cd1819eacb8a4d4284f582019150848384099050848386838409099250847f2b9d4b4110c9ae997782e1509b1d0fdb20a7c02bbd8bea7305462b9f8125b1e88309857f066f6f85d6f68a85ec10345351a23a3aaf07f38af8c952a7bceca70bd2af7ad58509017f283e3fdc2c6e420c56f44af5192b4ae9cda6961f284d24991d2ed602df8c8fc7019050847f1274e649a32ed355a31a6ed69724e1adade857e86eb5c3a121bcd147943203c88309857f0cc57cdbb08507d62bf67a4493cc262fb6c09d557013fff1f573f431221f8ff98509017f1c2a3d120c550ecfd0db0957170fa013683751f8fdff59d6614fbd69ff394bcc019350848182099250848186858609099050847f2b9d4b4110c9ae997782e1509b1d0fdb20a7c02bbd8bea7305462b9f8125b1e88509857f066f6f85d6f68a85ec10345351a23a3aaf07f38af8c952a7bceca70bd2af7ad58309017f216f84877aac6172f7897a7323456efe143a9a43773ea6f296cb6b8177653fbd019250847f1274e649a32ed355a31a6ed69724e1adade857e86eb5c3a121bcd147943203c88509857f0cc57cdbb08507d62bf67a4493cc262fb6c09d557013fff1f573f431221f8ff98309017f2c0d272becf2a75764ba7e8e3e28d12bceaa47ea61ca59a411a1f51552f94788019150848384099050848386838409099250847f2b9d4b4110c9ae997782e1509b1d0fdb20a7c02bbd8bea7305462b9f8125b1e88309857f066f6f85d6f68a85ec10345351a23a3aaf07f38af8c952a7bceca70bd2af7ad58509017f16e34299865c0e28484ee7a74c454e9f170a5480abe0508fcb4a6c3d89546f43019050847f1274e649a32ed355a31a6ed69724e1adade857e86eb5c3a121bcd147943203c88309857f0cc57cdbb08507d62bf67a4493cc262fb6c09d557013fff1f573f431221f8ff98509017f175ceba599e96f5b375a232a6fb9cc71772047765802290f48cd939755488fc5019350848182099250848186858609099050847f2b9d4b4110c9ae997782e1509b1d0fdb20a7c02bbd8bea7305462b9f8125b1e88509857f066f6f85d6f68a85ec10345351a23a3aaf07f38af8c952a7bceca70bd2af7ad58309017f0c7594440dc48c16fead9e1758b028066aa410bfbc354f54d8c5ffbb44a1ee32019250847f1274e649a32ed355a31a6ed69724e1adade857e86eb5c3a121bcd147943203c88509857f0cc57cdbb08507d62bf67a4493cc262fb6c09d557013fff1f573f431221f8ff98309017f1a3c29bc39f21bb5c466db7d7eb6fd8f760e20013ccf912c92479882d919fd8d019150848384099050848386838409099250847f2b9d4b4110c9ae997782e1509b1d0fdb20a7c02bbd8bea7305462b9f8125b1e88309857f066f6f85d6f68a85ec10345351a23a3aaf07f38af8c952a7bceca70bd2af7ad58509017f0ccfdd906f3426e5c0986ea049b253400855d349074f5a6695c8eeabcd22e68f019050847f1274e649a32ed355a31a6ed69724e1adade857e86eb5c3a121bcd147943203c88309857f0cc57cdbb08507d62bf67a4493cc262fb6c09d557013fff1f573f431221f8ff98509017f14f6bc81d9f186f62bdb475ce6c9411866a7a8a3fd065b3ce0e699b67dd9e796019350848182099250848186858609099050847f2b9d4b4110c9ae997782e1509b1d0fdb20a7c02bbd8bea7305462b9f8125b1e88509857f066f6f85d6f68a85ec10345351a23a3aaf07f38af8c952a7bceca70bd2af7ad58309017f0962b82789fb3d129702ca70b2f6c5aacc099810c9c495c888edeb7386b97052019250847f1274e649a32ed355a31a6ed69724e1adade857e86eb5c3a121bcd147943203c88509857f0cc57cdbb08507d62bf67a4493cc262fb6c09d557013fff1f573f431221f8ff98309017f1a880af7074d18b3bf20c79de25127bc13284ab01ef02575afef0c8f6a31a86d019150848384099050848386838409099250847f2b9d4b4110c9ae997782e1509b1d0fdb20a7c02bbd8bea7305462b9f8125b1e88309857f066f6f85d6f68a85ec10345351a23a3aaf07f38af8c952a7bceca70bd2af7ad58509017f10cba18419a6a332cd5e77f0211c154b20af2924fc20ff3f4c3012bb7ae9311b019050847f1274e649a32ed355a31a6ed69724e1adade857e86eb5c3a121bcd147943203c88309857f0cc57cdbb08507d62bf67a4493cc262fb6c09d557013fff1f573f431221f8ff98509017f057e62a9a8f89b3ebdc76ba63a9eaca8fa27b7319cae3406756a2849f302f10d019350848182099250848186858609099050847f2b9d4b4110c9ae997782e1509b1d0fdb20a7c02bbd8bea7305462b9f8125b1e88509857f066f6f85d6f68a85ec10345351a23a3aaf07f38af8c952a7bceca70bd2af7ad58309017f287c971de91dc0abd44adf5384b4988cb961303bbf65cff5afa0413b44280cee019250847f1274e649a32ed355a31a6ed69724e1adade857e86eb5c3a121bcd147943203c88509857f0cc57cdbb08507d62bf67a4493cc262fb6c09d557013fff1f573f431221f8ff98309017f21df3388af1687bbb3bca9da0cca908f1e562bc46d4aba4e6f7f7960e306891d019150848384099050848386838409099250847f2b9d4b4110c9ae997782e1509b1d0fdb20a7c02bbd8bea7305462b9f8125b1e88309857f066f6f85d6f68a85ec10345351a23a3aaf07f38af8c952a7bceca70bd2af7ad58509017f1be5c887d25bce703e25cc974d0934cd789df8f70b498fd83eff8b560e1682b3019050847f1274e649a32ed355a31a6ed69724e1adade857e86eb5c3a121bcd147943203c88309857f0cc57cdbb08507d62bf67a4493cc262fb6c09d557013fff1f573f431221f8ff98509017f268da36f76e568fb68117175cea2cd0dd2cb5d42fda5acea48d59c2706a0d5c1019350848182099250848186858609099050847f2b9d4b4110c9ae997782e1509b1d0fdb20a7c02bbd8bea7305462b9f8125b1e88509857f066f6f85d6f68a85ec10345351a23a3aaf07f38af8c952a7bceca70bd2af7ad58309017f0e17ab091f6eae50c609beaf5510ececc5d8bb74135ebd05bd06460cc26a5ed6019250847f1274e649a32ed355a31a6ed69724e1adade857e86eb5c3a121bcd147943203c88509857f0cc57cdbb08507d62bf67a4493cc262fb6c09d557013fff1f573f431221f8ff98309017f04d727e728ffa0a67aee535ab074a43091ef62d8cf83d270040f5caa1f62af40019150848384099050848386838409099250847f2b9d4b4110c9ae997782e1509b1d0fdb20a7c02bbd8bea7305462b9f8125b1e88309857f066f6f85d6f68a85ec10345351a23a3aaf07f38af8c952a7bceca70bd2af7ad58509017f0ddbd7bf9c29341581b549762bc022ed33702ac10f1bfd862b15417d7e39ca6e019050847f1274e649a32ed355a31a6ed69724e1adade857e86eb5c3a121bcd147943203c88309857f0cc57cdbb08507d62bf67a4493cc262fb6c09d557013fff1f573f431221f8ff98509017f2790eb3351621752768162e82989c6c234f5b0d1d3af9b588a29c49c8789654b019350848182099250848186858609099050847f2b9d4b4110c9ae997782e1509b1d0fdb20a7c02bbd8bea7305462b9f8125b1e88509857f066f6f85d6f68a85ec10345351a23a3aaf07f38af8c952a7bceca70bd2af7ad58309017f1e457c601a63b73e4471950193d8a570395f3d9ab8b2fd0984b764206142f9e9019250847f1274e649a32ed355a31a6ed69724e1adade857e86eb5c3a121bcd147943203c88509857f0cc57cdbb08507d62bf67a4493cc262fb6c09d557013fff1f573f431221f8ff98309017f21ae64301dca9625638d6ab2bbe7135ffa90ecd0c43ff91fc4c686fc46e091b0019150848384099050848386838409099250847f2b9d4b4110c9ae997782e1509b1d0fdb20a7c02bbd8bea7305462b9f8125b1e88309857f066f6f85d6f68a85ec10345351a23a3aaf07f38af8c952a7bceca70bd2af7ad58509017f0379f63c8ce3468d4da293166f494928854be9e3432e09555858534eed8d350b019050847f1274e649a32ed355a31a6ed69724e1adade857e86eb5c3a121bcd147943203c88309857f0cc57cdbb08507d62bf67a4493cc262fb6c09d557013fff1f573f431221f8ff98509017e2d56420359d0266a744a080809e054ca0e4921a46686ac8c9f58a324c35049019350848182099250848186858609099050847f2b9d4b4110c9ae997782e1509b1d0fdb20a7c02bbd8bea7305462b9f8125b1e88509857f066f6f85d6f68a85ec10345351a23a3aaf07f38af8c952a7bceca70bd2af7ad58309017f123158e5965b5d9b1d68b3cd32e10bbeda8d62459e21f4090fc2c5af963515a6019250847f1274e649a32ed355a31a6ed69724e1adade857e86eb5c3a121bcd147943203c88509857f0cc57cdbb08507d62bf67a4493cc262fb6c09d557013fff1f573f431221f8ff98309017f0be29fc40847a941661d14bbf6cbe0420fbb2b6f52836d4e60c80eb49cad9ec1019150848384099050848386838409099250847f2b9d4b4110c9ae997782e1509b1d0fdb20a7c02bbd8bea7305462b9f8125b1e88309857f066f6f85d6f68a85ec10345351a23a3aaf07f38af8c952a7bceca70bd2af7ad58509017f1ac96991dec2bb0557716142015a453c36db9d859cad5f9a233802f24fdf4c1a019050847f1274e649a32ed355a31a6ed69724e1adade857e86eb5c3a121bcd147943203c88309857f0cc57cdbb08507d62bf67a4493cc262fb6c09d557013fff1f573f431221f8ff98509017f1596443f763dbcc25f4964fc61d23b3e5e12c9fa97f18a9251ca3355bcb0627e019350848182099250848186858609099050847f2b9d4b4110c9ae997782e1509b1d0fdb20a7c02bbd8bea7305462b9f8125b1e88509857f066f6f85d6f68a85ec10345351a23a3aaf07f38af8c952a7bceca70bd2af7ad58309017f12e0bcd3654bdfa76b2861d4ec3aeae0f1857d9f17e715aed6d049eae3ba3212019250847f1274e649a32ed355a31a6ed69724e1adade857e86eb5c3a121bcd147943203c88509857f0cc57cdbb08507d62bf67a4493cc262fb6c09d557013fff1f573f431221f8ff98309017f0fc92b4f1bbea82b9ea73d4af9af2a50ceabac7f37154b1904e6c76c7cf964ba019150848384099050848386838409099250847f2b9d4b4110c9ae997782e1509b1d0fdb20a7c02bbd8bea7305462b9f8125b1e88309857f066f6f85d6f68a85ec10345351a23a3aaf07f38af8c952a7bceca70bd2af7ad58509017f1f9c0b1610446442d6f2e592a8013f40b14f7c7722236f4f9c7e965233872762019050847f1274e649a32ed355a31a6ed69724e1adade857e86eb5c3a121bcd147943203c88309857f0cc57cdbb08507d62bf67a4493cc262fb6c09d557013fff1f573f431221f8ff98509017f0ebd74244ae72675f8cde06157a782f4050d914da38b4c058d159f643dbbf4d3019350848182099250848186858609099050847f2b9d4b4110c9ae997782e1509b1d0fdb20a7c02bbd8bea7305462b9f8125b1e88509857f066f6f85d6f68a85ec10345351a23a3aaf07f38af8c952a7bceca70bd2af7ad58309017f2cb7f0ed39e16e9f69a9fafd4ab951c03b0671e97346ee397a839839dccfc6d1019250847f1274e649a32ed355a31a6ed69724e1adade857e86eb5c3a121bcd147943203c88509857f0cc57cdbb08507d62bf67a4493cc262fb6c09d557013fff1f573f431221f8ff98309017f1a9d6e2ecff022cc5605443ee41bab20ce761d0514ce526690c72bca7352d9bf019150848384099050848386838409099250847f2b9d4b4110c9ae997782e1509b1d0fdb20a7c02bbd8bea7305462b9f8125b1e88309857f066f6f85d6f68a85ec10345351a23a3aaf07f38af8c952a7bceca70bd2af7ad58509017f2a115439607f335a5ea83c3bc44a9331d0c13326a9a7ba3087da182d648ec72f019050847f1274e649a32ed355a31a6ed69724e1adade857e86eb5c3a121bcd147943203c88309857f0cc57cdbb08507d62bf67a4493cc262fb6c09d557013fff1f573f431221f8ff98509017f23f9b6529b5d040d15b8fa7aee3e3410e738b56305cd44f29535c115c5a4c060019350848182099250848186858609099050847f2b9d4b4110c9ae997782e1509b1d0fdb20a7c02bbd8bea7305462b9f8125b1e88509857f066f6f85d6f68a85ec10345351a23a3aaf07f38af8c952a7bceca70bd2af7ad58309017f05872c16db0f72a2249ac6ba484bb9c3a3ce97c16d58b68b260eb939f0e6e8a7019250847f1274e649a32ed355a31a6ed69724e1adade857e86eb5c3a121bcd147943203c88509857f0cc57cdbb08507d62bf67a4493cc262fb6c09d557013fff1f573f431221f8ff98309017f1300bdee08bb7824ca20fb80118075f40219b6151d55b5c52b624a7cdeddf6a7019150848384099050848386838409099250847f2b9d4b4110c9ae997782e1509b1d0fdb20a7c02bbd8bea7305462b9f8125b1e88309857f066f6f85d6f68a85ec10345351a23a3aaf07f38af8c952a7bceca70bd2af7ad58509017f19b9b63d2f108e17e63817863a8f6c288d7ad29916d98cb1072e4e7b7d52b376019050847f1274e649a32ed355a31a6ed69724e1adade857e86eb5c3a121bcd147943203c88309857f0cc57cdbb08507d62bf67a4493cc262fb6c09d557013fff1f573f431221f8ff98509017f015bee1357e3c015b5bda237668522f613d1c88726b5ec4224a20128481b4f7f019350848182099250848186858609099050847f2b9d4b4110c9ae997782e1509b1d0fdb20a7c02bbd8bea7305462b9f8125b1e88509857f066f6f85d6f68a85ec10345351a23a3aaf07f38af8c952a7bceca70bd2af7ad58309017f2953736e94bb6b9f1b9707a4f1615e4efe1e1ce4bab218cbea92c785b128ffd1019250847f1274e649a32ed355a31a6ed69724e1adade857e86eb5c3a121bcd147943203c88509857f0cc57cdbb08507d62bf67a4493cc262fb6c09d557013fff1f573f431221f8ff98309017f0b069353ba091618862f806180c0385f851b98d372b45f544ce7266ed6608dfc019150848384099050848386838409099250847f2b9d4b4110c9ae997782e1509b1d0fdb20a7c02bbd8bea7305462b9f8125b1e88309857f066f6f85d6f68a85ec10345351a23a3aaf07f38af8c952a7bceca70bd2af7ad58509017f304f74d461ccc13115e4e0bcfb93817e55aeb7eb9306b64e4f588ac97d81f429019050847f1274e649a32ed355a31a6ed69724e1adade857e86eb5c3a121bcd147943203c88309857f0cc57cdbb08507d62bf67a4493cc262fb6c09d557013fff1f573f431221f8ff98509017f15bbf146ce9bca09e8a33f5e77dfe4f5aad2a164a4617a4cb8ee5415cde913fc019350848182099250848186858609099050847f2b9d4b4110c9ae997782e1509b1d0fdb20a7c02bbd8bea7305462b9f8125b1e88509857f066f6f85d6f68a85ec10345351a23a3aaf07f38af8c952a7bceca70bd2af7ad58309017f0ab4dfe0c2742cde44901031487964ed9b8f4b850405c10ca9ff23859572c8c6019250847f1274e649a32ed355a31a6ed69724e1adade857e86eb5c3a121bcd147943203c88509857f0cc57cdbb08507d62bf67a4493cc262fb6c09d557013fff1f573f431221f8ff98309017f0e32db320a044e3197f45f7649a19675ef5eedfea546dea9251de39f9639779a019150848384099050848386838409099250847f2b9d4b4110c9ae997782e1509b1d0fdb20a7c02bbd8bea7305462b9f8125b1e88309857f066f6f85d6f68a85ec10345351a23a3aaf07f38af8c952a7bceca70bd2af7ad58509017f0a1756aa1f378ca4b27635a78b6888e66797733a82774896a3078efa516da016019050847f1274e649a32ed355a31a6ed69724e1adade857e86eb5c3a121bcd147943203c88309857f0cc57cdbb08507d62bf67a4493cc262fb6c09d557013fff1f573f431221f8ff98509017f044c4a33b10f693447fd17177f952ef895e61d328f85efa94254d6a2a25d93ef019350848182099250848186858609099050847f2b9d4b4110c9ae997782e1509b1d0fdb20a7c02bbd8bea7305462b9f8125b1e88509857f066f6f85d6f68a85ec10345351a23a3aaf07f38af8c952a7bceca70bd2af7ad58309017f2ed3611b725b8a70be655b537f66f700fe0879d79a496891d37b07b5466c4b8b019250847f1274e649a32ed355a31a6ed69724e1adade857e86eb5c3a121bcd147943203c88509857f0cc57cdbb08507d62bf67a4493cc262fb6c09d557013fff1f573f431221f8ff98309017f1f9ba4e8bab7ce42c8ecc3d722aa2e0eadfdeb9cfdd347b5d8339ea7120858aa019150848384099050848386838409099250847f2b9d4b4110c9ae997782e1509b1d0fdb20a7c02bbd8bea7305462b9f8125b1e88309857f066f6f85d6f68a85ec10345351a23a3aaf07f38af8c952a7bceca70bd2af7ad58509017f1b233043052e8c288f7ee907a84e518aa38e82ac4502066db74056f865c5d3da019050847f1274e649a32ed355a31a6ed69724e1adade857e86eb5c3a121bcd147943203c88309857f0cc57cdbb08507d62bf67a4493cc262fb6c09d557013fff1f573f431221f8ff98509017f2431e1cc164bb8d074031ab72bd55b4c902053bfc0f14db0ca2f97b020875954019350848182099250848186858609099050847f2b9d4b4110c9ae997782e1509b1d0fdb20a7c02bbd8bea7305462b9f8125b1e88509857f066f6f85d6f68a85ec10345351a23a3aaf07f38af8c952a7bceca70bd2af7ad58309017f082f934c91f5aac330cd6953a0a7db45a13e322097583319a791f273965801fd019250847f1274e649a32ed355a31a6ed69724e1adade857e86eb5c3a121bcd147943203c88509857f0cc57cdbb08507d62bf67a4493cc262fb6c09d557013fff1f573f431221f8ff98309017f2b9a0a223e7538b0a34be074315542a3c77245e2ae7cbe999ad6bb930c48997c019150848384099050848386838409099250847f2b9d4b4110c9ae997782e1509b1d0fdb20a7c02bbd8bea7305462b9f8125b1e88309857f066f6f85d6f68a85ec10345351a23a3aaf07f38af8c952a7bceca70bd2af7ad58509017f0e1cd91edd2cfa2cceb85483b887a9be8164163e75a8a00eb0b589cc70214e7d019050847f1274e649a32ed355a31a6ed69724e1adade857e86eb5c3a121bcd147943203c88309857f0cc57cdbb08507d62bf67a4493cc262fb6c09d557013fff1f573f431221f8ff98509017f2e1eac0f2bfdfd63c951f61477e3698999774f19854d00f588d324601cebe2f9019350848182099250848186858609099050847f2b9d4b4110c9ae997782e1509b1d0fdb20a7c02bbd8bea7305462b9f8125b1e88509857f066f6f85d6f68a85ec10345351a23a3aaf07f38af8c952a7bceca70bd2af7ad58309017f0cbfa95f37fb74060c76158e769d6d157345784d8efdb33c23d748115b500b83019250847f1274e649a32ed355a31a6ed69724e1adade857e86eb5c3a121bcd147943203c88509857f0cc57cdbb08507d62bf67a4493cc262fb6c09d557013fff1f573f431221f8ff98309017f08f05b3be923ed44d65ad49d8a61e9a676d991e3a77513d9980c232dfa4a4f84019150848384099050848386838409099250847f2b9d4b4110c9ae997782e1509b1d0fdb20a7c02bbd8bea7305462b9f8125b1e88309857f066f6f85d6f68a85ec10345351a23a3aaf07f38af8c952a7bceca70bd2af7ad58509017f22719e2a070bcd0852bf8e21984d0443e7284925dc0758a325a2dd510c047ef6019050847f1274e649a32ed355a31a6ed69724e1adade857e86eb5c3a121bcd147943203c88309857f0cc57cdbb08507d62bf67a4493cc262fb6c09d557013fff1f573f431221f8ff98509017f041f596a9ee1cb2bc060f7fcc3a1ab4c7bdbf036119982c0f41f62b2f26830c0019350848182099250848186858609099050847f2b9d4b4110c9ae997782e1509b1d0fdb20a7c02bbd8bea7305462b9f8125b1e88509857f066f6f85d6f68a85ec10345351a23a3aaf07f38af8c952a7bceca70bd2af7ad58309017f233fd35de1be520a87628eb06f6b1d4c021be1c2d0dc464a19fcdd0986b10f89019250847f1274e649a32ed355a31a6ed69724e1adade857e86eb5c3a121bcd147943203c88509857f0cc57cdbb08507d62bf67a4493cc262fb6c09d557013fff1f573f431221f8ff98309017f0524b46d1aa87a5e4325e0a423ebc810d31e078aa1b4707eefcb453c61c9c267019150848384099050848386838409099250847f2b9d4b4110c9ae997782e1509b1d0fdb20a7c02bbd8bea7305462b9f8125b1e88309857f066f6f85d6f68a85ec10345351a23a3aaf07f38af8c952a7bceca70bd2af7ad58509017f2c34f424c81e5716ce47fcac894b85824227bb954b0f3199cc4486237c515211019050847f1274e649a32ed355a31a6ed69724e1adade857e86eb5c3a121bcd147943203c88309857f0cc57cdbb08507d62bf67a4493cc262fb6c09d557013fff1f573f431221f8ff98509017f0b5f2a4b63387819207effc2b5541fb72dd2025b5457cc97f33010327de4915e019350848182099250848186858609099050847f2b9d4b4110c9ae997782e1509b1d0fdb20a7c02bbd8bea7305462b9f8125b1e88509857f066f6f85d6f68a85ec10345351a23a3aaf07f38af8c952a7bceca70bd2af7ad58309017f22207856082ccc54c5b72fe439d2cfd6c17435d2f57af6ceaefac41fe05c659f019250847f1274e649a32ed355a31a6ed69724e1adade857e86eb5c3a121bcd147943203c88509857f0cc57cdbb08507d62bf67a4493cc262fb6c09d557013fff1f573f431221f8ff98309017f24d57a8bf5da63fe4e24159b7f8950b5cdfb210194caf79f27854048ce2c8171019150848384099050848386838409099250847f2b9d4b4110c9ae997782e1509b1d0fdb20a7c02bbd8bea7305462b9f8125b1e88309857f066f6f85d6f68a85ec10345351a23a3aaf07f38af8c952a7bceca70bd2af7ad58509017f0afab181fdd5e0583b371d75bd693f98374ad7097bb01a8573919bb23b79396e019050847f1274e649a32ed355a31a6ed69724e1adade857e86eb5c3a121bcd147943203c88309857f0cc57cdbb08507d62bf67a4493cc262fb6c09d557013fff1f573f431221f8ff98509017f2dba9b108f208772998a52efac7cbd5676c0057194c16c0bf16290d62b1128ee019350848182099250848186858609099050847f2b9d4b4110c9ae997782e1509b1d0fdb20a7c02bbd8bea7305462b9f8125b1e88509857f066f6f85d6f68a85ec10345351a23a3aaf07f38af8c952a7bceca70bd2af7ad58309017f26349b66edb8b16f56f881c788f53f83cbb83de0bd592b255aff13e6bce420b3019250847f1274e649a32ed355a31a6ed69724e1adade857e86eb5c3a121bcd147943203c88509857f0cc57cdbb08507d62bf67a4493cc262fb6c09d557013fff1f573f431221f8ff98309017f25af7ce0e5e10357685e95f92339753ad81a56d28ecc193b235288a3e6f137db019150848384099050848386838409099250847f2b9d4b4110c9ae997782e1509b1d0fdb20a7c02bbd8bea7305462b9f8125b1e88309857f066f6f85d6f68a85ec10345351a23a3aaf07f38af8c952a7bceca70bd2af7ad58509017f25b4ce7bd2294390c094d6a55edd68b970eed7aae88b2bff1f7c0187fe35011f019050847f1274e649a32ed355a31a6ed69724e1adade857e86eb5c3a121bcd147943203c88309857f0cc57cdbb08507d62bf67a4493cc262fb6c09d557013fff1f573f431221f8ff98509017f22c543f10f6c89ec387e53f1908a88e5de9cef28ebdf30b18cb9d54c1e02b631019350848182099250848186858609099050847f2b9d4b4110c9ae997782e1509b1d0fdb20a7c02bbd8bea7305462b9f8125b1e88509857f066f6f85d6f68a85ec10345351a23a3aaf07f38af8c952a7bceca70bd2af7ad58309017f0236f93e7789c4724fc7908a9f191e1e425e906a919d7a34df668e74882f87a9019250847f1274e649a32ed355a31a6ed69724e1adade857e86eb5c3a121bcd147943203c88509857f0cc57cdbb08507d62bf67a4493cc262fb6c09d557013fff1f573f431221f8ff98309017f29350b401166ca010e7d27e37d05da99652bdae114eb01659cb497af980c4b52019150848384099050848386838409099250847f2b9d4b4110c9ae997782e1509b1d0fdb20a7c02bbd8bea7305462b9f8125b1e88309857f066f6f85d6f68a85ec10345351a23a3aaf07f38af8c952a7bceca70bd2af7ad58509017f0eed787d65820d3f6bd31bbab547f75a65edb75d844ebb89ee1260916652363f019050847f1274e649a32ed355a31a6ed69724e1adade857e86eb5c3a121bcd147943203c88309857f0cc57cdbb08507d62bf67a4493cc262fb6c09d557013fff1f573f431221f8ff98509017f07cc1170f13b46f2036a753f520b3291fdcd0e99bd94297d1906f656f4de6fad019350848182099250848186858609099050847f2b9d4b4110c9ae997782e1509b1d0fdb20a7c02bbd8bea7305462b9f8125b1e88509857f066f6f85d6f68a85ec10345351a23a3aaf07f38af8c952a7bceca70bd2af7ad58309017f22b939233b1d7205f49bcf613a3d30b1908786d7f9f5d10c2059435689e8acea019250847f1274e649a32ed355a31a6ed69724e1adade857e86eb5c3a121bcd147943203c88509857f0cc57cdbb08507d62bf67a4493cc262fb6c09d557013fff1f573f431221f8ff98309017f01451762a0aab81c8aad1dc8bc33e870740f083a5aa85438add650ace60ae5a6019150848384099050848386838409099250847f2b9d4b4110c9ae997782e1509b1d0fdb20a7c02bbd8bea7305462b9f8125b1e88309857f066f6f85d6f68a85ec10345351a23a3aaf07f38af8c952a7bceca70bd2af7ad58509017f23506bb5d8727d4461fabf1025d46d1fe32eaa61dec7da57e704fec0892fce89019050847f1274e649a32ed355a31a6ed69724e1adade857e86eb5c3a121bcd147943203c88309857f0cc57cdbb08507d62bf67a4493cc262fb6c09d557013fff1f573f431221f8ff98509017f2e484c44e838aea0bac06ae3f71bdd092a3709531e1efea97f8bd68907355522019350848182099250848186858609099050847f2b9d4b4110c9ae997782e1509b1d0fdb20a7c02bbd8bea7305462b9f8125b1e88509857f066f6f85d6f68a85ec10345351a23a3aaf07f38af8c952a7bceca70bd2af7ad58309017f0f4bc7d07ebafd64379e78c50bd2e42baf4a594545cedc2545418da26835b54c019250847f1274e649a32ed355a31a6ed69724e1adade857e86eb5c3a121bcd147943203c88509857f0cc57cdbb08507d62bf67a4493cc262fb6c09d557013fff1f573f431221f8ff98309017f1f4d3c8f6583e9e5fa76637862faaee851582388725df460e620996d50d8e74e019150848384099050848386838409099250847f2b9d4b4110c9ae997782e1509b1d0fdb20a7c02bbd8bea7305462b9f8125b1e88309857f066f6f85d6f68a85ec10345351a23a3aaf07f38af8c952a7bceca70bd2af7ad58509017f093514e0c70711f82660d07be0e4a988fae02abc7b681d9153eb9bcb48fe7389019050847f1274e649a32ed355a31a6ed69724e1adade857e86eb5c3a121bcd147943203c88309857f0cc57cdbb08507d62bf67a4493cc262fb6c09d557013fff1f573f431221f8ff98509017f1adab0c8e2b3bad346699a2b5f3bc03643ee83ece47228f24a58e0a347e153d8019350848182099250848186858609099050847f2b9d4b4110c9ae997782e1509b1d0fdb20a7c02bbd8bea7305462b9f8125b1e88509857f066f6f85d6f68a85ec10345351a23a3aaf07f38af8c952a7bceca70bd2af7ad58309017f1672b1726057d99dd14709ebb474641a378c1b94b8072bac1a22dbef9e80dad2019250847f1274e649a32ed355a31a6ed69724e1adade857e86eb5c3a121bcd147943203c88509857f0cc57cdbb08507d62bf67a4493cc262fb6c09d557013fff1f573f431221f8ff98309017f1dfd53d4576af2e38f44f53fdcab468cc5d8e2fae0acc4ee30d47b239b479c14019150848384099050848386838409099250847f2b9d4b4110c9ae997782e1509b1d0fdb20a7c02bbd8bea7305462b9f8125b1e88309857f066f6f85d6f68a85ec10345351a23a3aaf07f38af8c952a7bceca70bd2af7ad58509017f0c6888a10b75b0f3a70a36263a37e17fe6d77d640f6fc3debc7f207753205c60019050847f1274e649a32ed355a31a6ed69724e1adade857e86eb5c3a121bcd147943203c88309857f0cc57cdbb08507d62bf67a4493cc262fb6c09d557013fff1f573f431221f8ff98509017f1addb933a65be77092b34a7e77d12fe8611a61e00ee6848b85091ecca9d1e508019350848182099250848186858609099050847f2b9d4b4110c9ae997782e1509b1d0fdb20a7c02bbd8bea7305462b9f8125b1e88509857f066f6f85d6f68a85ec10345351a23a3aaf07f38af8c952a7bceca70bd2af7ad58309017ed7540dcd268a845c10ae18d1de933cf638ff5425f0afff7935628e299d1791019250847f1274e649a32ed355a31a6ed69724e1adade857e86eb5c3a121bcd147943203c88509857f0cc57cdbb08507d62bf67a4493cc262fb6c09d557013fff1f573f431221f8ff98309017f140c0e42687e9ead01b2827a5664ca9c26fedde4acd99db1d316939d20b82c0e019150848384099050848386838409099250847f2b9d4b4110c9ae997782e1509b1d0fdb20a7c02bbd8bea7305462b9f8125b1e88309857f066f6f85d6f68a85ec10345351a23a3aaf07f38af8c952a7bceca70bd2af7ad58509017f2f0c3a115d4317d191ba89b8d13d1806c20a0f9b24f8c5edc091e2ae56565984019050847f1274e649a32ed355a31a6ed69724e1adade857e86eb5c3a121bcd147943203c88309857f0cc57cdbb08507d62bf67a4493cc262fb6c09d557013fff1f573f431221f8ff98509017f0c4ee778ff7c14553006ed220cf9c81008a0cff670b22b82d8c538a1dc958c61019350848182099250848186858609099050847f2b9d4b4110c9ae997782e1509b1d0fdb20a7c02bbd8bea7305462b9f8125b1e88509857f066f6f85d6f68a85ec10345351a23a3aaf07f38af8c952a7bceca70bd2af7ad58309017f1704f2766d46f82c3693f00440ccc3609424ed26c0acc66227c3d7485de74c69019250847f1274e649a32ed355a31a6ed69724e1adade857e86eb5c3a121bcd147943203c88509857f0cc57cdbb08507d62bf67a4493cc262fb6c09d557013fff1f573f431221f8ff98309017f2f2d19cc3ea5d78ea7a02c1b51d244abf0769c9f8544e40239b66fe9009c3cfa019150848384099050848386838409099250847f2b9d4b4110c9ae997782e1509b1d0fdb20a7c02bbd8bea7305462b9f8125b1e88309857f066f6f85d6f68a85ec10345351a23a3aaf07f38af8c952a7bceca70bd2af7ad58509017f1ae03853b75fcaba5053f112e2a8e8dcdd7ee6cb9cfed9c7d6c766a806fc6629019050847f1274e649a32ed355a31a6ed69724e1adade857e86eb5c3a121bcd147943203c88309857f0cc57cdbb08507d62bf67a4493cc262fb6c09d557013fff1f573f431221f8ff98509017f0971aabf795241df51d131d0fa61aa5f3556921b2d6f014e4e41a86ddaf056d5019350848182099250848186858609099050848485099250848486858609099350847f2b9d4b4110c9ae997782e1509b1d0fdb20a7c02bbd8bea7305462b9f8125b1e88509857f066f6f85d6f68a85ec10345351a23a3aaf07f38af8c952a7bceca70bd2af7ad58309017f1408c316e6014e1a91d4cf6b6e0de73eda624f8380df1c875f5c29f7bfe2f646019250847f1274e649a32ed355a31a6ed69724e1adade857e86eb5c3a121bcd147943203c88509857f0cc57cdbb08507d62bf67a4493cc262fb6c09d557013fff1f573f431221f8ff98309017f1667f3fe2edbe850248abe42b543093b6c89f1f773ef285341691f39822ef5bd019150848384099050848386838409099250848283099050848286838409099150847f2b9d4b4110c9ae997782e1509b1d0fdb20a7c02bbd8bea7305462b9f8125b1e88309857f066f6f85d6f68a85ec10345351a23a3aaf07f38af8c952a7bceca70bd2af7ad58509017f13bf7c5d0d2c4376a48b0a03557cdf915b81718409e5c133424c69576500fe37019050847f1274e649a32ed355a31a6ed69724e1adade857e86eb5c3a121bcd147943203c88309857f0cc57cdbb08507d62bf67a4493cc262fb6c09d557013fff1f573f431221f8ff98509017f07620a6dfb0b6cec3016adf3d3533c24024b95347856b79719bc0ba743a62c2c019350848182099250848186858609099050848485099250848486858609099350847f2b9d4b4110c9ae997782e1509b1d0fdb20a7c02bbd8bea7305462b9f8125b1e88509857f066f6f85d6f68a85ec10345351a23a3aaf07f38af8c952a7bceca70bd2af7ad58309017f1574c7ef0c43545f36a8ca08bdbdd8b075d2959e2f322b731675de3e1982b4d0019250847f1274e649a32ed355a31a6ed69724e1adade857e86eb5c3a121bcd147943203c88509857f0cc57cdbb08507d62bf67a4493cc262fb6c09d557013fff1f573f431221f8ff98309017f269e4b5b7a2eb21afd567970a717ceec5bd4184571c254fdc06e03a7ff8378f001915084838409905084838683840909925084828309905084828683840909915084857f2b9d4b4110c9ae997782e1509b1d0fdb20a7c02bbd8bea7305462b9f8125b1e88409867f066f6f85d6f68a85ec10345351a23a3aaf07f38af8c952a7bceca70bd2af7ad58609010660005260206000f35b6000604051905090565b600080fd5b600080fd5b6000601f19601f8301169050919050565b7f4e487b7100000000000000000000000000000000000000000000000000000000600052604160045260246000fd5b613b2682613add565b810181811067ffffffffffffffff82111715613b4557613b44613aee565b5b80604052505050565b6000613b58613ac9565b9050613b648282613b1d565b919050565b600067ffffffffffffffff821115613b8457613b83613aee565b5b602082029050919050565b600080fd5b6000819050919050565b613ba781613b94565b8114613bb257600080fd5b50565b600081359050613bc481613b9e565b92915050565b6000613bdd613bd884613b69565b613b4e565b90508060208402830185811115613bf757613bf6613b8f565b5b835b81811015613c205780613c0c8882613bb5565b845260208401935050602081019050613bf9565b5050509392505050565b600082601f830112613c3f57613c3e613ad8565b5b6001613c4c848285613bca565b91505092915050565b600060208284031215613c6b57613c6a613ad3565b5b6000613c7984828501613c2a565b91505092915050565b613c8b81613b94565b82525050565b6000602082019050613ca66000830184613c82565b9291505056fea2646970667358221220c1e857a66a01352cf3c1372e492672c3f96e5dd97f5afb6514be363fe02c031b64736f6c634300081c0033","opcodes":"PUSH2 0x3CE2 PUSH2 0x52 PUSH1 0xB DUP3 DUP3 DUP3 CODECOPY DUP1 MLOAD PUSH1 0x0 BYTE PUSH1 0x73 EQ PUSH1 0x45 JUMPI PUSH32 0x4E487B7100000000000000000000000000000000000000000000000000000000 PUSH1 0x0 MSTORE PUSH1 0x0 PUSH1 0x4 MSTORE PUSH1 0x24 PUSH1 0x0 REVERT JUMPDEST ADDRESS PUSH1 0x0 MSTORE PUSH1 0x73 DUP2 MSTORE8 DUP3 DUP2 RETURN INVALID PUSH20 0x0 ADDRESS EQ PUSH1 0x80 PUSH1 0x40 MSTORE PUSH1 0x4 CALLDATASIZE LT PUSH2 0x35 JUMPI PUSH1 0x0 CALLDATALOAD PUSH1 0xE0 SHR DUP1 PUSH4 0x9D036E71 EQ PUSH2 0x3A JUMPI JUMPDEST PUSH1 0x0 DUP1 REVERT JUMPDEST PUSH2 0x54 PUSH1 0x4 DUP1 CALLDATASIZE SUB DUP2 ADD SWAP1 PUSH2 0x4F SWAP2 SWAP1 PUSH2 0x3C55 JUMP JUMPDEST PUSH2 0x6A JUMP JUMPDEST PUSH1 0x40 MLOAD PUSH2 0x61 SWAP2 SWAP1 PUSH2 0x3C91 JUMP JUMPDEST PUSH1 0x40 MLOAD DUP1 SWAP2 SUB SWAP1 RETURN JUMPDEST PUSH1 0x0 PUSH32 0x30644E72E131A029B85045B68181585D2833E84879B9709143E1F593F0000001 PUSH32 0xC0356530896EEC42A97ED937F3135CFC5142B3AE405B8343C1D83FFA604CB81 DUP2 PUSH1 0x80 MLOAD MOD ADD DUP2 DUP2 DUP3 MULMOD DUP3 DUP3 DUP5 DUP4 DUP5 MULMOD MULMOD SWAP2 POP DUP3 PUSH32 0x2B9D4B4110C9AE997782E1509B1D0FDB20A7C02BBD8BEA7305462B9F8125B1E8 DUP4 MULMOD PUSH32 0x4B87CA7DC8593E8EFD436C4E47F32A16E36F24C756EBB53FF0AB98C1608E8F5 ADD PUSH32 0x1E28A1D935698AD1142E51182BB54CF4A00EA5AABD6268BD317EA977CC154A30 ADD SWAP1 POP DUP3 PUSH32 0x1274E649A32ED355A31A6ED69724E1ADADE857E86EB5C3A121BCD147943203C8 DUP4 MULMOD PUSH32 0x20A7D25895731BD7CF65A14CCE92A52AE70D529CD9531696F88536D5859BF85A ADD PUSH32 0x27AF2D831A9D2748080965DB30E298E40E5757C3E008DB964CF9E2B12B91251F ADD DUP4 DUP3 DUP4 MULMOD DUP5 DUP4 DUP7 DUP4 DUP5 MULMOD MULMOD SWAP3 POP DUP5 DUP3 DUP4 MULMOD SWAP1 POP DUP5 DUP3 DUP7 DUP4 DUP5 MULMOD MULMOD SWAP2 POP DUP5 PUSH32 0x2B9D4B4110C9AE997782E1509B1D0FDB20A7C02BBD8BEA7305462B9F8125B1E8 DUP4 MULMOD DUP6 PUSH32 0x66F6F85D6F68A85EC10345351A23A3AAF07F38AF8C952A7BCECA70BD2AF7AD5 DUP6 MULMOD ADD PUSH32 0x1E6F11CE60FC8F513A6A3CFE16AE175A41291462F214CD0879AAF43545B74E03 ADD SWAP1 POP DUP5 PUSH32 0x1274E649A32ED355A31A6ED69724E1ADADE857E86EB5C3A121BCD147943203C8 DUP4 MULMOD DUP6 PUSH32 0xCC57CDBB08507D62BF67A4493CC262FB6C09D557013FFF1F573F431221F8FF9 DUP6 MULMOD ADD PUSH32 0x2A67384D3BBD5E438541819CB681F0BE04462ED14C3613D8F719206268D142D3 ADD SWAP4 POP DUP5 DUP2 DUP3 MULMOD SWAP3 POP DUP5 DUP2 DUP7 DUP6 DUP7 MULMOD MULMOD SWAP1 POP DUP5 DUP5 DUP6 MULMOD SWAP3 POP DUP5 DUP5 DUP7 DUP6 DUP7 MULMOD MULMOD SWAP4 POP DUP5 PUSH32 0x2B9D4B4110C9AE997782E1509B1D0FDB20A7C02BBD8BEA7305462B9F8125B1E8 DUP6 MULMOD DUP6 PUSH32 0x66F6F85D6F68A85EC10345351A23A3AAF07F38AF8C952A7BCECA70BD2AF7AD5 DUP4 MULMOD ADD PUSH32 0xB66FDF356093A611609F8E12FBFECF0B985E381F025188936408F5D5C9F45D0 ADD SWAP3 POP DUP5 PUSH32 0x1274E649A32ED355A31A6ED69724E1ADADE857E86EB5C3A121BCD147943203C8 DUP6 MULMOD DUP6 PUSH32 0xCC57CDBB08507D62BF67A4493CC262FB6C09D557013FFF1F573F431221F8FF9 DUP4 MULMOD ADD PUSH32 0x12EE3EC1E78D470830C61093C2ADE370B26C83CC5CEBEEDDAA6852DBDB09E21 ADD SWAP2 POP DUP5 DUP4 DUP5 MULMOD SWAP1 POP DUP5 DUP4 DUP7 DUP4 DUP5 MULMOD MULMOD SWAP3 POP DUP5 DUP3 DUP4 MULMOD SWAP1 POP DUP5 DUP3 DUP7 DUP4 DUP5 MULMOD MULMOD SWAP2 POP DUP5 PUSH32 0x2B9D4B4110C9AE997782E1509B1D0FDB20A7C02BBD8BEA7305462B9F8125B1E8 DUP4 MULMOD DUP6 PUSH32 0x66F6F85D6F68A85EC10345351A23A3AAF07F38AF8C952A7BCECA70BD2AF7AD5 DUP6 MULMOD ADD PUSH32 0x252BA5F6760BFBDFD88F67F8175E3FD6CD1C431B099B6BB2D108E7B445BB1B9 ADD SWAP1 POP DUP5 PUSH32 0x1274E649A32ED355A31A6ED69724E1ADADE857E86EB5C3A121BCD147943203C8 DUP4 MULMOD DUP6 PUSH32 0xCC57CDBB08507D62BF67A4493CC262FB6C09D557013FFF1F573F431221F8FF9 DUP6 MULMOD ADD PUSH32 0x179474CCECA5FF676C6BEC3CEF54296354391A8935FF71D6EF5AEAAD7CA932F1 ADD SWAP4 POP DUP5 DUP2 DUP3 MULMOD SWAP3 POP DUP5 DUP2 DUP7 DUP6 DUP7 MULMOD MULMOD SWAP1 POP DUP5 PUSH32 0x2B9D4B4110C9AE997782E1509B1D0FDB20A7C02BBD8BEA7305462B9F8125B1E8 DUP6 MULMOD DUP6 PUSH32 0x66F6F85D6F68A85EC10345351A23A3AAF07F38AF8C952A7BCECA70BD2AF7AD5 DUP4 MULMOD ADD PUSH32 0x2C24261379A51BFA9228FF4A503FD4ED9C1F974A264969B37E1A2589BBED2B91 ADD SWAP3 POP DUP5 PUSH32 0x1274E649A32ED355A31A6ED69724E1ADADE857E86EB5C3A121BCD147943203C8 DUP6 MULMOD DUP6 PUSH32 0xCC57CDBB08507D62BF67A4493CC262FB6C09D557013FFF1F573F431221F8FF9 DUP4 MULMOD ADD PUSH32 0x1CC1D7B62692E63EAC2F288BD0695B43C2F63F5001FC0FC553E66C0551801B05 ADD SWAP2 POP DUP5 DUP4 DUP5 MULMOD SWAP1 POP DUP5 DUP4 DUP7 DUP4 DUP5 MULMOD MULMOD SWAP3 POP DUP5 PUSH32 0x2B9D4B4110C9AE997782E1509B1D0FDB20A7C02BBD8BEA7305462B9F8125B1E8 DUP4 MULMOD DUP6 PUSH32 0x66F6F85D6F68A85EC10345351A23A3AAF07F38AF8C952A7BCECA70BD2AF7AD5 DUP6 MULMOD ADD PUSH32 0x255059301AADA98BB2ED55F852979E9600784DBF17FBACD05D9EFF5FD9C91B56 ADD SWAP1 POP DUP5 PUSH32 0x1274E649A32ED355A31A6ED69724E1ADADE857E86EB5C3A121BCD147943203C8 DUP4 MULMOD DUP6 PUSH32 0xCC57CDBB08507D62BF67A4493CC262FB6C09D557013FFF1F573F431221F8FF9 DUP6 MULMOD ADD PUSH32 0x28437BE3AC1CB2E479E1F5C0ECCD32B3AEA24234970A8193B11C29CE7E59EFD9 ADD SWAP4 POP DUP5 DUP2 DUP3 MULMOD SWAP3 POP DUP5 DUP2 DUP7 DUP6 DUP7 MULMOD MULMOD SWAP1 POP DUP5 PUSH32 0x2B9D4B4110C9AE997782E1509B1D0FDB20A7C02BBD8BEA7305462B9F8125B1E8 DUP6 MULMOD DUP6 PUSH32 0x66F6F85D6F68A85EC10345351A23A3AAF07F38AF8C952A7BCECA70BD2AF7AD5 DUP4 MULMOD ADD PUSH32 0x28216A442F2E1F711CA4FA6B53766EB118548DA8FB4F78D4338762C37F5F2043 ADD SWAP3 POP DUP5 PUSH32 0x1274E649A32ED355A31A6ED69724E1ADADE857E86EB5C3A121BCD147943203C8 DUP6 MULMOD DUP6 PUSH32 0xCC57CDBB08507D62BF67A4493CC262FB6C09D557013FFF1F573F431221F8FF9 DUP4 MULMOD ADD PUSH32 0x2C1F47CD17FA5ADF1F39F4E7056DD03FEEE1EFCE03094581131F2377323482C9 ADD SWAP2 POP DUP5 DUP4 DUP5 MULMOD SWAP1 POP DUP5 DUP4 DUP7 DUP4 DUP5 MULMOD MULMOD SWAP3 POP DUP5 PUSH32 0x2B9D4B4110C9AE997782E1509B1D0FDB20A7C02BBD8BEA7305462B9F8125B1E8 DUP4 MULMOD DUP6 PUSH32 0x66F6F85D6F68A85EC10345351A23A3AAF07F38AF8C952A7BCECA70BD2AF7AD5 DUP6 MULMOD ADD PUSH32 0x7ABAD02B7A5EBC48632BCC9356CEB7DD9DAFCA276638A63646B8566A621AFC9 ADD SWAP1 POP DUP5 PUSH32 0x1274E649A32ED355A31A6ED69724E1ADADE857E86EB5C3A121BCD147943203C8 DUP4 MULMOD DUP6 PUSH32 0xCC57CDBB08507D62BF67A4493CC262FB6C09D557013FFF1F573F431221F8FF9 DUP6 MULMOD ADD PUSH32 0x230264601FFDF29275B33FFAAB51DFE9429F90880A69CD137DA0C4D15F96C3C ADD SWAP4 POP DUP5 DUP2 DUP3 MULMOD SWAP3 POP DUP5 DUP2 DUP7 DUP6 DUP7 MULMOD MULMOD SWAP1 POP DUP5 PUSH32 0x2B9D4B4110C9AE997782E1509B1D0FDB20A7C02BBD8BEA7305462B9F8125B1E8 DUP6 MULMOD DUP6 PUSH32 0x66F6F85D6F68A85EC10345351A23A3AAF07F38AF8C952A7BCECA70BD2AF7AD5 DUP4 MULMOD ADD PUSH32 0x1BC973054E51D905A0F168656497CA40A864414557EE289E717E5D66899AA0A9 ADD SWAP3 POP DUP5 PUSH32 0x1274E649A32ED355A31A6ED69724E1ADADE857E86EB5C3A121BCD147943203C8 DUP6 MULMOD DUP6 PUSH32 0xCC57CDBB08507D62BF67A4493CC262FB6C09D557013FFF1F573F431221F8FF9 DUP4 MULMOD ADD PUSH32 0x2E1C22F964435008206C3157E86341EDD249AFF5C2D8421F2A6B22288F0A67FC ADD SWAP2 POP DUP5 DUP4 DUP5 MULMOD SWAP1 POP DUP5 DUP4 DUP7 DUP4 DUP5 MULMOD MULMOD SWAP3 POP DUP5 PUSH32 0x2B9D4B4110C9AE997782E1509B1D0FDB20A7C02BBD8BEA7305462B9F8125B1E8 DUP4 MULMOD DUP6 PUSH32 0x66F6F85D6F68A85EC10345351A23A3AAF07F38AF8C952A7BCECA70BD2AF7AD5 DUP6 MULMOD ADD PUSH32 0x1224F38DF67C5378121C1D5F461BBC509E8EA1598E46C9F7A70452BC2BBA86B8 ADD SWAP1 POP DUP5 PUSH32 0x1274E649A32ED355A31A6ED69724E1ADADE857E86EB5C3A121BCD147943203C8 DUP4 MULMOD DUP6 PUSH32 0xCC57CDBB08507D62BF67A4493CC262FB6C09D557013FFF1F573F431221F8FF9 DUP6 MULMOD ADD PUSH32 0x2E4E69D8BA59E519280B4BD9ED0068FD7BFE8CD9DFEDA1969D2989186CDE20E ADD SWAP4 POP DUP5 DUP2 DUP3 MULMOD SWAP3 POP DUP5 DUP2 DUP7 DUP6 DUP7 MULMOD MULMOD SWAP1 POP DUP5 PUSH32 0x2B9D4B4110C9AE997782E1509B1D0FDB20A7C02BBD8BEA7305462B9F8125B1E8 DUP6 MULMOD DUP6 PUSH32 0x66F6F85D6F68A85EC10345351A23A3AAF07F38AF8C952A7BCECA70BD2AF7AD5 DUP4 MULMOD ADD PUSH32 0x1F1ECCC34AABA0137F5DF81FC04FF3EE4F19EE364E653F076D47E9735D98018E ADD SWAP3 POP DUP5 PUSH32 0x1274E649A32ED355A31A6ED69724E1ADADE857E86EB5C3A121BCD147943203C8 DUP6 MULMOD DUP6 PUSH32 0xCC57CDBB08507D62BF67A4493CC262FB6C09D557013FFF1F573F431221F8FF9 DUP4 MULMOD ADD PUSH32 0x1672AD3D709A353974266C3039A9A7311424448032CD1819EACB8A4D4284F582 ADD SWAP2 POP DUP5 DUP4 DUP5 MULMOD SWAP1 POP DUP5 DUP4 DUP7 DUP4 DUP5 MULMOD MULMOD SWAP3 POP DUP5 PUSH32 0x2B9D4B4110C9AE997782E1509B1D0FDB20A7C02BBD8BEA7305462B9F8125B1E8 DUP4 MULMOD DUP6 PUSH32 0x66F6F85D6F68A85EC10345351A23A3AAF07F38AF8C952A7BCECA70BD2AF7AD5 DUP6 MULMOD ADD PUSH32 0x283E3FDC2C6E420C56F44AF5192B4AE9CDA6961F284D24991D2ED602DF8C8FC7 ADD SWAP1 POP DUP5 PUSH32 0x1274E649A32ED355A31A6ED69724E1ADADE857E86EB5C3A121BCD147943203C8 DUP4 MULMOD DUP6 PUSH32 0xCC57CDBB08507D62BF67A4493CC262FB6C09D557013FFF1F573F431221F8FF9 DUP6 MULMOD ADD PUSH32 0x1C2A3D120C550ECFD0DB0957170FA013683751F8FDFF59D6614FBD69FF394BCC ADD SWAP4 POP DUP5 DUP2 DUP3 MULMOD SWAP3 POP DUP5 DUP2 DUP7 DUP6 DUP7 MULMOD MULMOD SWAP1 POP DUP5 PUSH32 0x2B9D4B4110C9AE997782E1509B1D0FDB20A7C02BBD8BEA7305462B9F8125B1E8 DUP6 MULMOD DUP6 PUSH32 0x66F6F85D6F68A85EC10345351A23A3AAF07F38AF8C952A7BCECA70BD2AF7AD5 DUP4 MULMOD ADD PUSH32 0x216F84877AAC6172F7897A7323456EFE143A9A43773EA6F296CB6B8177653FBD ADD SWAP3 POP DUP5 PUSH32 0x1274E649A32ED355A31A6ED69724E1ADADE857E86EB5C3A121BCD147943203C8 DUP6 MULMOD DUP6 PUSH32 0xCC57CDBB08507D62BF67A4493CC262FB6C09D557013FFF1F573F431221F8FF9 DUP4 MULMOD ADD PUSH32 0x2C0D272BECF2A75764BA7E8E3E28D12BCEAA47EA61CA59A411A1F51552F94788 ADD SWAP2 POP DUP5 DUP4 DUP5 MULMOD SWAP1 POP DUP5 DUP4 DUP7 DUP4 DUP5 MULMOD MULMOD SWAP3 POP DUP5 PUSH32 0x2B9D4B4110C9AE997782E1509B1D0FDB20A7C02BBD8BEA7305462B9F8125B1E8 DUP4 MULMOD DUP6 PUSH32 0x66F6F85D6F68A85EC10345351A23A3AAF07F38AF8C952A7BCECA70BD2AF7AD5 DUP6 MULMOD ADD PUSH32 0x16E34299865C0E28484EE7A74C454E9F170A5480ABE0508FCB4A6C3D89546F43 ADD SWAP1 POP DUP5 PUSH32 0x1274E649A32ED355A31A6ED69724E1ADADE857E86EB5C3A121BCD147943203C8 DUP4 MULMOD DUP6 PUSH32 0xCC57CDBB08507D62BF67A4493CC262FB6C09D557013FFF1F573F431221F8FF9 DUP6 MULMOD ADD PUSH32 0x175CEBA599E96F5B375A232A6FB9CC71772047765802290F48CD939755488FC5 ADD SWAP4 POP DUP5 DUP2 DUP3 MULMOD SWAP3 POP DUP5 DUP2 DUP7 DUP6 DUP7 MULMOD MULMOD SWAP1 POP DUP5 PUSH32 0x2B9D4B4110C9AE997782E1509B1D0FDB20A7C02BBD8BEA7305462B9F8125B1E8 DUP6 MULMOD DUP6 PUSH32 0x66F6F85D6F68A85EC10345351A23A3AAF07F38AF8C952A7BCECA70BD2AF7AD5 DUP4 MULMOD ADD PUSH32 0xC7594440DC48C16FEAD9E1758B028066AA410BFBC354F54D8C5FFBB44A1EE32 ADD SWAP3 POP DUP5 PUSH32 0x1274E649A32ED355A31A6ED69724E1ADADE857E86EB5C3A121BCD147943203C8 DUP6 MULMOD DUP6 PUSH32 0xCC57CDBB08507D62BF67A4493CC262FB6C09D557013FFF1F573F431221F8FF9 DUP4 MULMOD ADD PUSH32 0x1A3C29BC39F21BB5C466DB7D7EB6FD8F760E20013CCF912C92479882D919FD8D ADD SWAP2 POP DUP5 DUP4 DUP5 MULMOD SWAP1 POP DUP5 DUP4 DUP7 DUP4 DUP5 MULMOD MULMOD SWAP3 POP DUP5 PUSH32 0x2B9D4B4110C9AE997782E1509B1D0FDB20A7C02BBD8BEA7305462B9F8125B1E8 DUP4 MULMOD DUP6 PUSH32 0x66F6F85D6F68A85EC10345351A23A3AAF07F38AF8C952A7BCECA70BD2AF7AD5 DUP6 MULMOD ADD PUSH32 0xCCFDD906F3426E5C0986EA049B253400855D349074F5A6695C8EEABCD22E68F ADD SWAP1 POP DUP5 PUSH32 0x1274E649A32ED355A31A6ED69724E1ADADE857E86EB5C3A121BCD147943203C8 DUP4 MULMOD DUP6 PUSH32 0xCC57CDBB08507D62BF67A4493CC262FB6C09D557013FFF1F573F431221F8FF9 DUP6 MULMOD ADD PUSH32 0x14F6BC81D9F186F62BDB475CE6C9411866A7A8A3FD065B3CE0E699B67DD9E796 ADD SWAP4 POP DUP5 DUP2 DUP3 MULMOD SWAP3 POP DUP5 DUP2 DUP7 DUP6 DUP7 MULMOD MULMOD SWAP1 POP DUP5 PUSH32 0x2B9D4B4110C9AE997782E1509B1D0FDB20A7C02BBD8BEA7305462B9F8125B1E8 DUP6 MULMOD DUP6 PUSH32 0x66F6F85D6F68A85EC10345351A23A3AAF07F38AF8C952A7BCECA70BD2AF7AD5 DUP4 MULMOD ADD PUSH32 0x962B82789FB3D129702CA70B2F6C5AACC099810C9C495C888EDEB7386B97052 ADD SWAP3 POP DUP5 PUSH32 0x1274E649A32ED355A31A6ED69724E1ADADE857E86EB5C3A121BCD147943203C8 DUP6 MULMOD DUP6 PUSH32 0xCC57CDBB08507D62BF67A4493CC262FB6C09D557013FFF1F573F431221F8FF9 DUP4 MULMOD ADD PUSH32 0x1A880AF7074D18B3BF20C79DE25127BC13284AB01EF02575AFEF0C8F6A31A86D ADD SWAP2 POP DUP5 DUP4 DUP5 MULMOD SWAP1 POP DUP5 DUP4 DUP7 DUP4 DUP5 MULMOD MULMOD SWAP3 POP DUP5 PUSH32 0x2B9D4B4110C9AE997782E1509B1D0FDB20A7C02BBD8BEA7305462B9F8125B1E8 DUP4 MULMOD DUP6 PUSH32 0x66F6F85D6F68A85EC10345351A23A3AAF07F38AF8C952A7BCECA70BD2AF7AD5 DUP6 MULMOD ADD PUSH32 0x10CBA18419A6A332CD5E77F0211C154B20AF2924FC20FF3F4C3012BB7AE9311B ADD SWAP1 POP DUP5 PUSH32 0x1274E649A32ED355A31A6ED69724E1ADADE857E86EB5C3A121BCD147943203C8 DUP4 MULMOD DUP6 PUSH32 0xCC57CDBB08507D62BF67A4493CC262FB6C09D557013FFF1F573F431221F8FF9 DUP6 MULMOD ADD PUSH32 0x57E62A9A8F89B3EBDC76BA63A9EACA8FA27B7319CAE3406756A2849F302F10D ADD SWAP4 POP DUP5 DUP2 DUP3 MULMOD SWAP3 POP DUP5 DUP2 DUP7 DUP6 DUP7 MULMOD MULMOD SWAP1 POP DUP5 PUSH32 0x2B9D4B4110C9AE997782E1509B1D0FDB20A7C02BBD8BEA7305462B9F8125B1E8 DUP6 MULMOD DUP6 PUSH32 0x66F6F85D6F68A85EC10345351A23A3AAF07F38AF8C952A7BCECA70BD2AF7AD5 DUP4 MULMOD ADD PUSH32 0x287C971DE91DC0ABD44ADF5384B4988CB961303BBF65CFF5AFA0413B44280CEE ADD SWAP3 POP DUP5 PUSH32 0x1274E649A32ED355A31A6ED69724E1ADADE857E86EB5C3A121BCD147943203C8 DUP6 MULMOD DUP6 PUSH32 0xCC57CDBB08507D62BF67A4493CC262FB6C09D557013FFF1F573F431221F8FF9 DUP4 MULMOD ADD PUSH32 0x21DF3388AF1687BBB3BCA9DA0CCA908F1E562BC46D4ABA4E6F7F7960E306891D ADD SWAP2 POP DUP5 DUP4 DUP5 MULMOD SWAP1 POP DUP5 DUP4 DUP7 DUP4 DUP5 MULMOD MULMOD SWAP3 POP DUP5 PUSH32 0x2B9D4B4110C9AE997782E1509B1D0FDB20A7C02BBD8BEA7305462B9F8125B1E8 DUP4 MULMOD DUP6 PUSH32 0x66F6F85D6F68A85EC10345351A23A3AAF07F38AF8C952A7BCECA70BD2AF7AD5 DUP6 MULMOD ADD PUSH32 0x1BE5C887D25BCE703E25CC974D0934CD789DF8F70B498FD83EFF8B560E1682B3 ADD SWAP1 POP DUP5 PUSH32 0x1274E649A32ED355A31A6ED69724E1ADADE857E86EB5C3A121BCD147943203C8 DUP4 MULMOD DUP6 PUSH32 0xCC57CDBB08507D62BF67A4493CC262FB6C09D557013FFF1F573F431221F8FF9 DUP6 MULMOD ADD PUSH32 0x268DA36F76E568FB68117175CEA2CD0DD2CB5D42FDA5ACEA48D59C2706A0D5C1 ADD SWAP4 POP DUP5 DUP2 DUP3 MULMOD SWAP3 POP DUP5 DUP2 DUP7 DUP6 DUP7 MULMOD MULMOD SWAP1 POP DUP5 PUSH32 0x2B9D4B4110C9AE997782E1509B1D0FDB20A7C02BBD8BEA7305462B9F8125B1E8 DUP6 MULMOD DUP6 PUSH32 0x66F6F85D6F68A85EC10345351A23A3AAF07F38AF8C952A7BCECA70BD2AF7AD5 DUP4 MULMOD ADD PUSH32 0xE17AB091F6EAE50C609BEAF5510ECECC5D8BB74135EBD05BD06460CC26A5ED6 ADD SWAP3 POP DUP5 PUSH32 0x1274E649A32ED355A31A6ED69724E1ADADE857E86EB5C3A121BCD147943203C8 DUP6 MULMOD DUP6 PUSH32 0xCC57CDBB08507D62BF67A4493CC262FB6C09D557013FFF1F573F431221F8FF9 DUP4 MULMOD ADD PUSH32 0x4D727E728FFA0A67AEE535AB074A43091EF62D8CF83D270040F5CAA1F62AF40 ADD SWAP2 POP DUP5 DUP4 DUP5 MULMOD SWAP1 POP DUP5 DUP4 DUP7 DUP4 DUP5 MULMOD MULMOD SWAP3 POP DUP5 PUSH32 0x2B9D4B4110C9AE997782E1509B1D0FDB20A7C02BBD8BEA7305462B9F8125B1E8 DUP4 MULMOD DUP6 PUSH32 0x66F6F85D6F68A85EC10345351A23A3AAF07F38AF8C952A7BCECA70BD2AF7AD5 DUP6 MULMOD ADD PUSH32 0xDDBD7BF9C29341581B549762BC022ED33702AC10F1BFD862B15417D7E39CA6E ADD SWAP1 POP DUP5 PUSH32 0x1274E649A32ED355A31A6ED69724E1ADADE857E86EB5C3A121BCD147943203C8 DUP4 MULMOD DUP6 PUSH32 0xCC57CDBB08507D62BF67A4493CC262FB6C09D557013FFF1F573F431221F8FF9 DUP6 MULMOD ADD PUSH32 0x2790EB3351621752768162E82989C6C234F5B0D1D3AF9B588A29C49C8789654B ADD SWAP4 POP DUP5 DUP2 DUP3 MULMOD SWAP3 POP DUP5 DUP2 DUP7 DUP6 DUP7 MULMOD MULMOD SWAP1 POP DUP5 PUSH32 0x2B9D4B4110C9AE997782E1509B1D0FDB20A7C02BBD8BEA7305462B9F8125B1E8 DUP6 MULMOD DUP6 PUSH32 0x66F6F85D6F68A85EC10345351A23A3AAF07F38AF8C952A7BCECA70BD2AF7AD5 DUP4 MULMOD ADD PUSH32 0x1E457C601A63B73E4471950193D8A570395F3D9AB8B2FD0984B764206142F9E9 ADD SWAP3 POP DUP5 PUSH32 0x1274E649A32ED355A31A6ED69724E1ADADE857E86EB5C3A121BCD147943203C8 DUP6 MULMOD DUP6 PUSH32 0xCC57CDBB08507D62BF67A4493CC262FB6C09D557013FFF1F573F431221F8FF9 DUP4 MULMOD ADD PUSH32 0x21AE64301DCA9625638D6AB2BBE7135FFA90ECD0C43FF91FC4C686FC46E091B0 ADD SWAP2 POP DUP5 DUP4 DUP5 MULMOD SWAP1 POP DUP5 DUP4 DUP7 DUP4 DUP5 MULMOD MULMOD SWAP3 POP DUP5 PUSH32 0x2B9D4B4110C9AE997782E1509B1D0FDB20A7C02BBD8BEA7305462B9F8125B1E8 DUP4 MULMOD DUP6 PUSH32 0x66F6F85D6F68A85EC10345351A23A3AAF07F38AF8C952A7BCECA70BD2AF7AD5 DUP6 MULMOD ADD PUSH32 0x379F63C8CE3468D4DA293166F494928854BE9E3432E09555858534EED8D350B ADD SWAP1 POP DUP5 PUSH32 0x1274E649A32ED355A31A6ED69724E1ADADE857E86EB5C3A121BCD147943203C8 DUP4 MULMOD DUP6 PUSH32 0xCC57CDBB08507D62BF67A4493CC262FB6C09D557013FFF1F573F431221F8FF9 DUP6 MULMOD ADD PUSH31 0x2D56420359D0266A744A080809E054CA0E4921A46686AC8C9F58A324C35049 ADD SWAP4 POP DUP5 DUP2 DUP3 MULMOD SWAP3 POP DUP5 DUP2 DUP7 DUP6 DUP7 MULMOD MULMOD SWAP1 POP DUP5 PUSH32 0x2B9D4B4110C9AE997782E1509B1D0FDB20A7C02BBD8BEA7305462B9F8125B1E8 DUP6 MULMOD DUP6 PUSH32 0x66F6F85D6F68A85EC10345351A23A3AAF07F38AF8C952A7BCECA70BD2AF7AD5 DUP4 MULMOD ADD PUSH32 0x123158E5965B5D9B1D68B3CD32E10BBEDA8D62459E21F4090FC2C5AF963515A6 ADD SWAP3 POP DUP5 PUSH32 0x1274E649A32ED355A31A6ED69724E1ADADE857E86EB5C3A121BCD147943203C8 DUP6 MULMOD DUP6 PUSH32 0xCC57CDBB08507D62BF67A4493CC262FB6C09D557013FFF1F573F431221F8FF9 DUP4 MULMOD ADD PUSH32 0xBE29FC40847A941661D14BBF6CBE0420FBB2B6F52836D4E60C80EB49CAD9EC1 ADD SWAP2 POP DUP5 DUP4 DUP5 MULMOD SWAP1 POP DUP5 DUP4 DUP7 DUP4 DUP5 MULMOD MULMOD SWAP3 POP DUP5 PUSH32 0x2B9D4B4110C9AE997782E1509B1D0FDB20A7C02BBD8BEA7305462B9F8125B1E8 DUP4 MULMOD DUP6 PUSH32 0x66F6F85D6F68A85EC10345351A23A3AAF07F38AF8C952A7BCECA70BD2AF7AD5 DUP6 MULMOD ADD PUSH32 0x1AC96991DEC2BB0557716142015A453C36DB9D859CAD5F9A233802F24FDF4C1A ADD SWAP1 POP DUP5 PUSH32 0x1274E649A32ED355A31A6ED69724E1ADADE857E86EB5C3A121BCD147943203C8 DUP4 MULMOD DUP6 PUSH32 0xCC57CDBB08507D62BF67A4493CC262FB6C09D557013FFF1F573F431221F8FF9 DUP6 MULMOD ADD PUSH32 0x1596443F763DBCC25F4964FC61D23B3E5E12C9FA97F18A9251CA3355BCB0627E ADD SWAP4 POP DUP5 DUP2 DUP3 MULMOD SWAP3 POP DUP5 DUP2 DUP7 DUP6 DUP7 MULMOD MULMOD SWAP1 POP DUP5 PUSH32 0x2B9D4B4110C9AE997782E1509B1D0FDB20A7C02BBD8BEA7305462B9F8125B1E8 DUP6 MULMOD DUP6 PUSH32 0x66F6F85D6F68A85EC10345351A23A3AAF07F38AF8C952A7BCECA70BD2AF7AD5 DUP4 MULMOD ADD PUSH32 0x12E0BCD3654BDFA76B2861D4EC3AEAE0F1857D9F17E715AED6D049EAE3BA3212 ADD SWAP3 POP DUP5 PUSH32 0x1274E649A32ED355A31A6ED69724E1ADADE857E86EB5C3A121BCD147943203C8 DUP6 MULMOD DUP6 PUSH32 0xCC57CDBB08507D62BF67A4493CC262FB6C09D557013FFF1F573F431221F8FF9 DUP4 MULMOD ADD PUSH32 0xFC92B4F1BBEA82B9EA73D4AF9AF2A50CEABAC7F37154B1904E6C76C7CF964BA ADD SWAP2 POP DUP5 DUP4 DUP5 MULMOD SWAP1 POP DUP5 DUP4 DUP7 DUP4 DUP5 MULMOD MULMOD SWAP3 POP DUP5 PUSH32 0x2B9D4B4110C9AE997782E1509B1D0FDB20A7C02BBD8BEA7305462B9F8125B1E8 DUP4 MULMOD DUP6 PUSH32 0x66F6F85D6F68A85EC10345351A23A3AAF07F38AF8C952A7BCECA70BD2AF7AD5 DUP6 MULMOD ADD PUSH32 0x1F9C0B1610446442D6F2E592A8013F40B14F7C7722236F4F9C7E965233872762 ADD SWAP1 POP DUP5 PUSH32 0x1274E649A32ED355A31A6ED69724E1ADADE857E86EB5C3A121BCD147943203C8 DUP4 MULMOD DUP6 PUSH32 0xCC57CDBB08507D62BF67A4493CC262FB6C09D557013FFF1F573F431221F8FF9 DUP6 MULMOD ADD PUSH32 0xEBD74244AE72675F8CDE06157A782F4050D914DA38B4C058D159F643DBBF4D3 ADD SWAP4 POP DUP5 DUP2 DUP3 MULMOD SWAP3 POP DUP5 DUP2 DUP7 DUP6 DUP7 MULMOD MULMOD SWAP1 POP DUP5 PUSH32 0x2B9D4B4110C9AE997782E1509B1D0FDB20A7C02BBD8BEA7305462B9F8125B1E8 DUP6 MULMOD DUP6 PUSH32 0x66F6F85D6F68A85EC10345351A23A3AAF07F38AF8C952A7BCECA70BD2AF7AD5 DUP4 MULMOD ADD PUSH32 0x2CB7F0ED39E16E9F69A9FAFD4AB951C03B0671E97346EE397A839839DCCFC6D1 ADD SWAP3 POP DUP5 PUSH32 0x1274E649A32ED355A31A6ED69724E1ADADE857E86EB5C3A121BCD147943203C8 DUP6 MULMOD DUP6 PUSH32 0xCC57CDBB08507D62BF67A4493CC262FB6C09D557013FFF1F573F431221F8FF9 DUP4 MULMOD ADD PUSH32 0x1A9D6E2ECFF022CC5605443EE41BAB20CE761D0514CE526690C72BCA7352D9BF ADD SWAP2 POP DUP5 DUP4 DUP5 MULMOD SWAP1 POP DUP5 DUP4 DUP7 DUP4 DUP5 MULMOD MULMOD SWAP3 POP DUP5 PUSH32 0x2B9D4B4110C9AE997782E1509B1D0FDB20A7C02BBD8BEA7305462B9F8125B1E8 DUP4 MULMOD DUP6 PUSH32 0x66F6F85D6F68A85EC10345351A23A3AAF07F38AF8C952A7BCECA70BD2AF7AD5 DUP6 MULMOD ADD PUSH32 0x2A115439607F335A5EA83C3BC44A9331D0C13326A9A7BA3087DA182D648EC72F ADD SWAP1 POP DUP5 PUSH32 0x1274E649A32ED355A31A6ED69724E1ADADE857E86EB5C3A121BCD147943203C8 DUP4 MULMOD DUP6 PUSH32 0xCC57CDBB08507D62BF67A4493CC262FB6C09D557013FFF1F573F431221F8FF9 DUP6 MULMOD ADD PUSH32 0x23F9B6529B5D040D15B8FA7AEE3E3410E738B56305CD44F29535C115C5A4C060 ADD SWAP4 POP DUP5 DUP2 DUP3 MULMOD SWAP3 POP DUP5 DUP2 DUP7 DUP6 DUP7 MULMOD MULMOD SWAP1 POP DUP5 PUSH32 0x2B9D4B4110C9AE997782E1509B1D0FDB20A7C02BBD8BEA7305462B9F8125B1E8 DUP6 MULMOD DUP6 PUSH32 0x66F6F85D6F68A85EC10345351A23A3AAF07F38AF8C952A7BCECA70BD2AF7AD5 DUP4 MULMOD ADD PUSH32 0x5872C16DB0F72A2249AC6BA484BB9C3A3CE97C16D58B68B260EB939F0E6E8A7 ADD SWAP3 POP DUP5 PUSH32 0x1274E649A32ED355A31A6ED69724E1ADADE857E86EB5C3A121BCD147943203C8 DUP6 MULMOD DUP6 PUSH32 0xCC57CDBB08507D62BF67A4493CC262FB6C09D557013FFF1F573F431221F8FF9 DUP4 MULMOD ADD PUSH32 0x1300BDEE08BB7824CA20FB80118075F40219B6151D55B5C52B624A7CDEDDF6A7 ADD SWAP2 POP DUP5 DUP4 DUP5 MULMOD SWAP1 POP DUP5 DUP4 DUP7 DUP4 DUP5 MULMOD MULMOD SWAP3 POP DUP5 PUSH32 0x2B9D4B4110C9AE997782E1509B1D0FDB20A7C02BBD8BEA7305462B9F8125B1E8 DUP4 MULMOD DUP6 PUSH32 0x66F6F85D6F68A85EC10345351A23A3AAF07F38AF8C952A7BCECA70BD2AF7AD5 DUP6 MULMOD ADD PUSH32 0x19B9B63D2F108E17E63817863A8F6C288D7AD29916D98CB1072E4E7B7D52B376 ADD SWAP1 POP DUP5 PUSH32 0x1274E649A32ED355A31A6ED69724E1ADADE857E86EB5C3A121BCD147943203C8 DUP4 MULMOD DUP6 PUSH32 0xCC57CDBB08507D62BF67A4493CC262FB6C09D557013FFF1F573F431221F8FF9 DUP6 MULMOD ADD PUSH32 0x15BEE1357E3C015B5BDA237668522F613D1C88726B5EC4224A20128481B4F7F ADD SWAP4 POP DUP5 DUP2 DUP3 MULMOD SWAP3 POP DUP5 DUP2 DUP7 DUP6 DUP7 MULMOD MULMOD SWAP1 POP DUP5 PUSH32 0x2B9D4B4110C9AE997782E1509B1D0FDB20A7C02BBD8BEA7305462B9F8125B1E8 DUP6 MULMOD DUP6 PUSH32 0x66F6F85D6F68A85EC10345351A23A3AAF07F38AF8C952A7BCECA70BD2AF7AD5 DUP4 MULMOD ADD PUSH32 0x2953736E94BB6B9F1B9707A4F1615E4EFE1E1CE4BAB218CBEA92C785B128FFD1 ADD SWAP3 POP DUP5 PUSH32 0x1274E649A32ED355A31A6ED69724E1ADADE857E86EB5C3A121BCD147943203C8 DUP6 MULMOD DUP6 PUSH32 0xCC57CDBB08507D62BF67A4493CC262FB6C09D557013FFF1F573F431221F8FF9 DUP4 MULMOD ADD PUSH32 0xB069353BA091618862F806180C0385F851B98D372B45F544CE7266ED6608DFC ADD SWAP2 POP DUP5 DUP4 DUP5 MULMOD SWAP1 POP DUP5 DUP4 DUP7 DUP4 DUP5 MULMOD MULMOD SWAP3 POP DUP5 PUSH32 0x2B9D4B4110C9AE997782E1509B1D0FDB20A7C02BBD8BEA7305462B9F8125B1E8 DUP4 MULMOD DUP6 PUSH32 0x66F6F85D6F68A85EC10345351A23A3AAF07F38AF8C952A7BCECA70BD2AF7AD5 DUP6 MULMOD ADD PUSH32 0x304F74D461CCC13115E4E0BCFB93817E55AEB7EB9306B64E4F588AC97D81F429 ADD SWAP1 POP DUP5 PUSH32 0x1274E649A32ED355A31A6ED69724E1ADADE857E86EB5C3A121BCD147943203C8 DUP4 MULMOD DUP6 PUSH32 0xCC57CDBB08507D62BF67A4493CC262FB6C09D557013FFF1F573F431221F8FF9 DUP6 MULMOD ADD PUSH32 0x15BBF146CE9BCA09E8A33F5E77DFE4F5AAD2A164A4617A4CB8EE5415CDE913FC ADD SWAP4 POP DUP5 DUP2 DUP3 MULMOD SWAP3 POP DUP5 DUP2 DUP7 DUP6 DUP7 MULMOD MULMOD SWAP1 POP DUP5 PUSH32 0x2B9D4B4110C9AE997782E1509B1D0FDB20A7C02BBD8BEA7305462B9F8125B1E8 DUP6 MULMOD DUP6 PUSH32 0x66F6F85D6F68A85EC10345351A23A3AAF07F38AF8C952A7BCECA70BD2AF7AD5 DUP4 MULMOD ADD PUSH32 0xAB4DFE0C2742CDE44901031487964ED9B8F4B850405C10CA9FF23859572C8C6 ADD SWAP3 POP DUP5 PUSH32 0x1274E649A32ED355A31A6ED69724E1ADADE857E86EB5C3A121BCD147943203C8 DUP6 MULMOD DUP6 PUSH32 0xCC57CDBB08507D62BF67A4493CC262FB6C09D557013FFF1F573F431221F8FF9 DUP4 MULMOD ADD PUSH32 0xE32DB320A044E3197F45F7649A19675EF5EEDFEA546DEA9251DE39F9639779A ADD SWAP2 POP DUP5 DUP4 DUP5 MULMOD SWAP1 POP DUP5 DUP4 DUP7 DUP4 DUP5 MULMOD MULMOD SWAP3 POP DUP5 PUSH32 0x2B9D4B4110C9AE997782E1509B1D0FDB20A7C02BBD8BEA7305462B9F8125B1E8 DUP4 MULMOD DUP6 PUSH32 0x66F6F85D6F68A85EC10345351A23A3AAF07F38AF8C952A7BCECA70BD2AF7AD5 DUP6 MULMOD ADD PUSH32 0xA1756AA1F378CA4B27635A78B6888E66797733A82774896A3078EFA516DA016 ADD SWAP1 POP DUP5 PUSH32 0x1274E649A32ED355A31A6ED69724E1ADADE857E86EB5C3A121BCD147943203C8 DUP4 MULMOD DUP6 PUSH32 0xCC57CDBB08507D62BF67A4493CC262FB6C09D557013FFF1F573F431221F8FF9 DUP6 MULMOD ADD PUSH32 0x44C4A33B10F693447FD17177F952EF895E61D328F85EFA94254D6A2A25D93EF ADD SWAP4 POP DUP5 DUP2 DUP3 MULMOD SWAP3 POP DUP5 DUP2 DUP7 DUP6 DUP7 MULMOD MULMOD SWAP1 POP DUP5 PUSH32 0x2B9D4B4110C9AE997782E1509B1D0FDB20A7C02BBD8BEA7305462B9F8125B1E8 DUP6 MULMOD DUP6 PUSH32 0x66F6F85D6F68A85EC10345351A23A3AAF07F38AF8C952A7BCECA70BD2AF7AD5 DUP4 MULMOD ADD PUSH32 0x2ED3611B725B8A70BE655B537F66F700FE0879D79A496891D37B07B5466C4B8B ADD SWAP3 POP DUP5 PUSH32 0x1274E649A32ED355A31A6ED69724E1ADADE857E86EB5C3A121BCD147943203C8 DUP6 MULMOD DUP6 PUSH32 0xCC57CDBB08507D62BF67A4493CC262FB6C09D557013FFF1F573F431221F8FF9 DUP4 MULMOD ADD PUSH32 0x1F9BA4E8BAB7CE42C8ECC3D722AA2E0EADFDEB9CFDD347B5D8339EA7120858AA ADD SWAP2 POP DUP5 DUP4 DUP5 MULMOD SWAP1 POP DUP5 DUP4 DUP7 DUP4 DUP5 MULMOD MULMOD SWAP3 POP DUP5 PUSH32 0x2B9D4B4110C9AE997782E1509B1D0FDB20A7C02BBD8BEA7305462B9F8125B1E8 DUP4 MULMOD DUP6 PUSH32 0x66F6F85D6F68A85EC10345351A23A3AAF07F38AF8C952A7BCECA70BD2AF7AD5 DUP6 MULMOD ADD PUSH32 0x1B233043052E8C288F7EE907A84E518AA38E82AC4502066DB74056F865C5D3DA ADD SWAP1 POP DUP5 PUSH32 0x1274E649A32ED355A31A6ED69724E1ADADE857E86EB5C3A121BCD147943203C8 DUP4 MULMOD DUP6 PUSH32 0xCC57CDBB08507D62BF67A4493CC262FB6C09D557013FFF1F573F431221F8FF9 DUP6 MULMOD ADD PUSH32 0x2431E1CC164BB8D074031AB72BD55B4C902053BFC0F14DB0CA2F97B020875954 ADD SWAP4 POP DUP5 DUP2 DUP3 MULMOD SWAP3 POP DUP5 DUP2 DUP7 DUP6 DUP7 MULMOD MULMOD SWAP1 POP DUP5 PUSH32 0x2B9D4B4110C9AE997782E1509B1D0FDB20A7C02BBD8BEA7305462B9F8125B1E8 DUP6 MULMOD DUP6 PUSH32 0x66F6F85D6F68A85EC10345351A23A3AAF07F38AF8C952A7BCECA70BD2AF7AD5 DUP4 MULMOD ADD PUSH32 0x82F934C91F5AAC330CD6953A0A7DB45A13E322097583319A791F273965801FD ADD SWAP3 POP DUP5 PUSH32 0x1274E649A32ED355A31A6ED69724E1ADADE857E86EB5C3A121BCD147943203C8 DUP6 MULMOD DUP6 PUSH32 0xCC57CDBB08507D62BF67A4493CC262FB6C09D557013FFF1F573F431221F8FF9 DUP4 MULMOD ADD PUSH32 0x2B9A0A223E7538B0A34BE074315542A3C77245E2AE7CBE999AD6BB930C48997C ADD SWAP2 POP DUP5 DUP4 DUP5 MULMOD SWAP1 POP DUP5 DUP4 DUP7 DUP4 DUP5 MULMOD MULMOD SWAP3 POP DUP5 PUSH32 0x2B9D4B4110C9AE997782E1509B1D0FDB20A7C02BBD8BEA7305462B9F8125B1E8 DUP4 MULMOD DUP6 PUSH32 0x66F6F85D6F68A85EC10345351A23A3AAF07F38AF8C952A7BCECA70BD2AF7AD5 DUP6 MULMOD ADD PUSH32 0xE1CD91EDD2CFA2CCEB85483B887A9BE8164163E75A8A00EB0B589CC70214E7D ADD SWAP1 POP DUP5 PUSH32 0x1274E649A32ED355A31A6ED69724E1ADADE857E86EB5C3A121BCD147943203C8 DUP4 MULMOD DUP6 PUSH32 0xCC57CDBB08507D62BF67A4493CC262FB6C09D557013FFF1F573F431221F8FF9 DUP6 MULMOD ADD PUSH32 0x2E1EAC0F2BFDFD63C951F61477E3698999774F19854D00F588D324601CEBE2F9 ADD SWAP4 POP DUP5 DUP2 DUP3 MULMOD SWAP3 POP DUP5 DUP2 DUP7 DUP6 DUP7 MULMOD MULMOD SWAP1 POP DUP5 PUSH32 0x2B9D4B4110C9AE997782E1509B1D0FDB20A7C02BBD8BEA7305462B9F8125B1E8 DUP6 MULMOD DUP6 PUSH32 0x66F6F85D6F68A85EC10345351A23A3AAF07F38AF8C952A7BCECA70BD2AF7AD5 DUP4 MULMOD ADD PUSH32 0xCBFA95F37FB74060C76158E769D6D157345784D8EFDB33C23D748115B500B83 ADD SWAP3 POP DUP5 PUSH32 0x1274E649A32ED355A31A6ED69724E1ADADE857E86EB5C3A121BCD147943203C8 DUP6 MULMOD DUP6 PUSH32 0xCC57CDBB08507D62BF67A4493CC262FB6C09D557013FFF1F573F431221F8FF9 DUP4 MULMOD ADD PUSH32 0x8F05B3BE923ED44D65AD49D8A61E9A676D991E3A77513D9980C232DFA4A4F84 ADD SWAP2 POP DUP5 DUP4 DUP5 MULMOD SWAP1 POP DUP5 DUP4 DUP7 DUP4 DUP5 MULMOD MULMOD SWAP3 POP DUP5 PUSH32 0x2B9D4B4110C9AE997782E1509B1D0FDB20A7C02BBD8BEA7305462B9F8125B1E8 DUP4 MULMOD DUP6 PUSH32 0x66F6F85D6F68A85EC10345351A23A3AAF07F38AF8C952A7BCECA70BD2AF7AD5 DUP6 MULMOD ADD PUSH32 0x22719E2A070BCD0852BF8E21984D0443E7284925DC0758A325A2DD510C047EF6 ADD SWAP1 POP DUP5 PUSH32 0x1274E649A32ED355A31A6ED69724E1ADADE857E86EB5C3A121BCD147943203C8 DUP4 MULMOD DUP6 PUSH32 0xCC57CDBB08507D62BF67A4493CC262FB6C09D557013FFF1F573F431221F8FF9 DUP6 MULMOD ADD PUSH32 0x41F596A9EE1CB2BC060F7FCC3A1AB4C7BDBF036119982C0F41F62B2F26830C0 ADD SWAP4 POP DUP5 DUP2 DUP3 MULMOD SWAP3 POP DUP5 DUP2 DUP7 DUP6 DUP7 MULMOD MULMOD SWAP1 POP DUP5 PUSH32 0x2B9D4B4110C9AE997782E1509B1D0FDB20A7C02BBD8BEA7305462B9F8125B1E8 DUP6 MULMOD DUP6 PUSH32 0x66F6F85D6F68A85EC10345351A23A3AAF07F38AF8C952A7BCECA70BD2AF7AD5 DUP4 MULMOD ADD PUSH32 0x233FD35DE1BE520A87628EB06F6B1D4C021BE1C2D0DC464A19FCDD0986B10F89 ADD SWAP3 POP DUP5 PUSH32 0x1274E649A32ED355A31A6ED69724E1ADADE857E86EB5C3A121BCD147943203C8 DUP6 MULMOD DUP6 PUSH32 0xCC57CDBB08507D62BF67A4493CC262FB6C09D557013FFF1F573F431221F8FF9 DUP4 MULMOD ADD PUSH32 0x524B46D1AA87A5E4325E0A423EBC810D31E078AA1B4707EEFCB453C61C9C267 ADD SWAP2 POP DUP5 DUP4 DUP5 MULMOD SWAP1 POP DUP5 DUP4 DUP7 DUP4 DUP5 MULMOD MULMOD SWAP3 POP DUP5 PUSH32 0x2B9D4B4110C9AE997782E1509B1D0FDB20A7C02BBD8BEA7305462B9F8125B1E8 DUP4 MULMOD DUP6 PUSH32 0x66F6F85D6F68A85EC10345351A23A3AAF07F38AF8C952A7BCECA70BD2AF7AD5 DUP6 MULMOD ADD PUSH32 0x2C34F424C81E5716CE47FCAC894B85824227BB954B0F3199CC4486237C515211 ADD SWAP1 POP DUP5 PUSH32 0x1274E649A32ED355A31A6ED69724E1ADADE857E86EB5C3A121BCD147943203C8 DUP4 MULMOD DUP6 PUSH32 0xCC57CDBB08507D62BF67A4493CC262FB6C09D557013FFF1F573F431221F8FF9 DUP6 MULMOD ADD PUSH32 0xB5F2A4B63387819207EFFC2B5541FB72DD2025B5457CC97F33010327DE4915E ADD SWAP4 POP DUP5 DUP2 DUP3 MULMOD SWAP3 POP DUP5 DUP2 DUP7 DUP6 DUP7 MULMOD MULMOD SWAP1 POP DUP5 PUSH32 0x2B9D4B4110C9AE997782E1509B1D0FDB20A7C02BBD8BEA7305462B9F8125B1E8 DUP6 MULMOD DUP6 PUSH32 0x66F6F85D6F68A85EC10345351A23A3AAF07F38AF8C952A7BCECA70BD2AF7AD5 DUP4 MULMOD ADD PUSH32 0x22207856082CCC54C5B72FE439D2CFD6C17435D2F57AF6CEAEFAC41FE05C659F ADD SWAP3 POP DUP5 PUSH32 0x1274E649A32ED355A31A6ED69724E1ADADE857E86EB5C3A121BCD147943203C8 DUP6 MULMOD DUP6 PUSH32 0xCC57CDBB08507D62BF67A4493CC262FB6C09D557013FFF1F573F431221F8FF9 DUP4 MULMOD ADD PUSH32 0x24D57A8BF5DA63FE4E24159B7F8950B5CDFB210194CAF79F27854048CE2C8171 ADD SWAP2 POP DUP5 DUP4 DUP5 MULMOD SWAP1 POP DUP5 DUP4 DUP7 DUP4 DUP5 MULMOD MULMOD SWAP3 POP DUP5 PUSH32 0x2B9D4B4110C9AE997782E1509B1D0FDB20A7C02BBD8BEA7305462B9F8125B1E8 DUP4 MULMOD DUP6 PUSH32 0x66F6F85D6F68A85EC10345351A23A3AAF07F38AF8C952A7BCECA70BD2AF7AD5 DUP6 MULMOD ADD PUSH32 0xAFAB181FDD5E0583B371D75BD693F98374AD7097BB01A8573919BB23B79396E ADD SWAP1 POP DUP5 PUSH32 0x1274E649A32ED355A31A6ED69724E1ADADE857E86EB5C3A121BCD147943203C8 DUP4 MULMOD DUP6 PUSH32 0xCC57CDBB08507D62BF67A4493CC262FB6C09D557013FFF1F573F431221F8FF9 DUP6 MULMOD ADD PUSH32 0x2DBA9B108F208772998A52EFAC7CBD5676C0057194C16C0BF16290D62B1128EE ADD SWAP4 POP DUP5 DUP2 DUP3 MULMOD SWAP3 POP DUP5 DUP2 DUP7 DUP6 DUP7 MULMOD MULMOD SWAP1 POP DUP5 PUSH32 0x2B9D4B4110C9AE997782E1509B1D0FDB20A7C02BBD8BEA7305462B9F8125B1E8 DUP6 MULMOD DUP6 PUSH32 0x66F6F85D6F68A85EC10345351A23A3AAF07F38AF8C952A7BCECA70BD2AF7AD5 DUP4 MULMOD ADD PUSH32 0x26349B66EDB8B16F56F881C788F53F83CBB83DE0BD592B255AFF13E6BCE420B3 ADD SWAP3 POP DUP5 PUSH32 0x1274E649A32ED355A31A6ED69724E1ADADE857E86EB5C3A121BCD147943203C8 DUP6 MULMOD DUP6 PUSH32 0xCC57CDBB08507D62BF67A4493CC262FB6C09D557013FFF1F573F431221F8FF9 DUP4 MULMOD ADD PUSH32 0x25AF7CE0E5E10357685E95F92339753AD81A56D28ECC193B235288A3E6F137DB ADD SWAP2 POP DUP5 DUP4 DUP5 MULMOD SWAP1 POP DUP5 DUP4 DUP7 DUP4 DUP5 MULMOD MULMOD SWAP3 POP DUP5 PUSH32 0x2B9D4B4110C9AE997782E1509B1D0FDB20A7C02BBD8BEA7305462B9F8125B1E8 DUP4 MULMOD DUP6 PUSH32 0x66F6F85D6F68A85EC10345351A23A3AAF07F38AF8C952A7BCECA70BD2AF7AD5 DUP6 MULMOD ADD PUSH32 0x25B4CE7BD2294390C094D6A55EDD68B970EED7AAE88B2BFF1F7C0187FE35011F ADD SWAP1 POP DUP5 PUSH32 0x1274E649A32ED355A31A6ED69724E1ADADE857E86EB5C3A121BCD147943203C8 DUP4 MULMOD DUP6 PUSH32 0xCC57CDBB08507D62BF67A4493CC262FB6C09D557013FFF1F573F431221F8FF9 DUP6 MULMOD ADD PUSH32 0x22C543F10F6C89EC387E53F1908A88E5DE9CEF28EBDF30B18CB9D54C1E02B631 ADD SWAP4 POP DUP5 DUP2 DUP3 MULMOD SWAP3 POP DUP5 DUP2 DUP7 DUP6 DUP7 MULMOD MULMOD SWAP1 POP DUP5 PUSH32 0x2B9D4B4110C9AE997782E1509B1D0FDB20A7C02BBD8BEA7305462B9F8125B1E8 DUP6 MULMOD DUP6 PUSH32 0x66F6F85D6F68A85EC10345351A23A3AAF07F38AF8C952A7BCECA70BD2AF7AD5 DUP4 MULMOD ADD PUSH32 0x236F93E7789C4724FC7908A9F191E1E425E906A919D7A34DF668E74882F87A9 ADD SWAP3 POP DUP5 PUSH32 0x1274E649A32ED355A31A6ED69724E1ADADE857E86EB5C3A121BCD147943203C8 DUP6 MULMOD DUP6 PUSH32 0xCC57CDBB08507D62BF67A4493CC262FB6C09D557013FFF1F573F431221F8FF9 DUP4 MULMOD ADD PUSH32 0x29350B401166CA010E7D27E37D05DA99652BDAE114EB01659CB497AF980C4B52 ADD SWAP2 POP DUP5 DUP4 DUP5 MULMOD SWAP1 POP DUP5 DUP4 DUP7 DUP4 DUP5 MULMOD MULMOD SWAP3 POP DUP5 PUSH32 0x2B9D4B4110C9AE997782E1509B1D0FDB20A7C02BBD8BEA7305462B9F8125B1E8 DUP4 MULMOD DUP6 PUSH32 0x66F6F85D6F68A85EC10345351A23A3AAF07F38AF8C952A7BCECA70BD2AF7AD5 DUP6 MULMOD ADD PUSH32 0xEED787D65820D3F6BD31BBAB547F75A65EDB75D844EBB89EE1260916652363F ADD SWAP1 POP DUP5 PUSH32 0x1274E649A32ED355A31A6ED69724E1ADADE857E86EB5C3A121BCD147943203C8 DUP4 MULMOD DUP6 PUSH32 0xCC57CDBB08507D62BF67A4493CC262FB6C09D557013FFF1F573F431221F8FF9 DUP6 MULMOD ADD PUSH32 0x7CC1170F13B46F2036A753F520B3291FDCD0E99BD94297D1906F656F4DE6FAD ADD SWAP4 POP DUP5 DUP2 DUP3 MULMOD SWAP3 POP DUP5 DUP2 DUP7 DUP6 DUP7 MULMOD MULMOD SWAP1 POP DUP5 PUSH32 0x2B9D4B4110C9AE997782E1509B1D0FDB20A7C02BBD8BEA7305462B9F8125B1E8 DUP6 MULMOD DUP6 PUSH32 0x66F6F85D6F68A85EC10345351A23A3AAF07F38AF8C952A7BCECA70BD2AF7AD5 DUP4 MULMOD ADD PUSH32 0x22B939233B1D7205F49BCF613A3D30B1908786D7F9F5D10C2059435689E8ACEA ADD SWAP3 POP DUP5 PUSH32 0x1274E649A32ED355A31A6ED69724E1ADADE857E86EB5C3A121BCD147943203C8 DUP6 MULMOD DUP6 PUSH32 0xCC57CDBB08507D62BF67A4493CC262FB6C09D557013FFF1F573F431221F8FF9 DUP4 MULMOD ADD PUSH32 0x1451762A0AAB81C8AAD1DC8BC33E870740F083A5AA85438ADD650ACE60AE5A6 ADD SWAP2 POP DUP5 DUP4 DUP5 MULMOD SWAP1 POP DUP5 DUP4 DUP7 DUP4 DUP5 MULMOD MULMOD SWAP3 POP DUP5 PUSH32 0x2B9D4B4110C9AE997782E1509B1D0FDB20A7C02BBD8BEA7305462B9F8125B1E8 DUP4 MULMOD DUP6 PUSH32 0x66F6F85D6F68A85EC10345351A23A3AAF07F38AF8C952A7BCECA70BD2AF7AD5 DUP6 MULMOD ADD PUSH32 0x23506BB5D8727D4461FABF1025D46D1FE32EAA61DEC7DA57E704FEC0892FCE89 ADD SWAP1 POP DUP5 PUSH32 0x1274E649A32ED355A31A6ED69724E1ADADE857E86EB5C3A121BCD147943203C8 DUP4 MULMOD DUP6 PUSH32 0xCC57CDBB08507D62BF67A4493CC262FB6C09D557013FFF1F573F431221F8FF9 DUP6 MULMOD ADD PUSH32 0x2E484C44E838AEA0BAC06AE3F71BDD092A3709531E1EFEA97F8BD68907355522 ADD SWAP4 POP DUP5 DUP2 DUP3 MULMOD SWAP3 POP DUP5 DUP2 DUP7 DUP6 DUP7 MULMOD MULMOD SWAP1 POP DUP5 PUSH32 0x2B9D4B4110C9AE997782E1509B1D0FDB20A7C02BBD8BEA7305462B9F8125B1E8 DUP6 MULMOD DUP6 PUSH32 0x66F6F85D6F68A85EC10345351A23A3AAF07F38AF8C952A7BCECA70BD2AF7AD5 DUP4 MULMOD ADD PUSH32 0xF4BC7D07EBAFD64379E78C50BD2E42BAF4A594545CEDC2545418DA26835B54C ADD SWAP3 POP DUP5 PUSH32 0x1274E649A32ED355A31A6ED69724E1ADADE857E86EB5C3A121BCD147943203C8 DUP6 MULMOD DUP6 PUSH32 0xCC57CDBB08507D62BF67A4493CC262FB6C09D557013FFF1F573F431221F8FF9 DUP4 MULMOD ADD PUSH32 0x1F4D3C8F6583E9E5FA76637862FAAEE851582388725DF460E620996D50D8E74E ADD SWAP2 POP DUP5 DUP4 DUP5 MULMOD SWAP1 POP DUP5 DUP4 DUP7 DUP4 DUP5 MULMOD MULMOD SWAP3 POP DUP5 PUSH32 0x2B9D4B4110C9AE997782E1509B1D0FDB20A7C02BBD8BEA7305462B9F8125B1E8 DUP4 MULMOD DUP6 PUSH32 0x66F6F85D6F68A85EC10345351A23A3AAF07F38AF8C952A7BCECA70BD2AF7AD5 DUP6 MULMOD ADD PUSH32 0x93514E0C70711F82660D07BE0E4A988FAE02ABC7B681D9153EB9BCB48FE7389 ADD SWAP1 POP DUP5 PUSH32 0x1274E649A32ED355A31A6ED69724E1ADADE857E86EB5C3A121BCD147943203C8 DUP4 MULMOD DUP6 PUSH32 0xCC57CDBB08507D62BF67A4493CC262FB6C09D557013FFF1F573F431221F8FF9 DUP6 MULMOD ADD PUSH32 0x1ADAB0C8E2B3BAD346699A2B5F3BC03643EE83ECE47228F24A58E0A347E153D8 ADD SWAP4 POP DUP5 DUP2 DUP3 MULMOD SWAP3 POP DUP5 DUP2 DUP7 DUP6 DUP7 MULMOD MULMOD SWAP1 POP DUP5 PUSH32 0x2B9D4B4110C9AE997782E1509B1D0FDB20A7C02BBD8BEA7305462B9F8125B1E8 DUP6 MULMOD DUP6 PUSH32 0x66F6F85D6F68A85EC10345351A23A3AAF07F38AF8C952A7BCECA70BD2AF7AD5 DUP4 MULMOD ADD PUSH32 0x1672B1726057D99DD14709EBB474641A378C1B94B8072BAC1A22DBEF9E80DAD2 ADD SWAP3 POP DUP5 PUSH32 0x1274E649A32ED355A31A6ED69724E1ADADE857E86EB5C3A121BCD147943203C8 DUP6 MULMOD DUP6 PUSH32 0xCC57CDBB08507D62BF67A4493CC262FB6C09D557013FFF1F573F431221F8FF9 DUP4 MULMOD ADD PUSH32 0x1DFD53D4576AF2E38F44F53FDCAB468CC5D8E2FAE0ACC4EE30D47B239B479C14 ADD SWAP2 POP DUP5 DUP4 DUP5 MULMOD SWAP1 POP DUP5 DUP4 DUP7 DUP4 DUP5 MULMOD MULMOD SWAP3 POP DUP5 PUSH32 0x2B9D4B4110C9AE997782E1509B1D0FDB20A7C02BBD8BEA7305462B9F8125B1E8 DUP4 MULMOD DUP6 PUSH32 0x66F6F85D6F68A85EC10345351A23A3AAF07F38AF8C952A7BCECA70BD2AF7AD5 DUP6 MULMOD ADD PUSH32 0xC6888A10B75B0F3A70A36263A37E17FE6D77D640F6FC3DEBC7F207753205C60 ADD SWAP1 POP DUP5 PUSH32 0x1274E649A32ED355A31A6ED69724E1ADADE857E86EB5C3A121BCD147943203C8 DUP4 MULMOD DUP6 PUSH32 0xCC57CDBB08507D62BF67A4493CC262FB6C09D557013FFF1F573F431221F8FF9 DUP6 MULMOD ADD PUSH32 0x1ADDB933A65BE77092B34A7E77D12FE8611A61E00EE6848B85091ECCA9D1E508 ADD SWAP4 POP DUP5 DUP2 DUP3 MULMOD SWAP3 POP DUP5 DUP2 DUP7 DUP6 DUP7 MULMOD MULMOD SWAP1 POP DUP5 PUSH32 0x2B9D4B4110C9AE997782E1509B1D0FDB20A7C02BBD8BEA7305462B9F8125B1E8 DUP6 MULMOD DUP6 PUSH32 0x66F6F85D6F68A85EC10345351A23A3AAF07F38AF8C952A7BCECA70BD2AF7AD5 DUP4 MULMOD ADD PUSH31 0xD7540DCD268A845C10AE18D1DE933CF638FF5425F0AFFF7935628E299D1791 ADD SWAP3 POP DUP5 PUSH32 0x1274E649A32ED355A31A6ED69724E1ADADE857E86EB5C3A121BCD147943203C8 DUP6 MULMOD DUP6 PUSH32 0xCC57CDBB08507D62BF67A4493CC262FB6C09D557013FFF1F573F431221F8FF9 DUP4 MULMOD ADD PUSH32 0x140C0E42687E9EAD01B2827A5664CA9C26FEDDE4ACD99DB1D316939D20B82C0E ADD SWAP2 POP DUP5 DUP4 DUP5 MULMOD SWAP1 POP DUP5 DUP4 DUP7 DUP4 DUP5 MULMOD MULMOD SWAP3 POP DUP5 PUSH32 0x2B9D4B4110C9AE997782E1509B1D0FDB20A7C02BBD8BEA7305462B9F8125B1E8 DUP4 MULMOD DUP6 PUSH32 0x66F6F85D6F68A85EC10345351A23A3AAF07F38AF8C952A7BCECA70BD2AF7AD5 DUP6 MULMOD ADD PUSH32 0x2F0C3A115D4317D191BA89B8D13D1806C20A0F9B24F8C5EDC091E2AE56565984 ADD SWAP1 POP DUP5 PUSH32 0x1274E649A32ED355A31A6ED69724E1ADADE857E86EB5C3A121BCD147943203C8 DUP4 MULMOD DUP6 PUSH32 0xCC57CDBB08507D62BF67A4493CC262FB6C09D557013FFF1F573F431221F8FF9 DUP6 MULMOD ADD PUSH32 0xC4EE778FF7C14553006ED220CF9C81008A0CFF670B22B82D8C538A1DC958C61 ADD SWAP4 POP DUP5 DUP2 DUP3 MULMOD SWAP3 POP DUP5 DUP2 DUP7 DUP6 DUP7 MULMOD MULMOD SWAP1 POP DUP5 PUSH32 0x2B9D4B4110C9AE997782E1509B1D0FDB20A7C02BBD8BEA7305462B9F8125B1E8 DUP6 MULMOD DUP6 PUSH32 0x66F6F85D6F68A85EC10345351A23A3AAF07F38AF8C952A7BCECA70BD2AF7AD5 DUP4 MULMOD ADD PUSH32 0x1704F2766D46F82C3693F00440CCC3609424ED26C0ACC66227C3D7485DE74C69 ADD SWAP3 POP DUP5 PUSH32 0x1274E649A32ED355A31A6ED69724E1ADADE857E86EB5C3A121BCD147943203C8 DUP6 MULMOD DUP6 PUSH32 0xCC57CDBB08507D62BF67A4493CC262FB6C09D557013FFF1F573F431221F8FF9 DUP4 MULMOD ADD PUSH32 0x2F2D19CC3EA5D78EA7A02C1B51D244ABF0769C9F8544E40239B66FE9009C3CFA ADD SWAP2 POP DUP5 DUP4 DUP5 MULMOD SWAP1 POP DUP5 DUP4 DUP7 DUP4 DUP5 MULMOD MULMOD SWAP3 POP DUP5 PUSH32 0x2B9D4B4110C9AE997782E1509B1D0FDB20A7C02BBD8BEA7305462B9F8125B1E8 DUP4 MULMOD DUP6 PUSH32 0x66F6F85D6F68A85EC10345351A23A3AAF07F38AF8C952A7BCECA70BD2AF7AD5 DUP6 MULMOD ADD PUSH32 0x1AE03853B75FCABA5053F112E2A8E8DCDD7EE6CB9CFED9C7D6C766A806FC6629 ADD SWAP1 POP DUP5 PUSH32 0x1274E649A32ED355A31A6ED69724E1ADADE857E86EB5C3A121BCD147943203C8 DUP4 MULMOD DUP6 PUSH32 0xCC57CDBB08507D62BF67A4493CC262FB6C09D557013FFF1F573F431221F8FF9 DUP6 MULMOD ADD PUSH32 0x971AABF795241DF51D131D0FA61AA5F3556921B2D6F014E4E41A86DDAF056D5 ADD SWAP4 POP DUP5 DUP2 DUP3 MULMOD SWAP3 POP DUP5 DUP2 DUP7 DUP6 DUP7 MULMOD MULMOD SWAP1 POP DUP5 DUP5 DUP6 MULMOD SWAP3 POP DUP5 DUP5 DUP7 DUP6 DUP7 MULMOD MULMOD SWAP4 POP DUP5 PUSH32 0x2B9D4B4110C9AE997782E1509B1D0FDB20A7C02BBD8BEA7305462B9F8125B1E8 DUP6 MULMOD DUP6 PUSH32 0x66F6F85D6F68A85EC10345351A23A3AAF07F38AF8C952A7BCECA70BD2AF7AD5 DUP4 MULMOD ADD PUSH32 0x1408C316E6014E1A91D4CF6B6E0DE73EDA624F8380DF1C875F5C29F7BFE2F646 ADD SWAP3 POP DUP5 PUSH32 0x1274E649A32ED355A31A6ED69724E1ADADE857E86EB5C3A121BCD147943203C8 DUP6 MULMOD DUP6 PUSH32 0xCC57CDBB08507D62BF67A4493CC262FB6C09D557013FFF1F573F431221F8FF9 DUP4 MULMOD ADD PUSH32 0x1667F3FE2EDBE850248ABE42B543093B6C89F1F773EF285341691F39822EF5BD ADD SWAP2 POP DUP5 DUP4 DUP5 MULMOD SWAP1 POP DUP5 DUP4 DUP7 DUP4 DUP5 MULMOD MULMOD SWAP3 POP DUP5 DUP3 DUP4 MULMOD SWAP1 POP DUP5 DUP3 DUP7 DUP4 DUP5 MULMOD MULMOD SWAP2 POP DUP5 PUSH32 0x2B9D4B4110C9AE997782E1509B1D0FDB20A7C02BBD8BEA7305462B9F8125B1E8 DUP4 MULMOD DUP6 PUSH32 0x66F6F85D6F68A85EC10345351A23A3AAF07F38AF8C952A7BCECA70BD2AF7AD5 DUP6 MULMOD ADD PUSH32 0x13BF7C5D0D2C4376A48B0A03557CDF915B81718409E5C133424C69576500FE37 ADD SWAP1 POP DUP5 PUSH32 0x1274E649A32ED355A31A6ED69724E1ADADE857E86EB5C3A121BCD147943203C8 DUP4 MULMOD DUP6 PUSH32 0xCC57CDBB08507D62BF67A4493CC262FB6C09D557013FFF1F573F431221F8FF9 DUP6 MULMOD ADD PUSH32 0x7620A6DFB0B6CEC3016ADF3D3533C24024B95347856B79719BC0BA743A62C2C ADD SWAP4 POP DUP5 DUP2 DUP3 MULMOD SWAP3 POP DUP5 DUP2 DUP7 DUP6 DUP7 MULMOD MULMOD SWAP1 POP DUP5 DUP5 DUP6 MULMOD SWAP3 POP DUP5 DUP5 DUP7 DUP6 DUP7 MULMOD MULMOD SWAP4 POP DUP5 PUSH32 0x2B9D4B4110C9AE997782E1509B1D0FDB20A7C02BBD8BEA7305462B9F8125B1E8 DUP6 MULMOD DUP6 PUSH32 0x66F6F85D6F68A85EC10345351A23A3AAF07F38AF8C952A7BCECA70BD2AF7AD5 DUP4 MULMOD ADD PUSH32 0x1574C7EF0C43545F36A8CA08BDBDD8B075D2959E2F322B731675DE3E1982B4D0 ADD SWAP3 POP DUP5 PUSH32 0x1274E649A32ED355A31A6ED69724E1ADADE857E86EB5C3A121BCD147943203C8 DUP6 MULMOD DUP6 PUSH32 0xCC57CDBB08507D62BF67A4493CC262FB6C09D557013FFF1F573F431221F8FF9 DUP4 MULMOD ADD PUSH32 0x269E4B5B7A2EB21AFD567970A717CEEC5BD4184571C254FDC06E03A7FF8378F0 ADD SWAP2 POP DUP5 DUP4 DUP5 MULMOD SWAP1 POP DUP5 DUP4 DUP7 DUP4 DUP5 MULMOD MULMOD SWAP3 POP DUP5 DUP3 DUP4 MULMOD SWAP1 POP DUP5 DUP3 DUP7 DUP4 DUP5 MULMOD MULMOD SWAP2 POP DUP5 DUP6 PUSH32 0x2B9D4B4110C9AE997782E1509B1D0FDB20A7C02BBD8BEA7305462B9F8125B1E8 DUP5 MULMOD DUP7 PUSH32 0x66F6F85D6F68A85EC10345351A23A3AAF07F38AF8C952A7BCECA70BD2AF7AD5 DUP7 MULMOD ADD MOD PUSH1 0x0 MSTORE PUSH1 0x20 PUSH1 0x0 RETURN JUMPDEST PUSH1 0x0 PUSH1 0x40 MLOAD SWAP1 POP SWAP1 JUMP JUMPDEST PUSH1 0x0 DUP1 REVERT JUMPDEST PUSH1 0x0 DUP1 REVERT JUMPDEST PUSH1 0x0 PUSH1 0x1F NOT PUSH1 0x1F DUP4 ADD AND SWAP1 POP SWAP2 SWAP1 POP JUMP JUMPDEST PUSH32 0x4E487B7100000000000000000000000000000000000000000000000000000000 PUSH1 0x0 MSTORE PUSH1 0x41 PUSH1 0x4 MSTORE PUSH1 0x24 PUSH1 0x0 REVERT JUMPDEST PUSH2 0x3B26 DUP3 PUSH2 0x3ADD JUMP JUMPDEST DUP2 ADD DUP2 DUP2 LT PUSH8 0xFFFFFFFFFFFFFFFF DUP3 GT OR ISZERO PUSH2 0x3B45 JUMPI PUSH2 0x3B44 PUSH2 0x3AEE JUMP JUMPDEST JUMPDEST DUP1 PUSH1 0x40 MSTORE POP POP POP JUMP JUMPDEST PUSH1 0x0 PUSH2 0x3B58 PUSH2 0x3AC9 JUMP JUMPDEST SWAP1 POP PUSH2 0x3B64 DUP3 DUP3 PUSH2 0x3B1D JUMP JUMPDEST SWAP2 SWAP1 POP JUMP JUMPDEST PUSH1 0x0 PUSH8 0xFFFFFFFFFFFFFFFF DUP3 GT ISZERO PUSH2 0x3B84 JUMPI PUSH2 0x3B83 PUSH2 0x3AEE JUMP JUMPDEST JUMPDEST PUSH1 0x20 DUP3 MUL SWAP1 POP SWAP2 SWAP1 POP JUMP JUMPDEST PUSH1 0x0 DUP1 REVERT JUMPDEST PUSH1 0x0 DUP2 SWAP1 POP SWAP2 SWAP1 POP JUMP JUMPDEST PUSH2 0x3BA7 DUP2 PUSH2 0x3B94 JUMP JUMPDEST DUP2 EQ PUSH2 0x3BB2 JUMPI PUSH1 0x0 DUP1 REVERT JUMPDEST POP JUMP JUMPDEST PUSH1 0x0 DUP2 CALLDATALOAD SWAP1 POP PUSH2 0x3BC4 DUP2 PUSH2 0x3B9E JUMP JUMPDEST SWAP3 SWAP2 POP POP JUMP JUMPDEST PUSH1 0x0 PUSH2 0x3BDD PUSH2 0x3BD8 DUP5 PUSH2 0x3B69 JUMP JUMPDEST PUSH2 0x3B4E JUMP JUMPDEST SWAP1 POP DUP1 PUSH1 0x20 DUP5 MUL DUP4 ADD DUP6 DUP2 GT ISZERO PUSH2 0x3BF7 JUMPI PUSH2 0x3BF6 PUSH2 0x3B8F JUMP JUMPDEST JUMPDEST DUP4 JUMPDEST DUP2 DUP2 LT ISZERO PUSH2 0x3C20 JUMPI DUP1 PUSH2 0x3C0C DUP9 DUP3 PUSH2 0x3BB5 JUMP JUMPDEST DUP5 MSTORE PUSH1 0x20 DUP5 ADD SWAP4 POP POP PUSH1 0x20 DUP2 ADD SWAP1 POP PUSH2 0x3BF9 JUMP JUMPDEST POP POP POP SWAP4 SWAP3 POP POP POP JUMP JUMPDEST PUSH1 0x0 DUP3 PUSH1 0x1F DUP4 ADD SLT PUSH2 0x3C3F JUMPI PUSH2 0x3C3E PUSH2 0x3AD8 JUMP JUMPDEST JUMPDEST PUSH1 0x1 PUSH2 0x3C4C DUP5 DUP3 DUP6 PUSH2 0x3BCA JUMP JUMPDEST SWAP2 POP POP SWAP3 SWAP2 POP POP JUMP JUMPDEST PUSH1 0x0 PUSH1 0x20 DUP3 DUP5 SUB SLT ISZERO PUSH2 0x3C6B JUMPI PUSH2 0x3C6A PUSH2 0x3AD3 JUMP JUMPDEST JUMPDEST PUSH1 0x0 PUSH2 0x3C79 DUP5 DUP3 DUP6 ADD PUSH2 0x3C2A JUMP JUMPDEST SWAP2 POP POP SWAP3 SWAP2 POP POP JUMP JUMPDEST PUSH2 0x3C8B DUP2 PUSH2 0x3B94 JUMP JUMPDEST DUP3 MSTORE POP POP JUMP JUMPDEST PUSH1 0x0 PUSH1 0x20 DUP3 ADD SWAP1 POP PUSH2 0x3CA6 PUSH1 0x0 DUP4 ADD DUP5 PUSH2 0x3C82 JUMP JUMPDEST SWAP3 SWAP2 POP POP JUMP INVALID LOG2 PUSH5 0x6970667358 0x22 SLT KECCAK256 0xC1 0xE8 JUMPI 0xA6 PUSH11 0x1352CF3C1372E492672C3 0xF9 PUSH15 0x5DD97F5AFB6514BE363FE02C031B64 PUSH20 0x6F6C634300081C00330000000000000000000000 "},"methodIdentifiers":{"hash(uint256[1])":"9d036e71"}}}}}