{"src/TMT.sol":{"TMT":{"abi":[{"inputs":[{"internalType":"bytes32","name":"initLeaf","type":"bytes32"}],"stateMutability":"nonpayable","type":"constructor"},{"anonymous":false,"inputs":[{"indexed":true,"internalType":"bytes32","name":"leaf","type":"bytes32"}],"name":"LeafAdded","type":"event"},{"inputs":[],"name":"MAX_LEAVES_LENGTH","outputs":[{"internalType":"uint40","name":"","type":"uint40"}],"stateMutability":"view","type":"function"},{"inputs":[],"name":"STORED_ROOT_LENGTH","outputs":[{"internalType":"uint8","name":"","type":"uint8"}],"stateMutability":"view","type":"function"},{"inputs":[{"internalType":"bytes32","name":"s","type":"bytes32"}],"name":"addLeaf","outputs":[],"stateMutability":"nonpayable","type":"function"},{"inputs":[{"internalType":"uint8","name":"depth","type":"uint8"}],"name":"depthHashes","outputs":[{"internalType":"bytes32","name":"depthHash","type":"bytes32"}],"stateMutability":"view","type":"function"},{"inputs":[{"internalType":"uint8","name":"depth","type":"uint8"}],"name":"depthLengths","outputs":[{"internalType":"uint40","name":"depthLength","type":"uint40"}],"stateMutability":"view","type":"function"},{"inputs":[{"internalType":"uint256","name":"","type":"uint256"}],"name":"last32Roots","outputs":[{"internalType":"bytes32","name":"","type":"bytes32"}],"stateMutability":"view","type":"function"},{"inputs":[],"name":"length","outputs":[{"internalType":"uint40","name":"","type":"uint40"}],"stateMutability":"view","type":"function"},{"inputs":[],"name":"root","outputs":[{"internalType":"bytes32","name":"","type":"bytes32"}],"stateMutability":"view","type":"function"},{"inputs":[],"name":"rootIndex","outputs":[{"internalType":"uint8","name":"","type":"uint8"}],"stateMutability":"view","type":"function"}],"evm":{"bytecode":{"linkReferences":{"src/lib/PoseidonHash.sol":{"PoseidonT2":[{"length":20,"start":84}],"PoseidonT3":[{"length":20,"start":1959},{"length":20,"start":2408}]}},"object":"60a060405264010000000064ffffffffff1660809064ffffffffff1681525034801561002a57600080fd5b506040516111ba3803806111ba833981810160405281019061004c919061019e565b80600081905073__$3b95fa720ec38d9edcd1ad06cd0807af45$__639d036e7160405180602001604052808460001c8152506040518263ffffffff1660e01b815260040161009a9190610280565b602060405180830381865af41580156100b7573d6000803e3d6000fd5b505050506040513d601f19601f820116820180604052508101906100db91906102c7565b60001b6022819055506001602160006101000a81548164ffffffffff021916908364ffffffffff1602179055506001602360008060ff16815260200190815260200160002060006101000a81548164ffffffffff021916908364ffffffffff16021790555080602460008060ff168152602001908152602001600020819055505050506102f4565b600080fd5b6000819050919050565b61017b81610168565b811461018657600080fd5b50565b60008151905061019881610172565b92915050565b6000602082840312156101b4576101b3610163565b5b60006101c284828501610189565b91505092915050565b600060019050919050565b600081905092915050565b6000819050919050565b6000819050919050565b6101fe816101eb565b82525050565b600061021083836101f5565b60208301905092915050565b6000602082019050919050565b610232816101cb565b61023c81846101d6565b9250610247826101e1565b8060005b8381101561027857815161025f8782610204565b965061026a8361021c565b92505060018101905061024b565b505050505050565b60006020820190506102956000830184610229565b92915050565b6102a4816101eb565b81146102af57600080fd5b50565b6000815190506102c18161029b565b92915050565b6000602082840312156102dd576102dc610163565b5b60006102eb848285016102b2565b91505092915050565b608051610ea46103166000396000818161022801526102c80152610ea46000f3fe608060405234801561001057600080fd5b50600436106100935760003560e01c8063d4c6d61f11610066578063d4c6d61f14610122578063d98b4f5e14610140578063e2ebd6e114610170578063ea949346146101a0578063ebf0c717146101bc57610093565b80631f7b6d3214610098578063296f1a9f146100b6578063529dd5ea146100e6578063807c85b414610104575b600080fd5b6100a06101da565b6040516100ad9190610924565b60405180910390f35b6100d060048036038101906100cb919061097d565b6101f1565b6040516100dd9190610924565b60405180910390f35b6100ee610215565b6040516100fb91906109b9565b60405180910390f35b61010c610226565b6040516101199190610924565b60405180910390f35b61012a61024a565b60405161013791906109b9565b60405180910390f35b61015a60048036038101906101559190610a0a565b61024f565b6040516101679190610a50565b60405180910390f35b61018a6004803603810190610185919061097d565b61026a565b6040516101979190610a50565b60405180910390f35b6101ba60048036038101906101b59190610a97565b610282565b005b6101c46102bc565b6040516101d19190610a50565b60405180910390f35b602160009054906101000a900464ffffffffff1681565b60236020528060005260406000206000915054906101000a900464ffffffffff1681565b60008054906101000a900460ff1681565b7f000000000000000000000000000000000000000000000000000000000000000081565b602081565b6001816020811061025f57600080fd5b016000915090505481565b60246020528060005260406000206000915090505481565b61028b816102c2565b50807fe031a2a9091bffbdf32f00286ac809f11de72b5b10618b213be2372da7d9257060405160405180910390a250565b60225481565b600060017f00000000000000000000000000000000000000000000000000000000000000006102f19190610af3565b64ffffffffff166021600081819054906101000a900464ffffffffff168092919061031b90610b2c565b91906101000a81548164ffffffffff021916908364ffffffffff16021790555064ffffffffff1603610382576040517f08c379a000000000000000000000000000000000000000000000000000000000815260040161037990610bb6565b60405180910390fd5b602160009054906101000a900464ffffffffff16602360008060ff16815260200190815260200160002060006101000a81548164ffffffffff021916908364ffffffffff1602179055506000602160009054906101000a900464ffffffffff1690506000808490505b60028364ffffffffff161061043557610405838383610450565b905060026001846104169190610af3565b6104209190610c05565b9250818061042d90610c36565b9250506103eb565b8093506104418461084a565b83602281905550505050919050565b600080600060028664ffffffffff160361060257610487602460008760ff1660ff16815260200190815260200160002054856108e5565b809250819350505073__$bd69ea624114fb48ec2d96990b1b041dcf$__63561558fe60405180604001604052808560001c81526020018460001c8152506040518263ffffffff1660e01b81526004016104e09190610d0a565b602060405180830381865af41580156104fd573d6000803e3d6000fd5b505050506040513d601f19601f820116820180604052508101906105219190610d3a565b60001b925082602460006001886105389190610d67565b60ff1660ff168152602001908152602001600020819055506000602360006001886105639190610d67565b60ff1660ff16815260200190815260200160002060009054906101000a900464ffffffffff1664ffffffffff16036105fd57602360006001876105a69190610d67565b60ff1660ff168152602001908152602001600020600081819054906101000a900464ffffffffff16809291906105db90610b2c565b91906101000a81548164ffffffffff021916908364ffffffffff160217905550505b6106e9565b60016002876106119190610d9c565b64ffffffffff1603610625578392506106e8565b610648602460008760ff1660ff16815260200190815260200160002054856108e5565b809250819350505073__$bd69ea624114fb48ec2d96990b1b041dcf$__63561558fe60405180604001604052808560001c81526020018460001c8152506040518263ffffffff1660e01b81526004016106a19190610d0a565b602060405180830381865af41580156106be573d6000803e3d6000fd5b505050506040513d601f19601f820116820180604052508101906106e29190610d3a565b60001b92505b5b60008560ff16036107175783602460008760ff1660ff16815260200190815260200160002081905550610841565b6000602360008760ff1660ff16815260200190815260200160002060009054906101000a900464ffffffffff1690506000602360006001896107599190610dcd565b60ff1660ff16815260200190815260200160002060009054906101000a900464ffffffffff1690508064ffffffffff1660026001846107989190610af3565b6107a29190610e02565b64ffffffffff160361083e57602360008860ff1660ff168152602001908152602001600020600081819054906101000a900464ffffffffff16809291906107e890610b2c565b91906101000a81548164ffffffffff021916908364ffffffffff1602179055505060028864ffffffffff161461081e5784610820565b855b602460008960ff1660ff168152602001908152602001600020819055505b50505b50509392505050565b602060ff1660008054906101000a900460ff1660ff16036108815760008060006101000a81548160ff021916908360ff1602179055505b80600160008054906101000a900460ff1660ff16602081106108a6576108a5610e3f565b5b018190555060008081819054906101000a900460ff16809291906108c990610c36565b91906101000a81548160ff021916908360ff1602179055505050565b6000808284106108f65782846108f9565b83835b915091509250929050565b600064ffffffffff82169050919050565b61091e81610904565b82525050565b60006020820190506109396000830184610915565b92915050565b600080fd5b600060ff82169050919050565b61095a81610944565b811461096557600080fd5b50565b60008135905061097781610951565b92915050565b6000602082840312156109935761099261093f565b5b60006109a184828501610968565b91505092915050565b6109b381610944565b82525050565b60006020820190506109ce60008301846109aa565b92915050565b6000819050919050565b6109e7816109d4565b81146109f257600080fd5b50565b600081359050610a04816109de565b92915050565b600060208284031215610a2057610a1f61093f565b5b6000610a2e848285016109f5565b91505092915050565b6000819050919050565b610a4a81610a37565b82525050565b6000602082019050610a656000830184610a41565b92915050565b610a7481610a37565b8114610a7f57600080fd5b50565b600081359050610a9181610a6b565b92915050565b600060208284031215610aad57610aac61093f565b5b6000610abb84828501610a82565b91505092915050565b7f4e487b7100000000000000000000000000000000000000000000000000000000600052601160045260246000fd5b6000610afe82610904565b9150610b0983610904565b9250828201905064ffffffffff811115610b2657610b25610ac4565b5b92915050565b6000610b3782610904565b915064ffffffffff8203610b4e57610b4d610ac4565b5b600182019050919050565b600082825260208201905092915050565b7f547265652046756c6c2100000000000000000000000000000000000000000000600082015250565b6000610ba0600a83610b59565b9150610bab82610b6a565b602082019050919050565b60006020820190508181036000830152610bcf81610b93565b9050919050565b7f4e487b7100000000000000000000000000000000000000000000000000000000600052601260045260246000fd5b6000610c1082610904565b9150610c1b83610904565b925082610c2b57610c2a610bd6565b5b828204905092915050565b6000610c4182610944565b915060ff8203610c5457610c53610ac4565b5b600182019050919050565b600060029050919050565b600081905092915050565b6000819050919050565b610c88816109d4565b82525050565b6000610c9a8383610c7f565b60208301905092915050565b6000602082019050919050565b610cbc81610c5f565b610cc68184610c6a565b9250610cd182610c75565b8060005b83811015610d02578151610ce98782610c8e565b9650610cf483610ca6565b925050600181019050610cd5565b505050505050565b6000604082019050610d1f6000830184610cb3565b92915050565b600081519050610d34816109de565b92915050565b600060208284031215610d5057610d4f61093f565b5b6000610d5e84828501610d25565b91505092915050565b6000610d7282610944565b9150610d7d83610944565b9250828201905060ff811115610d9657610d95610ac4565b5b92915050565b6000610da782610904565b9150610db283610904565b925082610dc257610dc1610bd6565b5b828206905092915050565b6000610dd882610944565b9150610de383610944565b9250828203905060ff811115610dfc57610dfb610ac4565b5b92915050565b6000610e0d82610904565b9150610e1883610904565b9250828202610e2681610904565b9150808214610e3857610e37610ac4565b5b5092915050565b7f4e487b7100000000000000000000000000000000000000000000000000000000600052603260045260246000fdfea2646970667358221220fa6b5775dd14917c64dd839a6fb900940f5805e1fe77620bc3a999f748838e5b64736f6c634300081c0033","opcodes":"PUSH1 0xA0 PUSH1 0x40 MSTORE PUSH5 0x100000000 PUSH5 0xFFFFFFFFFF AND PUSH1 0x80 SWAP1 PUSH5 0xFFFFFFFFFF AND DUP2 MSTORE POP CALLVALUE DUP1 ISZERO PUSH2 0x2A JUMPI PUSH1 0x0 DUP1 REVERT JUMPDEST POP PUSH1 0x40 MLOAD PUSH2 0x11BA CODESIZE SUB DUP1 PUSH2 0x11BA DUP4 CODECOPY DUP2 DUP2 ADD PUSH1 0x40 MSTORE DUP2 ADD SWAP1 PUSH2 0x4C SWAP2 SWAP1 PUSH2 0x19E JUMP JUMPDEST DUP1 PUSH1 0x0 DUP2 SWAP1 POP PUSH20 0x0 PUSH4 0x9D036E71 PUSH1 0x40 MLOAD DUP1 PUSH1 0x20 ADD PUSH1 0x40 MSTORE DUP1 DUP5 PUSH1 0x0 SHR DUP2 MSTORE POP PUSH1 0x40 MLOAD DUP3 PUSH4 0xFFFFFFFF AND PUSH1 0xE0 SHL DUP2 MSTORE PUSH1 0x4 ADD PUSH2 0x9A SWAP2 SWAP1 PUSH2 0x280 JUMP JUMPDEST PUSH1 0x20 PUSH1 0x40 MLOAD DUP1 DUP4 SUB DUP2 DUP7 GAS DELEGATECALL ISZERO DUP1 ISZERO PUSH2 0xB7 JUMPI RETURNDATASIZE PUSH1 0x0 DUP1 RETURNDATACOPY RETURNDATASIZE PUSH1 0x0 REVERT JUMPDEST POP POP POP POP PUSH1 0x40 MLOAD RETURNDATASIZE PUSH1 0x1F NOT PUSH1 0x1F DUP3 ADD AND DUP3 ADD DUP1 PUSH1 0x40 MSTORE POP DUP2 ADD SWAP1 PUSH2 0xDB SWAP2 SWAP1 PUSH2 0x2C7 JUMP JUMPDEST PUSH1 0x0 SHL PUSH1 0x22 DUP2 SWAP1 SSTORE POP PUSH1 0x1 PUSH1 0x21 PUSH1 0x0 PUSH2 0x100 EXP DUP2 SLOAD DUP2 PUSH5 0xFFFFFFFFFF MUL NOT AND SWAP1 DUP4 PUSH5 0xFFFFFFFFFF AND MUL OR SWAP1 SSTORE POP PUSH1 0x1 PUSH1 0x23 PUSH1 0x0 DUP1 PUSH1 0xFF AND DUP2 MSTORE PUSH1 0x20 ADD SWAP1 DUP2 MSTORE PUSH1 0x20 ADD PUSH1 0x0 KECCAK256 PUSH1 0x0 PUSH2 0x100 EXP DUP2 SLOAD DUP2 PUSH5 0xFFFFFFFFFF MUL NOT AND SWAP1 DUP4 PUSH5 0xFFFFFFFFFF AND MUL OR SWAP1 SSTORE POP DUP1 PUSH1 0x24 PUSH1 0x0 DUP1 PUSH1 0xFF AND DUP2 MSTORE PUSH1 0x20 ADD SWAP1 DUP2 MSTORE PUSH1 0x20 ADD PUSH1 0x0 KECCAK256 DUP2 SWAP1 SSTORE POP POP POP POP PUSH2 0x2F4 JUMP JUMPDEST PUSH1 0x0 DUP1 REVERT JUMPDEST PUSH1 0x0 DUP2 SWAP1 POP SWAP2 SWAP1 POP JUMP JUMPDEST PUSH2 0x17B DUP2 PUSH2 0x168 JUMP JUMPDEST DUP2 EQ PUSH2 0x186 JUMPI PUSH1 0x0 DUP1 REVERT JUMPDEST POP JUMP JUMPDEST PUSH1 0x0 DUP2 MLOAD SWAP1 POP PUSH2 0x198 DUP2 PUSH2 0x172 JUMP JUMPDEST SWAP3 SWAP2 POP POP JUMP JUMPDEST PUSH1 0x0 PUSH1 0x20 DUP3 DUP5 SUB SLT ISZERO PUSH2 0x1B4 JUMPI PUSH2 0x1B3 PUSH2 0x163 JUMP JUMPDEST JUMPDEST PUSH1 0x0 PUSH2 0x1C2 DUP5 DUP3 DUP6 ADD PUSH2 0x189 JUMP JUMPDEST SWAP2 POP POP SWAP3 SWAP2 POP POP JUMP JUMPDEST PUSH1 0x0 PUSH1 0x1 SWAP1 POP SWAP2 SWAP1 POP JUMP JUMPDEST PUSH1 0x0 DUP2 SWAP1 POP SWAP3 SWAP2 POP POP JUMP JUMPDEST PUSH1 0x0 DUP2 SWAP1 POP SWAP2 SWAP1 POP JUMP JUMPDEST PUSH1 0x0 DUP2 SWAP1 POP SWAP2 SWAP1 POP JUMP JUMPDEST PUSH2 0x1FE DUP2 PUSH2 0x1EB JUMP JUMPDEST DUP3 MSTORE POP POP JUMP JUMPDEST PUSH1 0x0 PUSH2 0x210 DUP4 DUP4 PUSH2 0x1F5 JUMP JUMPDEST PUSH1 0x20 DUP4 ADD SWAP1 POP SWAP3 SWAP2 POP POP JUMP JUMPDEST PUSH1 0x0 PUSH1 0x20 DUP3 ADD SWAP1 POP SWAP2 SWAP1 POP JUMP JUMPDEST PUSH2 0x232 DUP2 PUSH2 0x1CB JUMP JUMPDEST PUSH2 0x23C DUP2 DUP5 PUSH2 0x1D6 JUMP JUMPDEST SWAP3 POP PUSH2 0x247 DUP3 PUSH2 0x1E1 JUMP JUMPDEST DUP1 PUSH1 0x0 JUMPDEST DUP4 DUP2 LT ISZERO PUSH2 0x278 JUMPI DUP2 MLOAD PUSH2 0x25F DUP8 DUP3 PUSH2 0x204 JUMP JUMPDEST SWAP7 POP PUSH2 0x26A DUP4 PUSH2 0x21C JUMP JUMPDEST SWAP3 POP POP PUSH1 0x1 DUP2 ADD SWAP1 POP PUSH2 0x24B JUMP JUMPDEST POP POP POP POP POP POP JUMP JUMPDEST PUSH1 0x0 PUSH1 0x20 DUP3 ADD SWAP1 POP PUSH2 0x295 PUSH1 0x0 DUP4 ADD DUP5 PUSH2 0x229 JUMP JUMPDEST SWAP3 SWAP2 POP POP JUMP JUMPDEST PUSH2 0x2A4 DUP2 PUSH2 0x1EB JUMP JUMPDEST DUP2 EQ PUSH2 0x2AF JUMPI PUSH1 0x0 DUP1 REVERT JUMPDEST POP JUMP JUMPDEST PUSH1 0x0 DUP2 MLOAD SWAP1 POP PUSH2 0x2C1 DUP2 PUSH2 0x29B JUMP JUMPDEST SWAP3 SWAP2 POP POP JUMP JUMPDEST PUSH1 0x0 PUSH1 0x20 DUP3 DUP5 SUB SLT ISZERO PUSH2 0x2DD JUMPI PUSH2 0x2DC PUSH2 0x163 JUMP JUMPDEST JUMPDEST PUSH1 0x0 PUSH2 0x2EB DUP5 DUP3 DUP6 ADD PUSH2 0x2B2 JUMP JUMPDEST SWAP2 POP POP SWAP3 SWAP2 POP POP JUMP JUMPDEST PUSH1 0x80 MLOAD PUSH2 0xEA4 PUSH2 0x316 PUSH1 0x0 CODECOPY PUSH1 0x0 DUP2 DUP2 PUSH2 0x228 ADD MSTORE PUSH2 0x2C8 ADD MSTORE PUSH2 0xEA4 PUSH1 0x0 RETURN INVALID PUSH1 0x80 PUSH1 0x40 MSTORE CALLVALUE DUP1 ISZERO PUSH2 0x10 JUMPI PUSH1 0x0 DUP1 REVERT JUMPDEST POP PUSH1 0x4 CALLDATASIZE LT PUSH2 0x93 JUMPI PUSH1 0x0 CALLDATALOAD PUSH1 0xE0 SHR DUP1 PUSH4 0xD4C6D61F GT PUSH2 0x66 JUMPI DUP1 PUSH4 0xD4C6D61F EQ PUSH2 0x122 JUMPI DUP1 PUSH4 0xD98B4F5E EQ PUSH2 0x140 JUMPI DUP1 PUSH4 0xE2EBD6E1 EQ PUSH2 0x170 JUMPI DUP1 PUSH4 0xEA949346 EQ PUSH2 0x1A0 JUMPI DUP1 PUSH4 0xEBF0C717 EQ PUSH2 0x1BC JUMPI PUSH2 0x93 JUMP JUMPDEST DUP1 PUSH4 0x1F7B6D32 EQ PUSH2 0x98 JUMPI DUP1 PUSH4 0x296F1A9F EQ PUSH2 0xB6 JUMPI DUP1 PUSH4 0x529DD5EA EQ PUSH2 0xE6 JUMPI DUP1 PUSH4 0x807C85B4 EQ PUSH2 0x104 JUMPI JUMPDEST PUSH1 0x0 DUP1 REVERT JUMPDEST PUSH2 0xA0 PUSH2 0x1DA JUMP JUMPDEST PUSH1 0x40 MLOAD PUSH2 0xAD SWAP2 SWAP1 PUSH2 0x924 JUMP JUMPDEST PUSH1 0x40 MLOAD DUP1 SWAP2 SUB SWAP1 RETURN JUMPDEST PUSH2 0xD0 PUSH1 0x4 DUP1 CALLDATASIZE SUB DUP2 ADD SWAP1 PUSH2 0xCB SWAP2 SWAP1 PUSH2 0x97D JUMP JUMPDEST PUSH2 0x1F1 JUMP JUMPDEST PUSH1 0x40 MLOAD PUSH2 0xDD SWAP2 SWAP1 PUSH2 0x924 JUMP JUMPDEST PUSH1 0x40 MLOAD DUP1 SWAP2 SUB SWAP1 RETURN JUMPDEST PUSH2 0xEE PUSH2 0x215 JUMP JUMPDEST PUSH1 0x40 MLOAD PUSH2 0xFB SWAP2 SWAP1 PUSH2 0x9B9 JUMP JUMPDEST PUSH1 0x40 MLOAD DUP1 SWAP2 SUB SWAP1 RETURN JUMPDEST PUSH2 0x10C PUSH2 0x226 JUMP JUMPDEST PUSH1 0x40 MLOAD PUSH2 0x119 SWAP2 SWAP1 PUSH2 0x924 JUMP JUMPDEST PUSH1 0x40 MLOAD DUP1 SWAP2 SUB SWAP1 RETURN JUMPDEST PUSH2 0x12A PUSH2 0x24A JUMP JUMPDEST PUSH1 0x40 MLOAD PUSH2 0x137 SWAP2 SWAP1 PUSH2 0x9B9 JUMP JUMPDEST PUSH1 0x40 MLOAD DUP1 SWAP2 SUB SWAP1 RETURN JUMPDEST PUSH2 0x15A PUSH1 0x4 DUP1 CALLDATASIZE SUB DUP2 ADD SWAP1 PUSH2 0x155 SWAP2 SWAP1 PUSH2 0xA0A JUMP JUMPDEST PUSH2 0x24F JUMP JUMPDEST PUSH1 0x40 MLOAD PUSH2 0x167 SWAP2 SWAP1 PUSH2 0xA50 JUMP JUMPDEST PUSH1 0x40 MLOAD DUP1 SWAP2 SUB SWAP1 RETURN JUMPDEST PUSH2 0x18A PUSH1 0x4 DUP1 CALLDATASIZE SUB DUP2 ADD SWAP1 PUSH2 0x185 SWAP2 SWAP1 PUSH2 0x97D JUMP JUMPDEST PUSH2 0x26A JUMP JUMPDEST PUSH1 0x40 MLOAD PUSH2 0x197 SWAP2 SWAP1 PUSH2 0xA50 JUMP JUMPDEST PUSH1 0x40 MLOAD DUP1 SWAP2 SUB SWAP1 RETURN JUMPDEST PUSH2 0x1BA PUSH1 0x4 DUP1 CALLDATASIZE SUB DUP2 ADD SWAP1 PUSH2 0x1B5 SWAP2 SWAP1 PUSH2 0xA97 JUMP JUMPDEST PUSH2 0x282 JUMP JUMPDEST STOP JUMPDEST PUSH2 0x1C4 PUSH2 0x2BC JUMP JUMPDEST PUSH1 0x40 MLOAD PUSH2 0x1D1 SWAP2 SWAP1 PUSH2 0xA50 JUMP JUMPDEST PUSH1 0x40 MLOAD DUP1 SWAP2 SUB SWAP1 RETURN JUMPDEST PUSH1 0x21 PUSH1 0x0 SWAP1 SLOAD SWAP1 PUSH2 0x100 EXP SWAP1 DIV PUSH5 0xFFFFFFFFFF AND DUP2 JUMP JUMPDEST PUSH1 0x23 PUSH1 0x20 MSTORE DUP1 PUSH1 0x0 MSTORE PUSH1 0x40 PUSH1 0x0 KECCAK256 PUSH1 0x0 SWAP2 POP SLOAD SWAP1 PUSH2 0x100 EXP SWAP1 DIV PUSH5 0xFFFFFFFFFF AND DUP2 JUMP JUMPDEST PUSH1 0x0 DUP1 SLOAD SWAP1 PUSH2 0x100 EXP SWAP1 DIV PUSH1 0xFF AND DUP2 JUMP JUMPDEST PUSH32 0x0 DUP2 JUMP JUMPDEST PUSH1 0x20 DUP2 JUMP JUMPDEST PUSH1 0x1 DUP2 PUSH1 0x20 DUP2 LT PUSH2 0x25F JUMPI PUSH1 0x0 DUP1 REVERT JUMPDEST ADD PUSH1 0x0 SWAP2 POP SWAP1 POP SLOAD DUP2 JUMP JUMPDEST PUSH1 0x24 PUSH1 0x20 MSTORE DUP1 PUSH1 0x0 MSTORE PUSH1 0x40 PUSH1 0x0 KECCAK256 PUSH1 0x0 SWAP2 POP SWAP1 POP SLOAD DUP2 JUMP JUMPDEST PUSH2 0x28B DUP2 PUSH2 0x2C2 JUMP JUMPDEST POP DUP1 PUSH32 0xE031A2A9091BFFBDF32F00286AC809F11DE72B5B10618B213BE2372DA7D92570 PUSH1 0x40 MLOAD PUSH1 0x40 MLOAD DUP1 SWAP2 SUB SWAP1 LOG2 POP JUMP JUMPDEST PUSH1 0x22 SLOAD DUP2 JUMP JUMPDEST PUSH1 0x0 PUSH1 0x1 PUSH32 0x0 PUSH2 0x2F1 SWAP2 SWAP1 PUSH2 0xAF3 JUMP JUMPDEST PUSH5 0xFFFFFFFFFF AND PUSH1 0x21 PUSH1 0x0 DUP2 DUP2 SWAP1 SLOAD SWAP1 PUSH2 0x100 EXP SWAP1 DIV PUSH5 0xFFFFFFFFFF AND DUP1 SWAP3 SWAP2 SWAP1 PUSH2 0x31B SWAP1 PUSH2 0xB2C JUMP JUMPDEST SWAP2 SWAP1 PUSH2 0x100 EXP DUP2 SLOAD DUP2 PUSH5 0xFFFFFFFFFF MUL NOT AND SWAP1 DUP4 PUSH5 0xFFFFFFFFFF AND MUL OR SWAP1 SSTORE POP PUSH5 0xFFFFFFFFFF AND SUB PUSH2 0x382 JUMPI PUSH1 0x40 MLOAD PUSH32 0x8C379A000000000000000000000000000000000000000000000000000000000 DUP2 MSTORE PUSH1 0x4 ADD PUSH2 0x379 SWAP1 PUSH2 0xBB6 JUMP JUMPDEST PUSH1 0x40 MLOAD DUP1 SWAP2 SUB SWAP1 REVERT JUMPDEST PUSH1 0x21 PUSH1 0x0 SWAP1 SLOAD SWAP1 PUSH2 0x100 EXP SWAP1 DIV PUSH5 0xFFFFFFFFFF AND PUSH1 0x23 PUSH1 0x0 DUP1 PUSH1 0xFF AND DUP2 MSTORE PUSH1 0x20 ADD SWAP1 DUP2 MSTORE PUSH1 0x20 ADD PUSH1 0x0 KECCAK256 PUSH1 0x0 PUSH2 0x100 EXP DUP2 SLOAD DUP2 PUSH5 0xFFFFFFFFFF MUL NOT AND SWAP1 DUP4 PUSH5 0xFFFFFFFFFF AND MUL OR SWAP1 SSTORE POP PUSH1 0x0 PUSH1 0x21 PUSH1 0x0 SWAP1 SLOAD SWAP1 PUSH2 0x100 EXP SWAP1 DIV PUSH5 0xFFFFFFFFFF AND SWAP1 POP PUSH1 0x0 DUP1 DUP5 SWAP1 POP JUMPDEST PUSH1 0x2 DUP4 PUSH5 0xFFFFFFFFFF AND LT PUSH2 0x435 JUMPI PUSH2 0x405 DUP4 DUP4 DUP4 PUSH2 0x450 JUMP JUMPDEST SWAP1 POP PUSH1 0x2 PUSH1 0x1 DUP5 PUSH2 0x416 SWAP2 SWAP1 PUSH2 0xAF3 JUMP JUMPDEST PUSH2 0x420 SWAP2 SWAP1 PUSH2 0xC05 JUMP JUMPDEST SWAP3 POP DUP2 DUP1 PUSH2 0x42D SWAP1 PUSH2 0xC36 JUMP JUMPDEST SWAP3 POP POP PUSH2 0x3EB JUMP JUMPDEST DUP1 SWAP4 POP PUSH2 0x441 DUP5 PUSH2 0x84A JUMP JUMPDEST DUP4 PUSH1 0x22 DUP2 SWAP1 SSTORE POP POP POP POP SWAP2 SWAP1 POP JUMP JUMPDEST PUSH1 0x0 DUP1 PUSH1 0x0 PUSH1 0x2 DUP7 PUSH5 0xFFFFFFFFFF AND SUB PUSH2 0x602 JUMPI PUSH2 0x487 PUSH1 0x24 PUSH1 0x0 DUP8 PUSH1 0xFF AND PUSH1 0xFF AND DUP2 MSTORE PUSH1 0x20 ADD SWAP1 DUP2 MSTORE PUSH1 0x20 ADD PUSH1 0x0 KECCAK256 SLOAD DUP6 PUSH2 0x8E5 JUMP JUMPDEST DUP1 SWAP3 POP DUP2 SWAP4 POP POP POP PUSH20 0x0 PUSH4 0x561558FE PUSH1 0x40 MLOAD DUP1 PUSH1 0x40 ADD PUSH1 0x40 MSTORE DUP1 DUP6 PUSH1 0x0 SHR DUP2 MSTORE PUSH1 0x20 ADD DUP5 PUSH1 0x0 SHR DUP2 MSTORE POP PUSH1 0x40 MLOAD DUP3 PUSH4 0xFFFFFFFF AND PUSH1 0xE0 SHL DUP2 MSTORE PUSH1 0x4 ADD PUSH2 0x4E0 SWAP2 SWAP1 PUSH2 0xD0A JUMP JUMPDEST PUSH1 0x20 PUSH1 0x40 MLOAD DUP1 DUP4 SUB DUP2 DUP7 GAS DELEGATECALL ISZERO DUP1 ISZERO PUSH2 0x4FD JUMPI RETURNDATASIZE PUSH1 0x0 DUP1 RETURNDATACOPY RETURNDATASIZE PUSH1 0x0 REVERT JUMPDEST POP POP POP POP PUSH1 0x40 MLOAD RETURNDATASIZE PUSH1 0x1F NOT PUSH1 0x1F DUP3 ADD AND DUP3 ADD DUP1 PUSH1 0x40 MSTORE POP DUP2 ADD SWAP1 PUSH2 0x521 SWAP2 SWAP1 PUSH2 0xD3A JUMP JUMPDEST PUSH1 0x0 SHL SWAP3 POP DUP3 PUSH1 0x24 PUSH1 0x0 PUSH1 0x1 DUP9 PUSH2 0x538 SWAP2 SWAP1 PUSH2 0xD67 JUMP JUMPDEST PUSH1 0xFF AND PUSH1 0xFF AND DUP2 MSTORE PUSH1 0x20 ADD SWAP1 DUP2 MSTORE PUSH1 0x20 ADD PUSH1 0x0 KECCAK256 DUP2 SWAP1 SSTORE POP PUSH1 0x0 PUSH1 0x23 PUSH1 0x0 PUSH1 0x1 DUP9 PUSH2 0x563 SWAP2 SWAP1 PUSH2 0xD67 JUMP JUMPDEST PUSH1 0xFF AND PUSH1 0xFF AND DUP2 MSTORE PUSH1 0x20 ADD SWAP1 DUP2 MSTORE PUSH1 0x20 ADD PUSH1 0x0 KECCAK256 PUSH1 0x0 SWAP1 SLOAD SWAP1 PUSH2 0x100 EXP SWAP1 DIV PUSH5 0xFFFFFFFFFF AND PUSH5 0xFFFFFFFFFF AND SUB PUSH2 0x5FD JUMPI PUSH1 0x23 PUSH1 0x0 PUSH1 0x1 DUP8 PUSH2 0x5A6 SWAP2 SWAP1 PUSH2 0xD67 JUMP JUMPDEST PUSH1 0xFF AND PUSH1 0xFF AND DUP2 MSTORE PUSH1 0x20 ADD SWAP1 DUP2 MSTORE PUSH1 0x20 ADD PUSH1 0x0 KECCAK256 PUSH1 0x0 DUP2 DUP2 SWAP1 SLOAD SWAP1 PUSH2 0x100 EXP SWAP1 DIV PUSH5 0xFFFFFFFFFF AND DUP1 SWAP3 SWAP2 SWAP1 PUSH2 0x5DB SWAP1 PUSH2 0xB2C JUMP JUMPDEST SWAP2 SWAP1 PUSH2 0x100 EXP DUP2 SLOAD DUP2 PUSH5 0xFFFFFFFFFF MUL NOT AND SWAP1 DUP4 PUSH5 0xFFFFFFFFFF AND MUL OR SWAP1 SSTORE POP POP JUMPDEST PUSH2 0x6E9 JUMP JUMPDEST PUSH1 0x1 PUSH1 0x2 DUP8 PUSH2 0x611 SWAP2 SWAP1 PUSH2 0xD9C JUMP JUMPDEST PUSH5 0xFFFFFFFFFF AND SUB PUSH2 0x625 JUMPI DUP4 SWAP3 POP PUSH2 0x6E8 JUMP JUMPDEST PUSH2 0x648 PUSH1 0x24 PUSH1 0x0 DUP8 PUSH1 0xFF AND PUSH1 0xFF AND DUP2 MSTORE PUSH1 0x20 ADD SWAP1 DUP2 MSTORE PUSH1 0x20 ADD PUSH1 0x0 KECCAK256 SLOAD DUP6 PUSH2 0x8E5 JUMP JUMPDEST DUP1 SWAP3 POP DUP2 SWAP4 POP POP POP PUSH20 0x0 PUSH4 0x561558FE PUSH1 0x40 MLOAD DUP1 PUSH1 0x40 ADD PUSH1 0x40 MSTORE DUP1 DUP6 PUSH1 0x0 SHR DUP2 MSTORE PUSH1 0x20 ADD DUP5 PUSH1 0x0 SHR DUP2 MSTORE POP PUSH1 0x40 MLOAD DUP3 PUSH4 0xFFFFFFFF AND PUSH1 0xE0 SHL DUP2 MSTORE PUSH1 0x4 ADD PUSH2 0x6A1 SWAP2 SWAP1 PUSH2 0xD0A JUMP JUMPDEST PUSH1 0x20 PUSH1 0x40 MLOAD DUP1 DUP4 SUB DUP2 DUP7 GAS DELEGATECALL ISZERO DUP1 ISZERO PUSH2 0x6BE JUMPI RETURNDATASIZE PUSH1 0x0 DUP1 RETURNDATACOPY RETURNDATASIZE PUSH1 0x0 REVERT JUMPDEST POP POP POP POP PUSH1 0x40 MLOAD RETURNDATASIZE PUSH1 0x1F NOT PUSH1 0x1F DUP3 ADD AND DUP3 ADD DUP1 PUSH1 0x40 MSTORE POP DUP2 ADD SWAP1 PUSH2 0x6E2 SWAP2 SWAP1 PUSH2 0xD3A JUMP JUMPDEST PUSH1 0x0 SHL SWAP3 POP JUMPDEST JUMPDEST PUSH1 0x0 DUP6 PUSH1 0xFF AND SUB PUSH2 0x717 JUMPI DUP4 PUSH1 0x24 PUSH1 0x0 DUP8 PUSH1 0xFF AND PUSH1 0xFF AND DUP2 MSTORE PUSH1 0x20 ADD SWAP1 DUP2 MSTORE PUSH1 0x20 ADD PUSH1 0x0 KECCAK256 DUP2 SWAP1 SSTORE POP PUSH2 0x841 JUMP JUMPDEST PUSH1 0x0 PUSH1 0x23 PUSH1 0x0 DUP8 PUSH1 0xFF AND PUSH1 0xFF AND DUP2 MSTORE PUSH1 0x20 ADD SWAP1 DUP2 MSTORE PUSH1 0x20 ADD PUSH1 0x0 KECCAK256 PUSH1 0x0 SWAP1 SLOAD SWAP1 PUSH2 0x100 EXP SWAP1 DIV PUSH5 0xFFFFFFFFFF AND SWAP1 POP PUSH1 0x0 PUSH1 0x23 PUSH1 0x0 PUSH1 0x1 DUP10 PUSH2 0x759 SWAP2 SWAP1 PUSH2 0xDCD JUMP JUMPDEST PUSH1 0xFF AND PUSH1 0xFF AND DUP2 MSTORE PUSH1 0x20 ADD SWAP1 DUP2 MSTORE PUSH1 0x20 ADD PUSH1 0x0 KECCAK256 PUSH1 0x0 SWAP1 SLOAD SWAP1 PUSH2 0x100 EXP SWAP1 DIV PUSH5 0xFFFFFFFFFF AND SWAP1 POP DUP1 PUSH5 0xFFFFFFFFFF AND PUSH1 0x2 PUSH1 0x1 DUP5 PUSH2 0x798 SWAP2 SWAP1 PUSH2 0xAF3 JUMP JUMPDEST PUSH2 0x7A2 SWAP2 SWAP1 PUSH2 0xE02 JUMP JUMPDEST PUSH5 0xFFFFFFFFFF AND SUB PUSH2 0x83E JUMPI PUSH1 0x23 PUSH1 0x0 DUP9 PUSH1 0xFF AND PUSH1 0xFF AND DUP2 MSTORE PUSH1 0x20 ADD SWAP1 DUP2 MSTORE PUSH1 0x20 ADD PUSH1 0x0 KECCAK256 PUSH1 0x0 DUP2 DUP2 SWAP1 SLOAD SWAP1 PUSH2 0x100 EXP SWAP1 DIV PUSH5 0xFFFFFFFFFF AND DUP1 SWAP3 SWAP2 SWAP1 PUSH2 0x7E8 SWAP1 PUSH2 0xB2C JUMP JUMPDEST SWAP2 SWAP1 PUSH2 0x100 EXP DUP2 SLOAD DUP2 PUSH5 0xFFFFFFFFFF MUL NOT AND SWAP1 DUP4 PUSH5 0xFFFFFFFFFF AND MUL OR SWAP1 SSTORE POP POP PUSH1 0x2 DUP9 PUSH5 0xFFFFFFFFFF AND EQ PUSH2 0x81E JUMPI DUP5 PUSH2 0x820 JUMP JUMPDEST DUP6 JUMPDEST PUSH1 0x24 PUSH1 0x0 DUP10 PUSH1 0xFF AND PUSH1 0xFF AND DUP2 MSTORE PUSH1 0x20 ADD SWAP1 DUP2 MSTORE PUSH1 0x20 ADD PUSH1 0x0 KECCAK256 DUP2 SWAP1 SSTORE POP JUMPDEST POP POP JUMPDEST POP POP SWAP4 SWAP3 POP POP POP JUMP JUMPDEST PUSH1 0x20 PUSH1 0xFF AND PUSH1 0x0 DUP1 SLOAD SWAP1 PUSH2 0x100 EXP SWAP1 DIV PUSH1 0xFF AND PUSH1 0xFF AND SUB PUSH2 0x881 JUMPI PUSH1 0x0 DUP1 PUSH1 0x0 PUSH2 0x100 EXP DUP2 SLOAD DUP2 PUSH1 0xFF MUL NOT AND SWAP1 DUP4 PUSH1 0xFF AND MUL OR SWAP1 SSTORE POP JUMPDEST DUP1 PUSH1 0x1 PUSH1 0x0 DUP1 SLOAD SWAP1 PUSH2 0x100 EXP SWAP1 DIV PUSH1 0xFF AND PUSH1 0xFF AND PUSH1 0x20 DUP2 LT PUSH2 0x8A6 JUMPI PUSH2 0x8A5 PUSH2 0xE3F JUMP JUMPDEST JUMPDEST ADD DUP2 SWAP1 SSTORE POP PUSH1 0x0 DUP1 DUP2 DUP2 SWAP1 SLOAD SWAP1 PUSH2 0x100 EXP SWAP1 DIV PUSH1 0xFF AND DUP1 SWAP3 SWAP2 SWAP1 PUSH2 0x8C9 SWAP1 PUSH2 0xC36 JUMP JUMPDEST SWAP2 SWAP1 PUSH2 0x100 EXP DUP2 SLOAD DUP2 PUSH1 0xFF MUL NOT AND SWAP1 DUP4 PUSH1 0xFF AND MUL OR SWAP1 SSTORE POP POP POP JUMP JUMPDEST PUSH1 0x0 DUP1 DUP3 DUP5 LT PUSH2 0x8F6 JUMPI DUP3 DUP5 PUSH2 0x8F9 JUMP JUMPDEST DUP4 DUP4 JUMPDEST SWAP2 POP SWAP2 POP SWAP3 POP SWAP3 SWAP1 POP JUMP JUMPDEST PUSH1 0x0 PUSH5 0xFFFFFFFFFF DUP3 AND SWAP1 POP SWAP2 SWAP1 POP JUMP JUMPDEST PUSH2 0x91E DUP2 PUSH2 0x904 JUMP JUMPDEST DUP3 MSTORE POP POP JUMP JUMPDEST PUSH1 0x0 PUSH1 0x20 DUP3 ADD SWAP1 POP PUSH2 0x939 PUSH1 0x0 DUP4 ADD DUP5 PUSH2 0x915 JUMP JUMPDEST SWAP3 SWAP2 POP POP JUMP JUMPDEST PUSH1 0x0 DUP1 REVERT JUMPDEST PUSH1 0x0 PUSH1 0xFF DUP3 AND SWAP1 POP SWAP2 SWAP1 POP JUMP JUMPDEST PUSH2 0x95A DUP2 PUSH2 0x944 JUMP JUMPDEST DUP2 EQ PUSH2 0x965 JUMPI PUSH1 0x0 DUP1 REVERT JUMPDEST POP JUMP JUMPDEST PUSH1 0x0 DUP2 CALLDATALOAD SWAP1 POP PUSH2 0x977 DUP2 PUSH2 0x951 JUMP JUMPDEST SWAP3 SWAP2 POP POP JUMP JUMPDEST PUSH1 0x0 PUSH1 0x20 DUP3 DUP5 SUB SLT ISZERO PUSH2 0x993 JUMPI PUSH2 0x992 PUSH2 0x93F JUMP JUMPDEST JUMPDEST PUSH1 0x0 PUSH2 0x9A1 DUP5 DUP3 DUP6 ADD PUSH2 0x968 JUMP JUMPDEST SWAP2 POP POP SWAP3 SWAP2 POP POP JUMP JUMPDEST PUSH2 0x9B3 DUP2 PUSH2 0x944 JUMP JUMPDEST DUP3 MSTORE POP POP JUMP JUMPDEST PUSH1 0x0 PUSH1 0x20 DUP3 ADD SWAP1 POP PUSH2 0x9CE PUSH1 0x0 DUP4 ADD DUP5 PUSH2 0x9AA JUMP JUMPDEST SWAP3 SWAP2 POP POP JUMP JUMPDEST PUSH1 0x0 DUP2 SWAP1 POP SWAP2 SWAP1 POP JUMP JUMPDEST PUSH2 0x9E7 DUP2 PUSH2 0x9D4 JUMP JUMPDEST DUP2 EQ PUSH2 0x9F2 JUMPI PUSH1 0x0 DUP1 REVERT JUMPDEST POP JUMP JUMPDEST PUSH1 0x0 DUP2 CALLDATALOAD SWAP1 POP PUSH2 0xA04 DUP2 PUSH2 0x9DE JUMP JUMPDEST SWAP3 SWAP2 POP POP JUMP JUMPDEST PUSH1 0x0 PUSH1 0x20 DUP3 DUP5 SUB SLT ISZERO PUSH2 0xA20 JUMPI PUSH2 0xA1F PUSH2 0x93F JUMP JUMPDEST JUMPDEST PUSH1 0x0 PUSH2 0xA2E DUP5 DUP3 DUP6 ADD PUSH2 0x9F5 JUMP JUMPDEST SWAP2 POP POP SWAP3 SWAP2 POP POP JUMP JUMPDEST PUSH1 0x0 DUP2 SWAP1 POP SWAP2 SWAP1 POP JUMP JUMPDEST PUSH2 0xA4A DUP2 PUSH2 0xA37 JUMP JUMPDEST DUP3 MSTORE POP POP JUMP JUMPDEST PUSH1 0x0 PUSH1 0x20 DUP3 ADD SWAP1 POP PUSH2 0xA65 PUSH1 0x0 DUP4 ADD DUP5 PUSH2 0xA41 JUMP JUMPDEST SWAP3 SWAP2 POP POP JUMP JUMPDEST PUSH2 0xA74 DUP2 PUSH2 0xA37 JUMP JUMPDEST DUP2 EQ PUSH2 0xA7F JUMPI PUSH1 0x0 DUP1 REVERT JUMPDEST POP JUMP JUMPDEST PUSH1 0x0 DUP2 CALLDATALOAD SWAP1 POP PUSH2 0xA91 DUP2 PUSH2 0xA6B JUMP JUMPDEST SWAP3 SWAP2 POP POP JUMP JUMPDEST PUSH1 0x0 PUSH1 0x20 DUP3 DUP5 SUB SLT ISZERO PUSH2 0xAAD JUMPI PUSH2 0xAAC PUSH2 0x93F JUMP JUMPDEST JUMPDEST PUSH1 0x0 PUSH2 0xABB DUP5 DUP3 DUP6 ADD PUSH2 0xA82 JUMP JUMPDEST SWAP2 POP POP SWAP3 SWAP2 POP POP JUMP JUMPDEST PUSH32 0x4E487B7100000000000000000000000000000000000000000000000000000000 PUSH1 0x0 MSTORE PUSH1 0x11 PUSH1 0x4 MSTORE PUSH1 0x24 PUSH1 0x0 REVERT JUMPDEST PUSH1 0x0 PUSH2 0xAFE DUP3 PUSH2 0x904 JUMP JUMPDEST SWAP2 POP PUSH2 0xB09 DUP4 PUSH2 0x904 JUMP JUMPDEST SWAP3 POP DUP3 DUP3 ADD SWAP1 POP PUSH5 0xFFFFFFFFFF DUP2 GT ISZERO PUSH2 0xB26 JUMPI PUSH2 0xB25 PUSH2 0xAC4 JUMP JUMPDEST JUMPDEST SWAP3 SWAP2 POP POP JUMP JUMPDEST PUSH1 0x0 PUSH2 0xB37 DUP3 PUSH2 0x904 JUMP JUMPDEST SWAP2 POP PUSH5 0xFFFFFFFFFF DUP3 SUB PUSH2 0xB4E JUMPI PUSH2 0xB4D PUSH2 0xAC4 JUMP JUMPDEST JUMPDEST PUSH1 0x1 DUP3 ADD SWAP1 POP SWAP2 SWAP1 POP JUMP JUMPDEST PUSH1 0x0 DUP3 DUP3 MSTORE PUSH1 0x20 DUP3 ADD SWAP1 POP SWAP3 SWAP2 POP POP JUMP JUMPDEST PUSH32 0x547265652046756C6C2100000000000000000000000000000000000000000000 PUSH1 0x0 DUP3 ADD MSTORE POP JUMP JUMPDEST PUSH1 0x0 PUSH2 0xBA0 PUSH1 0xA DUP4 PUSH2 0xB59 JUMP JUMPDEST SWAP2 POP PUSH2 0xBAB DUP3 PUSH2 0xB6A JUMP JUMPDEST PUSH1 0x20 DUP3 ADD SWAP1 POP SWAP2 SWAP1 POP JUMP JUMPDEST PUSH1 0x0 PUSH1 0x20 DUP3 ADD SWAP1 POP DUP2 DUP2 SUB PUSH1 0x0 DUP4 ADD MSTORE PUSH2 0xBCF DUP2 PUSH2 0xB93 JUMP JUMPDEST SWAP1 POP SWAP2 SWAP1 POP JUMP JUMPDEST PUSH32 0x4E487B7100000000000000000000000000000000000000000000000000000000 PUSH1 0x0 MSTORE PUSH1 0x12 PUSH1 0x4 MSTORE PUSH1 0x24 PUSH1 0x0 REVERT JUMPDEST PUSH1 0x0 PUSH2 0xC10 DUP3 PUSH2 0x904 JUMP JUMPDEST SWAP2 POP PUSH2 0xC1B DUP4 PUSH2 0x904 JUMP JUMPDEST SWAP3 POP DUP3 PUSH2 0xC2B JUMPI PUSH2 0xC2A PUSH2 0xBD6 JUMP JUMPDEST JUMPDEST DUP3 DUP3 DIV SWAP1 POP SWAP3 SWAP2 POP POP JUMP JUMPDEST PUSH1 0x0 PUSH2 0xC41 DUP3 PUSH2 0x944 JUMP JUMPDEST SWAP2 POP PUSH1 0xFF DUP3 SUB PUSH2 0xC54 JUMPI PUSH2 0xC53 PUSH2 0xAC4 JUMP JUMPDEST JUMPDEST PUSH1 0x1 DUP3 ADD SWAP1 POP SWAP2 SWAP1 POP JUMP JUMPDEST PUSH1 0x0 PUSH1 0x2 SWAP1 POP SWAP2 SWAP1 POP JUMP JUMPDEST PUSH1 0x0 DUP2 SWAP1 POP SWAP3 SWAP2 POP POP JUMP JUMPDEST PUSH1 0x0 DUP2 SWAP1 POP SWAP2 SWAP1 POP JUMP JUMPDEST PUSH2 0xC88 DUP2 PUSH2 0x9D4 JUMP JUMPDEST DUP3 MSTORE POP POP JUMP JUMPDEST PUSH1 0x0 PUSH2 0xC9A DUP4 DUP4 PUSH2 0xC7F JUMP JUMPDEST PUSH1 0x20 DUP4 ADD SWAP1 POP SWAP3 SWAP2 POP POP JUMP JUMPDEST PUSH1 0x0 PUSH1 0x20 DUP3 ADD SWAP1 POP SWAP2 SWAP1 POP JUMP JUMPDEST PUSH2 0xCBC DUP2 PUSH2 0xC5F JUMP JUMPDEST PUSH2 0xCC6 DUP2 DUP5 PUSH2 0xC6A JUMP JUMPDEST SWAP3 POP PUSH2 0xCD1 DUP3 PUSH2 0xC75 JUMP JUMPDEST DUP1 PUSH1 0x0 JUMPDEST DUP4 DUP2 LT ISZERO PUSH2 0xD02 JUMPI DUP2 MLOAD PUSH2 0xCE9 DUP8 DUP3 PUSH2 0xC8E JUMP JUMPDEST SWAP7 POP PUSH2 0xCF4 DUP4 PUSH2 0xCA6 JUMP JUMPDEST SWAP3 POP POP PUSH1 0x1 DUP2 ADD SWAP1 POP PUSH2 0xCD5 JUMP JUMPDEST POP POP POP POP POP POP JUMP JUMPDEST PUSH1 0x0 PUSH1 0x40 DUP3 ADD SWAP1 POP PUSH2 0xD1F PUSH1 0x0 DUP4 ADD DUP5 PUSH2 0xCB3 JUMP JUMPDEST SWAP3 SWAP2 POP POP JUMP JUMPDEST PUSH1 0x0 DUP2 MLOAD SWAP1 POP PUSH2 0xD34 DUP2 PUSH2 0x9DE JUMP JUMPDEST SWAP3 SWAP2 POP POP JUMP JUMPDEST PUSH1 0x0 PUSH1 0x20 DUP3 DUP5 SUB SLT ISZERO PUSH2 0xD50 JUMPI PUSH2 0xD4F PUSH2 0x93F JUMP JUMPDEST JUMPDEST PUSH1 0x0 PUSH2 0xD5E DUP5 DUP3 DUP6 ADD PUSH2 0xD25 JUMP JUMPDEST SWAP2 POP POP SWAP3 SWAP2 POP POP JUMP JUMPDEST PUSH1 0x0 PUSH2 0xD72 DUP3 PUSH2 0x944 JUMP JUMPDEST SWAP2 POP PUSH2 0xD7D DUP4 PUSH2 0x944 JUMP JUMPDEST SWAP3 POP DUP3 DUP3 ADD SWAP1 POP PUSH1 0xFF DUP2 GT ISZERO PUSH2 0xD96 JUMPI PUSH2 0xD95 PUSH2 0xAC4 JUMP JUMPDEST JUMPDEST SWAP3 SWAP2 POP POP JUMP JUMPDEST PUSH1 0x0 PUSH2 0xDA7 DUP3 PUSH2 0x904 JUMP JUMPDEST SWAP2 POP PUSH2 0xDB2 DUP4 PUSH2 0x904 JUMP JUMPDEST SWAP3 POP DUP3 PUSH2 0xDC2 JUMPI PUSH2 0xDC1 PUSH2 0xBD6 JUMP JUMPDEST JUMPDEST DUP3 DUP3 MOD SWAP1 POP SWAP3 SWAP2 POP POP JUMP JUMPDEST PUSH1 0x0 PUSH2 0xDD8 DUP3 PUSH2 0x944 JUMP JUMPDEST SWAP2 POP PUSH2 0xDE3 DUP4 PUSH2 0x944 JUMP JUMPDEST SWAP3 POP DUP3 DUP3 SUB SWAP1 POP PUSH1 0xFF DUP2 GT ISZERO PUSH2 0xDFC JUMPI PUSH2 0xDFB PUSH2 0xAC4 JUMP JUMPDEST JUMPDEST SWAP3 SWAP2 POP POP JUMP JUMPDEST PUSH1 0x0 PUSH2 0xE0D DUP3 PUSH2 0x904 JUMP JUMPDEST SWAP2 POP PUSH2 0xE18 DUP4 PUSH2 0x904 JUMP JUMPDEST SWAP3 POP DUP3 DUP3 MUL PUSH2 0xE26 DUP2 PUSH2 0x904 JUMP JUMPDEST SWAP2 POP DUP1 DUP3 EQ PUSH2 0xE38 JUMPI PUSH2 0xE37 PUSH2 0xAC4 JUMP JUMPDEST JUMPDEST POP SWAP3 SWAP2 POP POP JUMP JUMPDEST PUSH32 0x4E487B7100000000000000000000000000000000000000000000000000000000 PUSH1 0x0 MSTORE PUSH1 0x32 PUSH1 0x4 MSTORE PUSH1 0x24 PUSH1 0x0 REVERT INVALID LOG2 PUSH5 0x6970667358 0x22 SLT KECCAK256 STATICCALL PUSH12 0x5775DD14917C64DD839A6FB9 STOP SWAP5 0xF PC SDIV 0xE1 INVALID PUSH24 0x620BC3A999F748838E5B64736F6C634300081C0033000000 "},"methodIdentifiers":{"MAX_LEAVES_LENGTH()":"807c85b4","STORED_ROOT_LENGTH()":"d4c6d61f","addLeaf(bytes32)":"ea949346","depthHashes(uint8)":"e2ebd6e1","depthLengths(uint8)":"296f1a9f","last32Roots(uint256)":"d98b4f5e","length()":"1f7b6d32","root()":"ebf0c717","rootIndex()":"529dd5ea"}}}}}