{
  "_format": "hh-sol-artifact-1",
  "contractName": "TMT",
  "sourceName": "src/TMT.sol",
  "abi": [
    {
      "inputs": [],
      "name": "MAX_LEAVES_LENGTH",
      "outputs": [
        {
          "internalType": "uint40",
          "name": "",
          "type": "uint40"
        }
      ],
      "stateMutability": "view",
      "type": "function"
    },
    {
      "inputs": [],
      "name": "STORED_ROOT_LENGTH",
      "outputs": [
        {
          "internalType": "uint8",
          "name": "",
          "type": "uint8"
        }
      ],
      "stateMutability": "view",
      "type": "function"
    },
    {
      "inputs": [
        {
          "internalType": "string",
          "name": "s",
          "type": "string"
        }
      ],
      "name": "addLeaf",
      "outputs": [],
      "stateMutability": "nonpayable",
      "type": "function"
    },
    {
      "inputs": [
        {
          "internalType": "uint8",
          "name": "depth",
          "type": "uint8"
        }
      ],
      "name": "depthHashes",
      "outputs": [
        {
          "internalType": "bytes32",
          "name": "depthHash",
          "type": "bytes32"
        }
      ],
      "stateMutability": "view",
      "type": "function"
    },
    {
      "inputs": [
        {
          "internalType": "uint8",
          "name": "depth",
          "type": "uint8"
        }
      ],
      "name": "depthLengths",
      "outputs": [
        {
          "internalType": "uint40",
          "name": "depthLength",
          "type": "uint40"
        }
      ],
      "stateMutability": "view",
      "type": "function"
    },
    {
      "inputs": [
        {
          "internalType": "uint256",
          "name": "",
          "type": "uint256"
        }
      ],
      "name": "last32Roots",
      "outputs": [
        {
          "internalType": "bytes32",
          "name": "",
          "type": "bytes32"
        }
      ],
      "stateMutability": "view",
      "type": "function"
    },
    {
      "inputs": [],
      "name": "length",
      "outputs": [
        {
          "internalType": "uint40",
          "name": "",
          "type": "uint40"
        }
      ],
      "stateMutability": "view",
      "type": "function"
    },
    {
      "inputs": [],
      "name": "root",
      "outputs": [
        {
          "internalType": "bytes32",
          "name": "",
          "type": "bytes32"
        }
      ],
      "stateMutability": "view",
      "type": "function"
    },
    {
      "inputs": [],
      "name": "rootIndex",
      "outputs": [
        {
          "internalType": "uint8",
          "name": "",
          "type": "uint8"
        }
      ],
      "stateMutability": "view",
      "type": "function"
    }
  ],
  "bytecode": "0x60a060405264010000000064ffffffffff1660809064ffffffffff1681525034801561002a57600080fd5b506000600260405160200161003e906101eb565b60405160208183030381529060405260405161005a919061027c565b602060405180830381855afa158015610077573d6000803e3d6000fd5b5050506040513d601f19601f8201168201806040525081019061009a91906102ce565b90506002816040516020016100af919061031c565b6040516020818303038152906040526040516100cb919061027c565b602060405180830381855afa1580156100e8573d6000803e3d6000fd5b5050506040513d601f19601f8201168201806040525081019061010b91906102ce565b6022819055506001602160006101000a81548164ffffffffff021916908364ffffffffff1602179055506001602360008060ff16815260200190815260200160002060006101000a81548164ffffffffff021916908364ffffffffff16021790555080602460008060ff1681526020019081526020016000208190555050610337565b600082825260208201905092915050565b7f3000000000000000000000000000000000000000000000000000000000000000600082015250565b60006101d560018361018e565b91506101e08261019f565b602082019050919050565b60006020820190508181036000830152610204816101c8565b9050919050565b600081519050919050565b600081905092915050565b60005b8381101561023f578082015181840152602081019050610224565b60008484015250505050565b60006102568261020b565b6102608185610216565b9350610270818560208601610221565b80840191505092915050565b6000610288828461024b565b915081905092915050565b600080fd5b6000819050919050565b6102ab81610298565b81146102b657600080fd5b50565b6000815190506102c8816102a2565b92915050565b6000602082840312156102e4576102e3610293565b5b60006102f2848285016102b9565b91505092915050565b6000819050919050565b61031661031182610298565b6102fb565b82525050565b60006103288284610305565b60208201915081905092915050565b60805161107461035960003960008181610235015261029b01526110746000f3fe608060405234801561001057600080fd5b50600436106100935760003560e01c8063807c85b411610066578063807c85b414610120578063d4c6d61f1461013e578063d98b4f5e1461015c578063e2ebd6e11461018c578063ebf0c717146101bc57610093565b80631f7b6d3214610098578063296f1a9f146100b6578063529dd5ea146100e657806375a5d22914610104575b600080fd5b6100a06101da565b6040516100ad9190610923565b60405180910390f35b6100d060048036038101906100cb919061098b565b6101f1565b6040516100dd9190610923565b60405180910390f35b6100ee610215565b6040516100fb91906109c7565b60405180910390f35b61011e60048036038101906101199190610b28565b610226565b005b610128610233565b6040516101359190610923565b60405180910390f35b610146610257565b60405161015391906109c7565b60405180910390f35b61017660048036038101906101719190610ba7565b61025c565b6040516101839190610bed565b60405180910390f35b6101a660048036038101906101a1919061098b565b610277565b6040516101b39190610bed565b60405180910390f35b6101c461028f565b6040516101d19190610bed565b60405180910390f35b602160009054906101000a900464ffffffffff1681565b60236020528060005260406000206000915054906101000a900464ffffffffff1681565b60008054906101000a900460ff1681565b61022f81610295565b5050565b7f000000000000000000000000000000000000000000000000000000000000000081565b602081565b6001816020811061026c57600080fd5b016000915090505481565b60246020528060005260406000206000915090505481565b60225481565b600060017f00000000000000000000000000000000000000000000000000000000000000006102c49190610c37565b64ffffffffff166021600081819054906101000a900464ffffffffff16809291906102ee90610c70565b91906101000a81548164ffffffffff021916908364ffffffffff16021790555064ffffffffff1603610355576040517f08c379a000000000000000000000000000000000000000000000000000000000815260040161034c90610cfa565b60405180910390fd5b600060028360405160200161036a9190610d88565b6040516020818303038152906040526040516103869190610df1565b602060405180830381855afa1580156103a3573d6000803e3d6000fd5b5050506040513d601f19601f820116820180604052508101906103c69190610e34565b9050602160009054906101000a900464ffffffffff16602360008060ff16815260200190815260200160002060006101000a81548164ffffffffff021916908364ffffffffff1602179055506000602160009054906101000a900464ffffffffff1690506000808390505b60028364ffffffffff161061047b5761044b838383610497565b9050600260018461045c9190610c37565b6104669190610e90565b9250818061047390610ec1565b925050610431565b80945061048785610849565b8460228190555050505050919050565b600080600060028664ffffffffff1603610625576104ce602460008760ff1660ff16815260200190815260200160002054856108e4565b8092508193505050600282826040516020016104eb929190610f0b565b6040516020818303038152906040526040516105079190610df1565b602060405180830381855afa158015610524573d6000803e3d6000fd5b5050506040513d601f19601f820116820180604052508101906105479190610e34565b9250826024600060018861055b9190610f37565b60ff1660ff168152602001908152602001600020819055506000602360006001886105869190610f37565b60ff1660ff16815260200190815260200160002060009054906101000a900464ffffffffff1664ffffffffff160361062057602360006001876105c99190610f37565b60ff1660ff168152602001908152602001600020600081819054906101000a900464ffffffffff16809291906105fe90610c70565b91906101000a81548164ffffffffff021916908364ffffffffff160217905550505b6106e8565b60016002876106349190610f6c565b64ffffffffff1603610648578392506106e7565b61066b602460008760ff1660ff16815260200190815260200160002054856108e4565b809250819350505060028282604051602001610688929190610f0b565b6040516020818303038152906040526040516106a49190610df1565b602060405180830381855afa1580156106c1573d6000803e3d6000fd5b5050506040513d601f19601f820116820180604052508101906106e49190610e34565b92505b5b60008560ff16036107165783602460008760ff1660ff16815260200190815260200160002081905550610840565b6000602360008760ff1660ff16815260200190815260200160002060009054906101000a900464ffffffffff1690506000602360006001896107589190610f9d565b60ff1660ff16815260200190815260200160002060009054906101000a900464ffffffffff1690508064ffffffffff1660026001846107979190610c37565b6107a19190610fd2565b64ffffffffff160361083d57602360008860ff1660ff168152602001908152602001600020600081819054906101000a900464ffffffffff16809291906107e790610c70565b91906101000a81548164ffffffffff021916908364ffffffffff1602179055505060028864ffffffffff161461081d578461081f565b855b602460008960ff1660ff168152602001908152602001600020819055505b50505b50509392505050565b602060ff1660008054906101000a900460ff1660ff16036108805760008060006101000a81548160ff021916908360ff1602179055505b80600160008054906101000a900460ff1660ff16602081106108a5576108a461100f565b5b018190555060008081819054906101000a900460ff16809291906108c890610ec1565b91906101000a81548160ff021916908360ff1602179055505050565b6000808284106108f55782846108f8565b83835b915091509250929050565b600064ffffffffff82169050919050565b61091d81610903565b82525050565b60006020820190506109386000830184610914565b92915050565b6000604051905090565b600080fd5b600080fd5b600060ff82169050919050565b61096881610952565b811461097357600080fd5b50565b6000813590506109858161095f565b92915050565b6000602082840312156109a1576109a0610948565b5b60006109af84828501610976565b91505092915050565b6109c181610952565b82525050565b60006020820190506109dc60008301846109b8565b92915050565b600080fd5b600080fd5b6000601f19601f8301169050919050565b7f4e487b7100000000000000000000000000000000000000000000000000000000600052604160045260246000fd5b610a35826109ec565b810181811067ffffffffffffffff82111715610a5457610a536109fd565b5b80604052505050565b6000610a6761093e565b9050610a738282610a2c565b919050565b600067ffffffffffffffff821115610a9357610a926109fd565b5b610a9c826109ec565b9050602081019050919050565b82818337600083830152505050565b6000610acb610ac684610a78565b610a5d565b905082815260208101848484011115610ae757610ae66109e7565b5b610af2848285610aa9565b509392505050565b600082601f830112610b0f57610b0e6109e2565b5b8135610b1f848260208601610ab8565b91505092915050565b600060208284031215610b3e57610b3d610948565b5b600082013567ffffffffffffffff811115610b5c57610b5b61094d565b5b610b6884828501610afa565b91505092915050565b6000819050919050565b610b8481610b71565b8114610b8f57600080fd5b50565b600081359050610ba181610b7b565b92915050565b600060208284031215610bbd57610bbc610948565b5b6000610bcb84828501610b92565b91505092915050565b6000819050919050565b610be781610bd4565b82525050565b6000602082019050610c026000830184610bde565b92915050565b7f4e487b7100000000000000000000000000000000000000000000000000000000600052601160045260246000fd5b6000610c4282610903565b9150610c4d83610903565b9250828201905064ffffffffff811115610c6a57610c69610c08565b5b92915050565b6000610c7b82610903565b915064ffffffffff8203610c9257610c91610c08565b5b600182019050919050565b600082825260208201905092915050565b7f547265652046756c6c2100000000000000000000000000000000000000000000600082015250565b6000610ce4600a83610c9d565b9150610cef82610cae565b602082019050919050565b60006020820190508181036000830152610d1381610cd7565b9050919050565b600081519050919050565b60005b83811015610d43578082015181840152602081019050610d28565b60008484015250505050565b6000610d5a82610d1a565b610d648185610c9d565b9350610d74818560208601610d25565b610d7d816109ec565b840191505092915050565b60006020820190508181036000830152610da28184610d4f565b905092915050565b600081519050919050565b600081905092915050565b6000610dcb82610daa565b610dd58185610db5565b9350610de5818560208601610d25565b80840191505092915050565b6000610dfd8284610dc0565b915081905092915050565b610e1181610bd4565b8114610e1c57600080fd5b50565b600081519050610e2e81610e08565b92915050565b600060208284031215610e4a57610e49610948565b5b6000610e5884828501610e1f565b91505092915050565b7f4e487b7100000000000000000000000000000000000000000000000000000000600052601260045260246000fd5b6000610e9b82610903565b9150610ea683610903565b925082610eb657610eb5610e61565b5b828204905092915050565b6000610ecc82610952565b915060ff8203610edf57610ede610c08565b5b600182019050919050565b6000819050919050565b610f05610f0082610bd4565b610eea565b82525050565b6000610f178285610ef4565b602082019150610f278284610ef4565b6020820191508190509392505050565b6000610f4282610952565b9150610f4d83610952565b9250828201905060ff811115610f6657610f65610c08565b5b92915050565b6000610f7782610903565b9150610f8283610903565b925082610f9257610f91610e61565b5b828206905092915050565b6000610fa882610952565b9150610fb383610952565b9250828203905060ff811115610fcc57610fcb610c08565b5b92915050565b6000610fdd82610903565b9150610fe883610903565b9250828202610ff681610903565b915080821461100857611007610c08565b5b5092915050565b7f4e487b7100000000000000000000000000000000000000000000000000000000600052603260045260246000fdfea26469706673582212204c1ec82a892c120cca9a14b8fa3c245697e27baf55384d99f56dc553a05c2ef364736f6c634300081c0033",
  "linkReferences": {},
  "deployedLinkReferences": {}
}