{
  "_format": "hh-sol-artifact-1",
  "contractName": "TMT",
  "sourceName": "src/TMT.sol",
  "abi": [
    {
      "inputs": [
        {
          "internalType": "bytes32",
          "name": "initLeaf",
          "type": "bytes32"
        }
      ],
      "stateMutability": "nonpayable",
      "type": "constructor"
    },
    {
      "anonymous": false,
      "inputs": [
        {
          "indexed": true,
          "internalType": "bytes32",
          "name": "leaf",
          "type": "bytes32"
        }
      ],
      "name": "LeafAdded",
      "type": "event"
    },
    {
      "inputs": [
        {
          "internalType": "bytes32",
          "name": "s",
          "type": "bytes32"
        }
      ],
      "name": "addLeaf",
      "outputs": [],
      "stateMutability": "nonpayable",
      "type": "function"
    },
    {
      "inputs": [],
      "name": "root",
      "outputs": [
        {
          "internalType": "bytes32",
          "name": "",
          "type": "bytes32"
        }
      ],
      "stateMutability": "view",
      "type": "function"
    }
  ],
  "bytecode": "0x60a060405264010000000064ffffffffff1660809064ffffffffff1681525034801561002a57600080fd5b50604051610eb6380380610eb6833981810160405281019061004c919061019e565b80600081905073__$3b95fa720ec38d9edcd1ad06cd0807af45$__639d036e7160405180602001604052808460001c8152506040518263ffffffff1660e01b815260040161009a9190610280565b602060405180830381865af41580156100b7573d6000803e3d6000fd5b505050506040513d601f19601f820116820180604052508101906100db91906102c7565b60001b6022819055506001602160006101000a81548164ffffffffff021916908364ffffffffff1602179055506001602360008060ff16815260200190815260200160002060006101000a81548164ffffffffff021916908364ffffffffff16021790555080602460008060ff168152602001908152602001600020819055505050506102f4565b600080fd5b6000819050919050565b61017b81610168565b811461018657600080fd5b50565b60008151905061019881610172565b92915050565b6000602082840312156101b4576101b3610163565b5b60006101c284828501610189565b91505092915050565b600060019050919050565b600081905092915050565b6000819050919050565b6000819050919050565b6101fe816101eb565b82525050565b600061021083836101f5565b60208301905092915050565b6000602082019050919050565b610232816101cb565b61023c81846101d6565b9250610247826101e1565b8060005b8381101561027857815161025f8782610204565b965061026a8361021c565b92505060018101905061024b565b505050505050565b60006020820190506102956000830184610229565b92915050565b6102a4816101eb565b81146102af57600080fd5b50565b6000815190506102c18161029b565b92915050565b6000602082840312156102dd576102dc610163565b5b60006102eb848285016102b2565b91505092915050565b608051610ba861030e600039600060bb0152610ba86000f3fe608060405234801561001057600080fd5b50600436106100365760003560e01c8063ea9493461461003b578063ebf0c71714610057575b600080fd5b61005560048036038101906100509190610732565b610075565b005b61005f6100af565b60405161006c919061076e565b60405180910390f35b61007e816100b5565b50807fe031a2a9091bffbdf32f00286ac809f11de72b5b10618b213be2372da7d9257060405160405180910390a250565b60225481565b600060017f00000000000000000000000000000000000000000000000000000000000000006100e491906107c9565b64ffffffffff166021600081819054906101000a900464ffffffffff168092919061010e90610802565b91906101000a81548164ffffffffff021916908364ffffffffff16021790555064ffffffffff1603610175576040517f08c379a000000000000000000000000000000000000000000000000000000000815260040161016c9061088c565b60405180910390fd5b602160009054906101000a900464ffffffffff16602360008060ff16815260200190815260200160002060006101000a81548164ffffffffff021916908364ffffffffff1602179055506000602160009054906101000a900464ffffffffff1690506000808490505b60028364ffffffffff1610610228576101f8838383610243565b9050600260018461020991906107c9565b61021391906108db565b9250818061022090610919565b9250506101de565b8093506102348461063d565b83602281905550505050919050565b600080600060028664ffffffffff16036103f55761027a602460008760ff1660ff16815260200190815260200160002054856106d8565b809250819350505073__$bd69ea624114fb48ec2d96990b1b041dcf$__63561558fe60405180604001604052808560001c81526020018460001c8152506040518263ffffffff1660e01b81526004016102d391906109f7565b602060405180830381865af41580156102f0573d6000803e3d6000fd5b505050506040513d601f19601f820116820180604052508101906103149190610a3e565b60001b9250826024600060018861032b9190610a6b565b60ff1660ff168152602001908152602001600020819055506000602360006001886103569190610a6b565b60ff1660ff16815260200190815260200160002060009054906101000a900464ffffffffff1664ffffffffff16036103f057602360006001876103999190610a6b565b60ff1660ff168152602001908152602001600020600081819054906101000a900464ffffffffff16809291906103ce90610802565b91906101000a81548164ffffffffff021916908364ffffffffff160217905550505b6104dc565b60016002876104049190610aa0565b64ffffffffff1603610418578392506104db565b61043b602460008760ff1660ff16815260200190815260200160002054856106d8565b809250819350505073__$bd69ea624114fb48ec2d96990b1b041dcf$__63561558fe60405180604001604052808560001c81526020018460001c8152506040518263ffffffff1660e01b815260040161049491906109f7565b602060405180830381865af41580156104b1573d6000803e3d6000fd5b505050506040513d601f19601f820116820180604052508101906104d59190610a3e565b60001b92505b5b60008560ff160361050a5783602460008760ff1660ff16815260200190815260200160002081905550610634565b6000602360008760ff1660ff16815260200190815260200160002060009054906101000a900464ffffffffff16905060006023600060018961054c9190610ad1565b60ff1660ff16815260200190815260200160002060009054906101000a900464ffffffffff1690508064ffffffffff16600260018461058b91906107c9565b6105959190610b06565b64ffffffffff160361063157602360008860ff1660ff168152602001908152602001600020600081819054906101000a900464ffffffffff16809291906105db90610802565b91906101000a81548164ffffffffff021916908364ffffffffff1602179055505060028864ffffffffff16146106115784610613565b855b602460008960ff1660ff168152602001908152602001600020819055505b50505b50509392505050565b602060ff1660008054906101000a900460ff1660ff16036106745760008060006101000a81548160ff021916908360ff1602179055505b80600160008054906101000a900460ff1660ff166020811061069957610698610b43565b5b018190555060008081819054906101000a900460ff16809291906106bc90610919565b91906101000a81548160ff021916908360ff1602179055505050565b6000808284106106e95782846106ec565b83835b915091509250929050565b600080fd5b6000819050919050565b61070f816106fc565b811461071a57600080fd5b50565b60008135905061072c81610706565b92915050565b600060208284031215610748576107476106f7565b5b60006107568482850161071d565b91505092915050565b610768816106fc565b82525050565b6000602082019050610783600083018461075f565b92915050565b600064ffffffffff82169050919050565b7f4e487b7100000000000000000000000000000000000000000000000000000000600052601160045260246000fd5b60006107d482610789565b91506107df83610789565b9250828201905064ffffffffff8111156107fc576107fb61079a565b5b92915050565b600061080d82610789565b915064ffffffffff82036108245761082361079a565b5b600182019050919050565b600082825260208201905092915050565b7f547265652046756c6c2100000000000000000000000000000000000000000000600082015250565b6000610876600a8361082f565b915061088182610840565b602082019050919050565b600060208201905081810360008301526108a581610869565b9050919050565b7f4e487b7100000000000000000000000000000000000000000000000000000000600052601260045260246000fd5b60006108e682610789565b91506108f183610789565b925082610901576109006108ac565b5b828204905092915050565b600060ff82169050919050565b60006109248261090c565b915060ff82036109375761093661079a565b5b600182019050919050565b600060029050919050565b600081905092915050565b6000819050919050565b6000819050919050565b61097581610962565b82525050565b6000610987838361096c565b60208301905092915050565b6000602082019050919050565b6109a981610942565b6109b3818461094d565b92506109be82610958565b8060005b838110156109ef5781516109d6878261097b565b96506109e183610993565b9250506001810190506109c2565b505050505050565b6000604082019050610a0c60008301846109a0565b92915050565b610a1b81610962565b8114610a2657600080fd5b50565b600081519050610a3881610a12565b92915050565b600060208284031215610a5457610a536106f7565b5b6000610a6284828501610a29565b91505092915050565b6000610a768261090c565b9150610a818361090c565b9250828201905060ff811115610a9a57610a9961079a565b5b92915050565b6000610aab82610789565b9150610ab683610789565b925082610ac657610ac56108ac565b5b828206905092915050565b6000610adc8261090c565b9150610ae78361090c565b9250828203905060ff811115610b0057610aff61079a565b5b92915050565b6000610b1182610789565b9150610b1c83610789565b9250828202610b2a81610789565b9150808214610b3c57610b3b61079a565b5b5092915050565b7f4e487b7100000000000000000000000000000000000000000000000000000000600052603260045260246000fdfea26469706673582212202159cb904ffe2246760992b27043758f7bd077ee227b59e8fe7fc812a050be2064736f6c634300081c0033",
  "linkReferences": {
    "src/lib/PoseidonHash.sol": {
      "PoseidonT2": [
        {
          "length": 20,
          "start": 84
        }
      ],
      "PoseidonT3": [
        {
          "length": 20,
          "start": 1426
        },
        {
          "length": 20,
          "start": 1875
        }
      ]
    }
  },
  "deployedLinkReferences": {
    "src/lib/PoseidonHash.sol": {
      "PoseidonT3": [
        {
          "length": 20,
          "start": 644
        },
        {
          "length": 20,
          "start": 1093
        }
      ]
    }
  }
}