{
  "_format": "hh-sol-artifact-1",
  "contractName": "TMT",
  "sourceName": "src/TMT.sol",
  "abi": [
    {
      "inputs": [
        {
          "internalType": "bytes32",
          "name": "initLeaf",
          "type": "bytes32"
        }
      ],
      "stateMutability": "nonpayable",
      "type": "constructor"
    },
    {
      "anonymous": false,
      "inputs": [
        {
          "indexed": true,
          "internalType": "bytes32",
          "name": "leaf",
          "type": "bytes32"
        }
      ],
      "name": "LeafAdded",
      "type": "event"
    },
    {
      "inputs": [
        {
          "internalType": "bytes32",
          "name": "s",
          "type": "bytes32"
        }
      ],
      "name": "addLeaf",
      "outputs": [],
      "stateMutability": "nonpayable",
      "type": "function"
    },
    {
      "inputs": [],
      "name": "getLast32Roots",
      "outputs": [
        {
          "internalType": "bytes32[32]",
          "name": "",
          "type": "bytes32[32]"
        }
      ],
      "stateMutability": "view",
      "type": "function"
    },
    {
      "inputs": [],
      "name": "root",
      "outputs": [
        {
          "internalType": "bytes32",
          "name": "",
          "type": "bytes32"
        }
      ],
      "stateMutability": "view",
      "type": "function"
    }
  ],
  "bytecode": "0x60a060405264010000000064ffffffffff1660809064ffffffffff1681525034801561002a57600080fd5b50604051611015380380611015833981810160405281019061004c919061019e565b80600081905073__$3b95fa720ec38d9edcd1ad06cd0807af45$__639d036e7160405180602001604052808460001c8152506040518263ffffffff1660e01b815260040161009a9190610280565b602060405180830381865af41580156100b7573d6000803e3d6000fd5b505050506040513d601f19601f820116820180604052508101906100db91906102c7565b60001b6022819055506001602160006101000a81548164ffffffffff021916908364ffffffffff1602179055506001602360008060ff16815260200190815260200160002060006101000a81548164ffffffffff021916908364ffffffffff16021790555080602460008060ff168152602001908152602001600020819055505050506102f4565b600080fd5b6000819050919050565b61017b81610168565b811461018657600080fd5b50565b60008151905061019881610172565b92915050565b6000602082840312156101b4576101b3610163565b5b60006101c284828501610189565b91505092915050565b600060019050919050565b600081905092915050565b6000819050919050565b6000819050919050565b6101fe816101eb565b82525050565b600061021083836101f5565b60208301905092915050565b6000602082019050919050565b610232816101cb565b61023c81846101d6565b9250610247826101e1565b8060005b8381101561027857815161025f8782610204565b965061026a8361021c565b92505060018101905061024b565b505050505050565b60006020820190506102956000830184610229565b92915050565b6102a4816101eb565b81146102af57600080fd5b50565b6000815190506102c18161029b565b92915050565b6000602082840312156102dd576102dc610163565b5b60006102eb848285016102b2565b91505092915050565b608051610d0661030f600039600061012f0152610d066000f3fe608060405234801561001057600080fd5b50600436106100415760003560e01c80639b50d1cb14610046578063ea94934614610064578063ebf0c71714610080575b600080fd5b61004e61009e565b60405161005b9190610843565b60405180910390f35b61007e60048036038101906100799190610890565b6100e9565b005b610088610123565b60405161009591906108cc565b60405180910390f35b6100a661076b565b60016020806020026040519081016040528092919082602080156100df576020028201915b8154815260200190600101908083116100cb575b5050505050905090565b6100f281610129565b50807fe031a2a9091bffbdf32f00286ac809f11de72b5b10618b213be2372da7d9257060405160405180910390a250565b60225481565b600060017f00000000000000000000000000000000000000000000000000000000000000006101589190610927565b64ffffffffff166021600081819054906101000a900464ffffffffff168092919061018290610960565b91906101000a81548164ffffffffff021916908364ffffffffff16021790555064ffffffffff16036101e9576040517f08c379a00000000000000000000000000000000000000000000000000000000081526004016101e0906109ea565b60405180910390fd5b602160009054906101000a900464ffffffffff16602360008060ff16815260200190815260200160002060006101000a81548164ffffffffff021916908364ffffffffff1602179055506000602160009054906101000a900464ffffffffff1690506000808490505b60028364ffffffffff161061029c5761026c8383836102b7565b9050600260018461027d9190610927565b6102879190610a39565b9250818061029490610a77565b925050610252565b8093506102a8846106b1565b83602281905550505050919050565b600080600060028664ffffffffff1603610469576102ee602460008760ff1660ff168152602001908152602001600020548561074c565b809250819350505073__$bd69ea624114fb48ec2d96990b1b041dcf$__63561558fe60405180604001604052808560001c81526020018460001c8152506040518263ffffffff1660e01b81526004016103479190610b55565b602060405180830381865af4158015610364573d6000803e3d6000fd5b505050506040513d601f19601f820116820180604052508101906103889190610b9c565b60001b9250826024600060018861039f9190610bc9565b60ff1660ff168152602001908152602001600020819055506000602360006001886103ca9190610bc9565b60ff1660ff16815260200190815260200160002060009054906101000a900464ffffffffff1664ffffffffff1603610464576023600060018761040d9190610bc9565b60ff1660ff168152602001908152602001600020600081819054906101000a900464ffffffffff168092919061044290610960565b91906101000a81548164ffffffffff021916908364ffffffffff160217905550505b610550565b60016002876104789190610bfe565b64ffffffffff160361048c5783925061054f565b6104af602460008760ff1660ff168152602001908152602001600020548561074c565b809250819350505073__$bd69ea624114fb48ec2d96990b1b041dcf$__63561558fe60405180604001604052808560001c81526020018460001c8152506040518263ffffffff1660e01b81526004016105089190610b55565b602060405180830381865af4158015610525573d6000803e3d6000fd5b505050506040513d601f19601f820116820180604052508101906105499190610b9c565b60001b92505b5b60008560ff160361057e5783602460008760ff1660ff168152602001908152602001600020819055506106a8565b6000602360008760ff1660ff16815260200190815260200160002060009054906101000a900464ffffffffff1690506000602360006001896105c09190610c2f565b60ff1660ff16815260200190815260200160002060009054906101000a900464ffffffffff1690508064ffffffffff1660026001846105ff9190610927565b6106099190610c64565b64ffffffffff16036106a557602360008860ff1660ff168152602001908152602001600020600081819054906101000a900464ffffffffff168092919061064f90610960565b91906101000a81548164ffffffffff021916908364ffffffffff1602179055505060028864ffffffffff16146106855784610687565b855b602460008960ff1660ff168152602001908152602001600020819055505b50505b50509392505050565b602060ff1660008054906101000a900460ff1660ff16036106e85760008060006101000a81548160ff021916908360ff1602179055505b80600160008054906101000a900460ff1660ff166020811061070d5761070c610ca1565b5b018190555060008081819054906101000a900460ff168092919061073090610a77565b91906101000a81548160ff021916908360ff1602179055505050565b60008082841061075d578284610760565b83835b915091509250929050565b604051806104000160405280602090602082028036833780820191505090505090565b600060209050919050565b600081905092915050565b6000819050919050565b6000819050919050565b6107c1816107ae565b82525050565b60006107d383836107b8565b60208301905092915050565b6000602082019050919050565b6107f58161078e565b6107ff8184610799565b925061080a826107a4565b8060005b8381101561083b57815161082287826107c7565b965061082d836107df565b92505060018101905061080e565b505050505050565b60006104008201905061085960008301846107ec565b92915050565b600080fd5b61086d816107ae565b811461087857600080fd5b50565b60008135905061088a81610864565b92915050565b6000602082840312156108a6576108a561085f565b5b60006108b48482850161087b565b91505092915050565b6108c6816107ae565b82525050565b60006020820190506108e160008301846108bd565b92915050565b600064ffffffffff82169050919050565b7f4e487b7100000000000000000000000000000000000000000000000000000000600052601160045260246000fd5b6000610932826108e7565b915061093d836108e7565b9250828201905064ffffffffff81111561095a576109596108f8565b5b92915050565b600061096b826108e7565b915064ffffffffff8203610982576109816108f8565b5b600182019050919050565b600082825260208201905092915050565b7f547265652046756c6c2100000000000000000000000000000000000000000000600082015250565b60006109d4600a8361098d565b91506109df8261099e565b602082019050919050565b60006020820190508181036000830152610a03816109c7565b9050919050565b7f4e487b7100000000000000000000000000000000000000000000000000000000600052601260045260246000fd5b6000610a44826108e7565b9150610a4f836108e7565b925082610a5f57610a5e610a0a565b5b828204905092915050565b600060ff82169050919050565b6000610a8282610a6a565b915060ff8203610a9557610a946108f8565b5b600182019050919050565b600060029050919050565b600081905092915050565b6000819050919050565b6000819050919050565b610ad381610ac0565b82525050565b6000610ae58383610aca565b60208301905092915050565b6000602082019050919050565b610b0781610aa0565b610b118184610aab565b9250610b1c82610ab6565b8060005b83811015610b4d578151610b348782610ad9565b9650610b3f83610af1565b925050600181019050610b20565b505050505050565b6000604082019050610b6a6000830184610afe565b92915050565b610b7981610ac0565b8114610b8457600080fd5b50565b600081519050610b9681610b70565b92915050565b600060208284031215610bb257610bb161085f565b5b6000610bc084828501610b87565b91505092915050565b6000610bd482610a6a565b9150610bdf83610a6a565b9250828201905060ff811115610bf857610bf76108f8565b5b92915050565b6000610c09826108e7565b9150610c14836108e7565b925082610c2457610c23610a0a565b5b828206905092915050565b6000610c3a82610a6a565b9150610c4583610a6a565b9250828203905060ff811115610c5e57610c5d6108f8565b5b92915050565b6000610c6f826108e7565b9150610c7a836108e7565b9250828202610c88816108e7565b9150808214610c9a57610c996108f8565b5b5092915050565b7f4e487b7100000000000000000000000000000000000000000000000000000000600052603260045260246000fdfea26469706673582212203de801c92d4c3bb832754507d84daf9e697deb70b7f06952e87ef5c2b7a38bb664736f6c634300081c0033",
  "linkReferences": {
    "src/lib/PoseidonHash.sol": {
      "PoseidonT2": [
        {
          "length": 20,
          "start": 84
        }
      ],
      "PoseidonT3": [
        {
          "length": 20,
          "start": 1543
        },
        {
          "length": 20,
          "start": 1992
        }
      ]
    }
  },
  "deployedLinkReferences": {
    "src/lib/PoseidonHash.sol": {
      "PoseidonT3": [
        {
          "length": 20,
          "start": 760
        },
        {
          "length": 20,
          "start": 1209
        }
      ]
    }
  }
}